{"contracts/DeFiBank.sol":{"DeFiBank":{"abi":[{"inputs":[],"stateMutability":"nonpayable","type":"constructor"},{"anonymous":false,"inputs":[{"indexed":true,"internalType":"address","name":"user","type":"address"},{"indexed":false,"internalType":"uint256","name":"amount","type":"uint256"},{"indexed":false,"internalType":"uint256","name":"timestamp","type":"uint256"}],"name":"Deposit","type":"event"},{"anonymous":false,"inputs":[{"indexed":true,"internalType":"address","name":"user","type":"address"},{"indexed":false,"internalType":"uint256","name":"amount","type":"uint256"},{"indexed":false,"internalType":"uint256","name":"timestamp","type":"uint256"}],"name":"InterestCredited","type":"event"},{"anonymous":false,"inputs":[{"indexed":true,"internalType":"uint256","name":"offerId","type":"uint256"},{"indexed":true,"internalType":"address","name":"borrower","type":"address"}],"name":"LoanOfferAccepted","type":"event"},{"anonymous":false,"inputs":[{"indexed":true,"internalType":"uint256","name":"offerId","type":"uint256"}],"name":"LoanOfferCancelled","type":"event"},{"anonymous":false,"inputs":[{"indexed":true,"internalType":"uint256","name":"offerId","type":"uint256"},{"indexed":true,"internalType":"address","name":"lender","type":"address"},{"indexed":false,"internalType":"uint256","name":"amount","type":"uint256"},{"indexed":false,"internalType":"uint256","name":"interestRate","type":"uint256"}],"name":"LoanOfferCreated","type":"event"},{"anonymous":false,"inputs":[{"indexed":true,"internalType":"address","name":"user","type":"address"},{"indexed":false,"internalType":"uint256","name":"loanIndex","type":"uint256"},{"indexed":false,"internalType":"uint256","name":"amount","type":"uint256"},{"indexed":false,"internalType":"uint256","name":"timestamp","type":"uint256"}],"name":"LoanRepaid","type":"event"},{"anonymous":false,"inputs":[{"indexed":true,"internalType":"address","name":"user","type":"address"},{"indexed":false,"internalType":"uint256","name":"amount","type":"uint256"},{"indexed":false,"internalType":"uint256","name":"duration","type":"uint256"},{"indexed":false,"internalType":"uint256","name":"timestamp","type":"uint256"}],"name":"LoanTaken","type":"event"},{"anonymous":false,"inputs":[{"indexed":true,"internalType":"address","name":"user","type":"address"},{"indexed":false,"internalType":"uint256","name":"amount","type":"uint256"},{"indexed":false,"internalType":"uint256","name":"timestamp","type":"uint256"}],"name":"SavingsDeposit","type":"event"},{"anonymous":false,"inputs":[{"indexed":true,"internalType":"address","name":"user","type":"address"},{"indexed":false,"internalType":"uint256","name":"amount","type":"uint256"},{"indexed":false,"internalType":"uint256","name":"timestamp","type":"uint256"}],"name":"SavingsWithdrawal","type":"event"},{"anonymous":false,"inputs":[{"indexed":true,"internalType":"address","name":"from","type":"address"},{"indexed":true,"internalType":"address","name":"to","type":"address"},{"indexed":false,"internalType":"uint256","name":"amount","type":"uint256"},{"indexed":false,"internalType":"uint256","name":"timestamp","type":"uint256"}],"name":"Transfer","type":"event"},{"anonymous":false,"inputs":[{"indexed":true,"internalType":"address","name":"user","type":"address"},{"indexed":false,"internalType":"uint256","name":"amount","type":"uint256"},{"indexed":false,"internalType":"uint256","name":"timestamp","type":"uint256"}],"name":"Withdrawal","type":"event"},{"inputs":[{"internalType":"uint256","name":"offerId","type":"uint256"}],"name":"acceptLoanOffer","outputs":[],"stateMutability":"nonpayable","type":"function"},{"inputs":[{"internalType":"address","name":"","type":"address"}],"name":"accounts","outputs":[{"internalType":"uint256","name":"balance","type":"uint256"},{"internalType":"uint256","name":"savingsBalance","type":"uint256"},{"internalType":"uint256","name":"savingsStartTime","type":"uint256"},{"internalType":"uint256","name":"lastInterestCalculation","type":"uint256"},{"internalType":"bool","name":"exists","type":"bool"}],"stateMutability":"view","type":"function"},{"inputs":[{"internalType":"uint256","name":"","type":"uint256"}],"name":"activeLoanOfferIds","outputs":[{"internalType":"uint256","name":"","type":"uint256"}],"stateMutability":"view","type":"function"},{"inputs":[{"internalType":"uint256","name":"offerId","type":"uint256"}],"name":"cancelLoanOffer","outputs":[],"stateMutability":"nonpayable","type":"function"},{"inputs":[{"internalType":"uint256","name":"amount","type":"uint256"},{"internalType":"uint256","name":"interestRate","type":"uint256"},{"internalType":"uint256","name":"durationInDays","type":"uint256"},{"internalType":"uint256","name":"minCollateralPercent","type":"uint256"}],"name":"createLoanOffer","outputs":[],"stateMutability":"nonpayable","type":"function"},{"inputs":[],"name":"deposit","outputs":[],"stateMutability":"payable","type":"function"},{"inputs":[{"internalType":"uint256","name":"amount","type":"uint256"}],"name":"depositToSavings","outputs":[],"stateMutability":"nonpayable","type":"function"},{"inputs":[],"name":"getActiveLoanOffers","outputs":[{"components":[{"internalType":"uint256","name":"id","type":"uint256"},{"internalType":"address","name":"lender","type":"address"},{"internalType":"uint256","name":"amount","type":"uint256"},{"internalType":"uint256","name":"interestRate","type":"uint256"},{"internalType":"uint256","name":"durationInDays","type":"uint256"},{"internalType":"uint256","name":"minCollateralPercent","type":"uint256"},{"internalType":"bool","name":"active","type":"bool"},{"internalType":"address","name":"borrower","type":"address"}],"internalType":"struct DeFiBank.LoanOffer[]","name":"","type":"tuple[]"}],"stateMutability":"view","type":"function"},{"inputs":[],"name":"getBalance","outputs":[{"internalType":"uint256","name":"","type":"uint256"}],"stateMutability":"view","type":"function"},{"inputs":[{"internalType":"uint256","name":"loanIndex","type":"uint256"}],"name":"getLoan","outputs":[{"internalType":"uint256","name":"amount","type":"uint256"},{"internalType":"uint256","name":"interestRate","type":"uint256"},{"internalType":"uint256","name":"startTime","type":"uint256"},{"internalType":"uint256","name":"duration","type":"uint256"},{"internalType":"bool","name":"active","type":"bool"},{"internalType":"uint256","name":"repaidAmount","type":"uint256"},{"internalType":"uint256","name":"totalDue","type":"uint256"}],"stateMutability":"view","type":"function"},{"inputs":[],"name":"getLoanCount","outputs":[{"internalType":"uint256","name":"","type":"uint256"}],"stateMutability":"view","type":"function"},{"inputs":[],"name":"getSavingsBalance","outputs":[{"internalType":"uint256","name":"","type":"uint256"}],"stateMutability":"view","type":"function"},{"inputs":[],"name":"getTransactionCount","outputs":[{"internalType":"uint256","name":"","type":"uint256"}],"stateMutability":"view","type":"function"},{"inputs":[],"name":"getTransactionHistory","outputs":[{"components":[{"internalType":"address","name":"from","type":"address"},{"internalType":"address","name":"to","type":"address"},{"internalType":"uint256","name":"amount","type":"uint256"},{"internalType":"uint256","name":"timestamp","type":"uint256"},{"internalType":"string","name":"transactionType","type":"string"}],"internalType":"struct DeFiBank.Transaction[]","name":"","type":"tuple[]"}],"stateMutability":"view","type":"function"},{"inputs":[],"name":"loanInterestRate","outputs":[{"internalType":"uint256","name":"","type":"uint256"}],"stateMutability":"view","type":"function"},{"inputs":[{"internalType":"uint256","name":"","type":"uint256"}],"name":"loanOffers","outputs":[{"internalType":"uint256","name":"id","type":"uint256"},{"internalType":"address","name":"lender","type":"address"},{"internalType":"uint256","name":"amount","type":"uint256"},{"internalType":"uint256","name":"interestRate","type":"uint256"},{"internalType":"uint256","name":"durationInDays","type":"uint256"},{"internalType":"uint256","name":"minCollateralPercent","type":"uint256"},{"internalType":"bool","name":"active","type":"bool"},{"internalType":"address","name":"borrower","type":"address"}],"stateMutability":"view","type":"function"},{"inputs":[{"internalType":"address","name":"","type":"address"},{"internalType":"uint256","name":"","type":"uint256"}],"name":"loans","outputs":[{"internalType":"uint256","name":"amount","type":"uint256"},{"internalType":"uint256","name":"interestRate","type":"uint256"},{"internalType":"uint256","name":"startTime","type":"uint256"},{"internalType":"uint256","name":"duration","type":"uint256"},{"internalType":"bool","name":"active","type":"bool"},{"internalType":"uint256","name":"repaidAmount","type":"uint256"},{"internalType":"address","name":"lender","type":"address"}],"stateMutability":"view","type":"function"},{"inputs":[],"name":"nextOfferId","outputs":[{"internalType":"uint256","name":"","type":"uint256"}],"stateMutability":"view","type":"function"},{"inputs":[],"name":"owner","outputs":[{"internalType":"address","name":"","type":"address"}],"stateMutability":"view","type":"function"},{"inputs":[{"internalType":"uint256","name":"loanIndex","type":"uint256"},{"internalType":"uint256","name":"amount","type":"uint256"}],"name":"repayLoan","outputs":[],"stateMutability":"nonpayable","type":"function"},{"inputs":[],"name":"savingsInterestRate","outputs":[{"internalType":"uint256","name":"","type":"uint256"}],"stateMutability":"view","type":"function"},{"inputs":[{"internalType":"uint256","name":"rate","type":"uint256"}],"name":"setLoanInterestRate","outputs":[],"stateMutability":"nonpayable","type":"function"},{"inputs":[{"internalType":"uint256","name":"rate","type":"uint256"}],"name":"setSavingsInterestRate","outputs":[],"stateMutability":"nonpayable","type":"function"},{"inputs":[{"internalType":"uint256","name":"amount","type":"uint256"},{"internalType":"uint256","name":"durationInDays","type":"uint256"}],"name":"takeLoan","outputs":[],"stateMutability":"nonpayable","type":"function"},{"inputs":[],"name":"totalDeposits","outputs":[{"internalType":"uint256","name":"","type":"uint256"}],"stateMutability":"view","type":"function"},{"inputs":[],"name":"totalLoans","outputs":[{"internalType":"uint256","name":"","type":"uint256"}],"stateMutability":"view","type":"function"},{"inputs":[{"internalType":"address","name":"","type":"address"},{"internalType":"uint256","name":"","type":"uint256"}],"name":"transactions","outputs":[{"internalType":"address","name":"from","type":"address"},{"internalType":"address","name":"to","type":"address"},{"internalType":"uint256","name":"amount","type":"uint256"},{"internalType":"uint256","name":"timestamp","type":"uint256"},{"internalType":"string","name":"transactionType","type":"string"}],"stateMutability":"view","type":"function"},{"inputs":[{"internalType":"address","name":"to","type":"address"},{"internalType":"uint256","name":"amount","type":"uint256"}],"name":"transfer","outputs":[],"stateMutability":"nonpayable","type":"function"},{"inputs":[{"internalType":"uint256","name":"amount","type":"uint256"}],"name":"withdraw","outputs":[],"stateMutability":"nonpayable","type":"function"},{"inputs":[{"internalType":"uint256","name":"amount","type":"uint256"}],"name":"withdrawFromSavings","outputs":[],"stateMutability":"nonpayable","type":"function"},{"stateMutability":"payable","type":"receive"}],"evm":{"bytecode":{"linkReferences":{},"object":"60806040526101f460035561032060045534801561001c57600080fd5b50600080546001600160a01b0319163390811782556040805160a0810182528381526020808201858152828401868152426060850190815260016080860181815297895260059094529490962092518355519082015592516002840155516003830155516004909101805491151560ff19909216919091179055612e0b806100a56000396000f3fe6080604052600436106101d15760003560e01c80636de7ce14116100f7578063a318312511610095578063cc952b5711610064578063cc952b5714610670578063d0e30db014610686578063d30999831461068e578063f240f8cc146106ae57600080fd5b8063a3183125146105f8578063a9059cbb14610618578063b76d4fc314610638578063c222bcea1461065a57600080fd5b80638a700b53116100d15780638a700b531461051e5780638da5cb5b1461053e578063904796d41461057657806398c61c371461059857600080fd5b80636de7ce14146104c857806374cbe57e146104e85780637d8820971461050857600080fd5b80632e7700f01161016f578063521968121161013e57806352196812146104115780635e5c06e2146104265780635f5d06551461049d578063620d54b2146104b357600080fd5b80632e7700f0146103655780634402cc2b1461037a5780634b56504f1461039a578063504006ca146103ba57600080fd5b806321265d0e116101ab57806321265d0e1461024c5780632a3cb13a1461026e5780632c7bdd4b1461028e5780632e1a7d4d1461034557600080fd5b806312065fe0146101dd5780631453812814610205578063196a29eb1461023657600080fd5b366101d857005b600080fd5b3480156101e957600080fd5b506101f26106ce565b6040519081526020015b60405180910390f35b34801561021157600080fd5b50610225610220366004612885565b610702565b6040516101fc9594939291906128f5565b34801561024257600080fd5b506101f260035481565b34801561025857600080fd5b5061026c61026736600461293a565b6107ea565b005b34801561027a57600080fd5b5061026c61028936600461293a565b610aea565b34801561029a57600080fd5b506102fd6102a936600461293a565b600860205260009081526040902080546001820154600283015460038401546004850154600586015460069096015494956001600160a01b0394851695939492939192909160ff8116916101009091041688565b604080519889526001600160a01b0397881660208a01528801959095526060870193909352608086019190915260a0850152151560c08401521660e0820152610100016101fc565b34801561035157600080fd5b5061026c61036036600461293a565b610b19565b34801561037157600080fd5b506101f2610c89565b34801561038657600080fd5b506101f261039536600461293a565b610cbd565b3480156103a657600080fd5b5061026c6103b536600461293a565b610cde565b3480156103c657600080fd5b506103da6103d536600461293a565b610e9f565b6040805197885260208801969096529486019390935260608501919091521515608084015260a083015260c082015260e0016101fc565b34801561041d57600080fd5b506101f261102c565b34801561043257600080fd5b50610473610441366004612953565b600560205260009081526040902080546001820154600283015460038401546004909401549293919290919060ff1685565b6040805195865260208601949094529284019190915260608301521515608082015260a0016101fc565b3480156104a957600080fd5b506101f260095481565b3480156104bf57600080fd5b506101f2611060565b3480156104d457600080fd5b5061026c6104e336600461293a565b611138565b3480156104f457600080fd5b5061026c61050336600461293a565b611167565b34801561051457600080fd5b506101f260015481565b34801561052a57600080fd5b5061026c610539366004612975565b611290565b34801561054a57600080fd5b5060005461055e906001600160a01b031681565b6040516001600160a01b0390911681526020016101fc565b34801561058257600080fd5b5061058b611690565b6040516101fc9190612997565b3480156105a457600080fd5b506105b86105b3366004612885565b6118ac565b6040805197885260208801969096529486019390935260608501919091521515608084015260a08301526001600160a01b031660c082015260e0016101fc565b34801561060457600080fd5b5061026c610613366004612975565b611915565b34801561062457600080fd5b5061026c610633366004612885565b611bdf565b34801561064457600080fd5b5061064d611d9d565b6040516101fc9190612a32565b34801561066657600080fd5b506101f260045481565b34801561067c57600080fd5b506101f260025481565b61026c611f5c565b34801561069a57600080fd5b5061026c6106a936600461293a565b612069565b3480156106ba57600080fd5b5061026c6106c9366004612ad3565b61220f565b3360009081526005602052604081206004015460ff166106ee5750600090565b503360009081526005602052604090205490565b6007602052816000526040600020818154811061071e57600080fd5b6000918252602090912060059091020180546001820154600283015460038401546004850180546001600160a01b03958616985093909416955090939092909161076790612b05565b80601f016020809104026020016040519081016040528092919081815260200182805461079390612b05565b80156107e05780601f106107b5576101008083540402835291602001916107e0565b820191906000526020600020905b8154815290600101906020018083116107c357829003601f168201915b5050505050905085565b6107f333612487565b6000818152600860205260409020600681015460ff166108555760405162461bcd60e51b81526020600482015260186024820152774c6f616e206f66666572206973206e6f742061637469766560401b60448201526064015b60405180910390fd5b6001810154336001600160a01b03909116036108bd5760405162461bcd60e51b815260206004820152602160248201527f43616e6e6f742061636365707420796f7572206f776e206c6f616e206f6666656044820152603960f91b606482015260840161084c565b60006064826005015483600201546108d59190612b55565b6108df9190612b72565b3360009081526005602052604090206001015490915081111561093e5760405162461bcd60e51b8152602060048201526017602482015276125b9cdd59999a58da595b9d0818dbdb1b185d195c985b604a1b604482015260640161084c565b6006820180546001600160a81b03191661010033021790556040805160e0810182526002840154815260038401546020820152429181019190915260048301546000919060608201906109949062015180612b55565b81526001602080830182905260006040808501829052888401546001600160a01b03908116606096870152338084526006808652838520805480890182559086528686208a51600790920201908155898701519781019790975588840151600280890191909155978901516003880155608089015160048801805460ff191691151591909117905560a089015160058089019190915560c08a01519790910180546001600160a01b0319169790931696909617909155948901549482529290915290812080549394509192610a6a908490612b94565b90915550610a79905084612521565b60018301546002840154604080518082019091526008815267281928102637b0b760c11b6020820152610ab7926001600160a01b03169133916125dd565b604051339085907f2e68edc76171b2dc4d4b10fffed9d8fe887a05c5c66f45a570ca91f141464a7390600090a350505050565b6000546001600160a01b03163314610b145760405162461bcd60e51b815260040161084c90612ba7565b600455565b610b2233612487565b60008111610b835760405162461bcd60e51b815260206004820152602860248201527f5769746864726177616c20616d6f756e74206d75737420626520677265617465604482015267072207468616e20360c41b606482015260840161084c565b33600090815260056020526040902054811115610bb25760405162461bcd60e51b815260040161084c90612be8565b3360009081526005602052604081208054839290610bd1908490612c16565b925050819055508060016000828254610bea9190612c16565b9091555050604051339082156108fc029083906000818181858888f19350505050158015610c1c573d6000803e3d6000fd5b50610c4b3333836040518060400160405280600a81526020016915da5d1a191c985dd85b60b21b8152506125dd565b6040805182815242602082015233917fdf273cb619d95419a9cd0ec88123a0538c85064229baa6363788f743fff90deb91015b60405180910390a250565b3360009081526005602052604081206004015460ff16610ca95750600090565b503360009081526007602052604090205490565b600a8181548110610ccd57600080fd5b600091825260209091200154905081565b610ce733612487565b60008111610d375760405162461bcd60e51b815260206004820152601d60248201527f416d6f756e74206d7573742062652067726561746572207468616e2030000000604482015260640161084c565b33600090815260056020526040902060010154811115610d995760405162461bcd60e51b815260206004820152601c60248201527f496e73756666696369656e7420736176696e67732062616c616e636500000000604482015260640161084c565b610da233612734565b3360009081526005602052604081206001018054839290610dc4908490612c16565b90915550503360009081526005602052604081208054839290610de8908490612b94565b9091555050336000908152600560205260408120600101549003610e1a57336000908152600560205260408120600201555b33600081815260056020908152604091829020426003909101558151808301909252601282527114d85d9a5b99dcc815da5d1a191c985dd85b60721b90820152610e689190819084906125dd565b6040805182815242602082015233917fbc5ad05086f5c2b5ee738247479b6ca942dbc8b5f4d742217264a5ab2e1467119101610c7e565b3360009081526005602052604081206004015481908190819081908190819060ff161580610edc5750336000908152600660205260409020548810155b15610efb57506000955085945084935083925082915081905080611021565b33600090815260066020526040812080548a908110610f1c57610f1c612c29565b600091825260208083206040805160e081018252600790940290910180548452600181015492840192909252600282015490830181905260038201546060840152600482015460ff1615156080840152600582015460a08401526006909101546001600160a01b031660c0830152909250610f979042612c16565b9050600064496cebb8008284602001518560000151610fb69190612b55565b610fc09190612b55565b610fca9190612b72565b905060008360a00151828560000151610fe39190612b94565b610fed9190612c16565b9050836000015184602001518560400151866060015187608001518860a00151869a509a509a509a509a509a509a50505050505b919395979092949650565b3360009081526005602052604081206004015460ff1661104c5750600090565b503360009081526006602052604090205490565b3360009081526005602052604081206004015460ff166110805750600090565b336000908152600560209081526040808320815160a081018352815481526001820154938101849052600282015492810192909252600381015460608301526004015460ff161515608082015291036110db57600091505090565b60008160600151426110ed9190612c16565b9050600064496cebb80082600354856020015161110a9190612b55565b6111149190612b55565b61111e9190612b72565b90508083602001516111309190612b94565b935050505090565b6000546001600160a01b031633146111625760405162461bcd60e51b815260040161084c90612ba7565b600355565b61117033612487565b6000818152600860205260409020600681015460ff166111cd5760405162461bcd60e51b81526020600482015260186024820152774c6f616e206f66666572206973206e6f742061637469766560401b604482015260640161084c565b60018101546001600160a01b031633146112225760405162461bcd60e51b815260206004820152601660248201527513db9b1e481b195b99195c8818d85b8818d85b98d95b60521b604482015260640161084c565b60068101805460ff1916905560028101543360009081526005602052604081208054909190611252908490612b94565b90915550611261905082612521565b60405182907feff051d270f5ecee1680a12ea87f0452d48a2637f5e381834c1b9d630e1b914890600090a25050565b61129933612487565b3360009081526006602052604090205482106112ec5760405162461bcd60e51b8152602060048201526012602482015271092dcecc2d8d2c840d8dec2dc40d2dcc8caf60731b604482015260640161084c565b33600090815260066020526040902080548390811061130d5761130d612c29565b600091825260209091206004600790920201015460ff166113655760405162461bcd60e51b81526020600482015260126024820152714c6f616e206973206e6f742061637469766560701b604482015260640161084c565b600081116113c55760405162461bcd60e51b815260206004820152602760248201527f52657061796d656e7420616d6f756e74206d75737420626520677265617465726044820152660207468616e20360cc1b606482015260840161084c565b336000908152600560205260409020548111156113f45760405162461bcd60e51b815260040161084c90612be8565b33600090815260066020526040812080548490811061141557611415612c29565b9060005260206000209060070201905060008160020154426114379190612c16565b9050600064496cebb80082846001015485600001546114569190612b55565b6114609190612b55565b61146a9190612b72565b9050600083600501548285600001546114839190612b94565b61148d9190612c16565b9050808511156114df5760405162461bcd60e51b815260206004820152601d60248201527f52657061796d656e742065786365656473206c6f616e20616d6f756e74000000604482015260640161084c565b33600090815260056020526040812080548792906114fe908490612c16565b92505081905550848460050160008282546115199190612b94565b9091555050835461152b908390612b94565b84600501541061156d5760048401805460ff1916905560068401546001600160a01b031661156d57835460028054600090611567908490612c16565b90915550505b60068401546001600160a01b031615611614576006840154611597906001600160a01b0316612487565b60068401546001600160a01b0316600090815260056020526040812080548792906115c3908490612b94565b90915550506006840154604080518082019091526012815271140c9408131bd85b8814995c185e5b595b9d60721b602082015261160f9133916001600160a01b039091169088906125dd565b611646565b6116463330876040518060400160405280600e81526020016d131bd85b8814995c185e5b595b9d60921b8152506125dd565b60408051878152602081018790524281830152905133917f2cebe3c4a7e8e81ca2035a6cb3ee450bb6401d9b6636652e183583f047049572919081900360600190a2505050505050565b600a5460609060009067ffffffffffffffff8111156116b1576116b1612c3f565b6040519080825280602002602001820160405280156116ea57816020015b6116d7612810565b8152602001906001900390816116cf5790505b5090506000805b600a548110156117f7576000600a828154811061171057611710612c29565b6000918252602080832090910154808352600890915260409091206006015490915060ff16156117e457600081815260086020908152604091829020825161010080820185528254825260018301546001600160a01b03908116948301949094526002830154948201949094526003820154606082015260048201546080820152600582015460a082015260069091015460ff8116151560c0830152929092041660e082015284518590859081106117ca576117ca612c29565b602002602001018190525082806117e090612c55565b9350505b50806117ef81612c55565b9150506116f1565b5060008167ffffffffffffffff81111561181357611813612c3f565b60405190808252806020026020018201604052801561184c57816020015b611839612810565b8152602001906001900390816118315790505b50905060005b828110156118a45783818151811061186c5761186c612c29565b602002602001015182828151811061188657611886612c29565b6020026020010181905250808061189c90612c55565b915050611852565b509392505050565b600660205281600052604060002081815481106118c857600080fd5b600091825260209091206007909102018054600182015460028301546003840154600485015460058601546006909601549497509295509093909260ff909216916001600160a01b031687565b61191e33612487565b6000821161193e5760405162461bcd60e51b815260040161084c90612c6e565b6000811161198e5760405162461bcd60e51b815260206004820152601f60248201527f4475726174696f6e206d7573742062652067726561746572207468616e203000604482015260640161084c565b814710156119de5760405162461bcd60e51b815260206004820152601d60248201527f496e73756666696369656e7420636f6e74726163742062616c616e6365000000604482015260640161084c565b600060646119ed846096612b55565b6119f79190612b72565b33600090815260056020526040902060010154909150811115611a565760405162461bcd60e51b8152602060048201526017602482015276125b9cdd59999a58da595b9d0818dbdb1b185d195c985b604a1b604482015260640161084c565b60006040518060e0016040528085815260200160045481526020014281526020018462015180611a869190612b55565b8152600160208083018290526000604080850182905260609485018290523380835260068085528284208054808801825590855285852089516007909202019081558886015196810196909655878301516002870155958701516003860155608087015160048601805460ff191691151591909117905560a087015160058087019190915560c08801519590960180546001600160a01b0319166001600160a01b0390961695909517909455928152929052812080549293508692909190611b4f908490612b94565b925050819055508360026000828254611b689190612b94565b92505081905550611b97303386604051806040016040528060048152602001632637b0b760e11b8152506125dd565b60408051858152602081018590524281830152905133917f1daae93c0719c540c3891d8a11e5f3b79cbd03028f1fa7e520d31c1a87843335919081900360600190a250505050565b611be833612487565b6001600160a01b038216611c3e5760405162461bcd60e51b815260206004820152601960248201527f496e76616c696420726563697069656e74206164647265737300000000000000604482015260640161084c565b60008111611c9d5760405162461bcd60e51b815260206004820152602660248201527f5472616e7366657220616d6f756e74206d75737420626520677265617465722060448201526507468616e20360d41b606482015260840161084c565b33600090815260056020526040902054811115611ccc5760405162461bcd60e51b815260040161084c90612be8565b611cd582612487565b3360009081526005602052604081208054839290611cf4908490612c16565b90915550506001600160a01b03821660009081526005602052604081208054839290611d21908490612b94565b92505081905550611d54338383604051806040016040528060088152602001672a3930b739b332b960c11b8152506125dd565b604080518281524260208201526001600160a01b0384169133917f9ed053bb818ff08b8353cd46f78db1f0799f31c9e4458fdb425c10eccd2efc44910160405180910390a35050565b3360009081526005602052604090206004015460609060ff16611e2d576040805160008082526020820190925290611e27565b611e146040518060a0016040528060006001600160a01b0316815260200160006001600160a01b031681526020016000815260200160008152602001606081525090565b815260200190600190039081611dd05790505b50905090565b33600090815260076020908152604080832080548251818502810185019093528083529193909284015b82821015611f535760008481526020908190206040805160a0810182526005860290920180546001600160a01b0390811684526001820154169383019390935260028301549082015260038201546060820152600482018054919291608084019190611ec290612b05565b80601f0160208091040260200160405190810160405280929190818152602001828054611eee90612b05565b8015611f3b5780601f10611f1057610100808354040283529160200191611f3b565b820191906000526020600020905b815481529060010190602001808311611f1e57829003601f168201915b50505050508152505081526020019060010190611e57565b50505050905090565b611f6533612487565b60003411611fc35760405162461bcd60e51b815260206004820152602560248201527f4465706f73697420616d6f756e74206d75737420626520677265617465722074604482015264068616e20360dc1b606482015260840161084c565b3360009081526005602052604081208054349290611fe2908490612b94565b925050819055503460016000828254611ffb9190612b94565b9250508190555061202d3333346040518060400160405280600781526020016611195c1bdcda5d60ca1b8152506125dd565b6040805134815242602082015233917f90890809c654f11d6e72a28fa60149770a0d11ec6c92319d6ceb2bb0a4ea1a15910160405180910390a2565b61207233612487565b600081116120c25760405162461bcd60e51b815260206004820152601d60248201527f416d6f756e74206d7573742062652067726561746572207468616e2030000000604482015260640161084c565b336000908152600560205260409020548111156120f15760405162461bcd60e51b815260040161084c90612be8565b33600090815260056020526040902060010154156121125761211233612734565b3360009081526005602052604081208054839290612131908490612c16565b90915550503360009081526005602052604081206001018054839290612158908490612b94565b909155505033600090815260056020526040812060020154900361218d57336000908152600560205260409020426002909101555b33600081815260056020908152604091829020426003909101558151808301909252600f82526e14d85d9a5b99dcc811195c1bdcda5d608a1b908201526121d89190819084906125dd565b6040805182815242602082015233917fa1977b78fdb0389c2a3c7e0d3ef23e6a4eb9983e42821101d4a0fd89de4337539101610c7e565b61221833612487565b600084116122385760405162461bcd60e51b815260040161084c90612c6e565b600083116122945760405162461bcd60e51b8152602060048201526024808201527f496e7465726573742072617465206d75737420626520677265617465722074686044820152630616e20360e41b606482015260840161084c565b600082116122e45760405162461bcd60e51b815260206004820152601f60248201527f4475726174696f6e206d7573742062652067726561746572207468616e203000604482015260640161084c565b336000908152600560205260409020548411156123135760405162461bcd60e51b815260040161084c90612be8565b3360009081526005602052604081208054869290612332908490612c16565b9091555050600980546000918261234883612c55565b909155506040805161010080820183528382523360208084018281528486018c8152606086018c8152608087018c815260a088018c8152600160c08a01818152600060e08c018181528e825260088a528d82209c518d5597518c840180546001600160a01b0319166001600160a01b03928316179055965160028d0155945160038c0155925160048b0155905160058a015590516006909801805494516001600160a81b0319909516981515610100600160a81b031916989098179390921690950291909117909455600a805494850181559092527fc65a7bb8d6351c1cf70c95a316cc6a92839c986682d98bc35f958f4883f9d2a890920184905582518981529081018890529293509183917f46572db6c519c91cef0e381ca28d10dfbc4806dae4864b5876bf5b3f0dd01f93910160405180910390a35050505050565b6001600160a01b03811660009081526005602052604090206004015460ff1661251e576040805160a0810182526000808252602080830182815283850183815242606086019081526001608087018181526001600160a01b038a168752600590955296909420945185559051948401949094559251600283015551600382015590516004909101805460ff19169115159190911790555b50565b60005b600a548110156125d95781600a828154811061254257612542612c29565b9060005260206000200154036125c757600a805461256290600190612c16565b8154811061257257612572612c29565b9060005260206000200154600a828154811061259057612590612c29565b600091825260209091200155600a8054806125ad576125ad612cb0565b600190038181906000526020600020016000905590555050565b806125d181612c55565b915050612524565b5050565b6040805160a0810182526001600160a01b03808716808352868216602080850191825284860188815242606087019081526080870189815260009586526007845297852080546001818101835591875293909520875160059094020180549387166001600160a01b031994851617815593519484018054959096169490921693909317909355905160028201559051600382015591519091829160048201906126869082612d15565b505050836001600160a01b0316856001600160a01b03161461272d576001600160a01b03808516600090815260076020908152604080832080546001818101835591855293839020865160059095020180549486166001600160a01b031995861617815592860151908301805491909516931692909217909255820151600282015560608201516003820155608082015182919060048201906127299082612d15565b5050505b5050505050565b6001600160a01b0381166000908152600560205260408120600181015490910361275c575050565b600081600301544261276e9190612c16565b9050600064496cebb80082600354856001015461278b9190612b55565b6127959190612b55565b61279f9190612b72565b9050801561280457808360010160008282546127bb9190612b94565b9091555050604080518281524260208201526001600160a01b038616917f480e1db5cda5860b75e338921c2926b382dd6bbe98c35521f5d46683fba516c8910160405180910390a25b50504260039091015550565b6040518061010001604052806000815260200160006001600160a01b031681526020016000815260200160008152602001600081526020016000815260200160001515815260200160006001600160a01b031681525090565b80356001600160a01b038116811461288057600080fd5b919050565b6000806040838503121561289857600080fd5b6128a183612869565b946020939093013593505050565b6000815180845260005b818110156128d5576020818501810151868301820152016128b9565b506000602082860101526020601f19601f83011685010191505092915050565b6001600160a01b03868116825285166020820152604081018490526060810183905260a06080820181905260009061292f908301846128af565b979650505050505050565b60006020828403121561294c57600080fd5b5035919050565b60006020828403121561296557600080fd5b61296e82612869565b9392505050565b6000806040838503121561298857600080fd5b50508035926020909101359150565b602080825282518282018190526000919060409081850190868401855b82811015612a2557815180518552868101516001600160a01b03908116888701528682015187870152606080830151908701526080808301519087015260a0808301519087015260c08083015115159087015260e091820151169085015261010090930192908501906001016129b4565b5091979650505050505050565b60006020808301818452808551808352604092508286019150828160051b87010184880160005b83811015612ac557888303603f19018552815180516001600160a01b03908116855288820151168885015286810151878501526060808201519085015260809081015160a091850182905290612ab1818601836128af565b968901969450505090860190600101612a59565b509098975050505050505050565b60008060008060808587031215612ae957600080fd5b5050823594602084013594506040840135936060013592509050565b600181811c90821680612b1957607f821691505b602082108103612b3957634e487b7160e01b600052602260045260246000fd5b50919050565b634e487b7160e01b600052601160045260246000fd5b8082028115828204841417612b6c57612b6c612b3f565b92915050565b600082612b8f57634e487b7160e01b600052601260045260246000fd5b500490565b80820180821115612b6c57612b6c612b3f565b60208082526021908201527f4f6e6c79206f776e65722063616e2063616c6c20746869732066756e6374696f6040820152603760f91b606082015260800190565b602080825260149082015273496e73756666696369656e742062616c616e636560601b604082015260600190565b81810381811115612b6c57612b6c612b3f565b634e487b7160e01b600052603260045260246000fd5b634e487b7160e01b600052604160045260246000fd5b600060018201612c6757612c67612b3f565b5060010190565b60208082526022908201527f4c6f616e20616d6f756e74206d7573742062652067726561746572207468616e604082015261020360f41b606082015260800190565b634e487b7160e01b600052603160045260246000fd5b601f821115612d1057600081815260208120601f850160051c81016020861015612ced5750805b601f850160051c820191505b81811015612d0c57828155600101612cf9565b5050505b505050565b815167ffffffffffffffff811115612d2f57612d2f612c3f565b612d4381612d3d8454612b05565b84612cc6565b602080601f831160018114612d785760008415612d605750858301515b600019600386901b1c1916600185901b178555612d0c565b600085815260208120601f198616915b82811015612da757888601518255948401946001909101908401612d88565b5085821015612dc55787850151600019600388901b60f8161c191681555b5050505050600190811b0190555056fea26469706673582212202e43513ef25ea18c85af9c503337817ab1ecaf6d94b980d75c3c9fb0bb7d2e7864736f6c63430008130033","opcodes":"PUSH1 0x80 PUSH1 0x40 MSTORE PUSH2 0x1F4 PUSH1 0x3 SSTORE PUSH2 0x320 PUSH1 0x4 SSTORE CALLVALUE DUP1 ISZERO PUSH2 0x1C JUMPI PUSH1 0x0 DUP1 REVERT JUMPDEST POP PUSH1 0x0 DUP1 SLOAD PUSH1 0x1 PUSH1 0x1 PUSH1 0xA0 SHL SUB NOT AND CALLER SWAP1 DUP2 OR DUP3 SSTORE PUSH1 0x40 DUP1 MLOAD PUSH1 0xA0 DUP2 ADD DUP3 MSTORE DUP4 DUP2 MSTORE PUSH1 0x20 DUP1 DUP3 ADD DUP6 DUP2 MSTORE DUP3 DUP5 ADD DUP7 DUP2 MSTORE TIMESTAMP PUSH1 0x60 DUP6 ADD SWAP1 DUP2 MSTORE PUSH1 0x1 PUSH1 0x80 DUP7 ADD DUP2 DUP2 MSTORE SWAP8 DUP10 MSTORE PUSH1 0x5 SWAP1 SWAP5 MSTORE SWAP5 SWAP1 SWAP7 KECCAK256 SWAP3 MLOAD DUP4 SSTORE MLOAD SWAP1 DUP3 ADD SSTORE SWAP3 MLOAD PUSH1 0x2 DUP5 ADD SSTORE MLOAD PUSH1 0x3 DUP4 ADD SSTORE MLOAD PUSH1 0x4 SWAP1 SWAP2 ADD DUP1 SLOAD SWAP2 ISZERO ISZERO PUSH1 0xFF NOT SWAP1 SWAP3 AND SWAP2 SWAP1 SWAP2 OR SWAP1 SSTORE PUSH2 0x2E0B DUP1 PUSH2 0xA5 PUSH1 0x0 CODECOPY PUSH1 0x0 RETURN INVALID PUSH1 0x80 PUSH1 0x40 MSTORE PUSH1 0x4 CALLDATASIZE LT PUSH2 0x1D1 JUMPI PUSH1 0x0 CALLDATALOAD PUSH1 0xE0 SHR DUP1 PUSH4 0x6DE7CE14 GT PUSH2 0xF7 JUMPI DUP1 PUSH4 0xA3183125 GT PUSH2 0x95 JUMPI DUP1 PUSH4 0xCC952B57 GT PUSH2 0x64 JUMPI DUP1 PUSH4 0xCC952B57 EQ PUSH2 0x670 JUMPI DUP1 PUSH4 0xD0E30DB0 EQ PUSH2 0x686 JUMPI DUP1 PUSH4 0xD3099983 EQ PUSH2 0x68E JUMPI DUP1 PUSH4 0xF240F8CC EQ PUSH2 0x6AE JUMPI PUSH1 0x0 DUP1 REVERT JUMPDEST DUP1 PUSH4 0xA3183125 EQ PUSH2 0x5F8 JUMPI DUP1 PUSH4 0xA9059CBB EQ PUSH2 0x618 JUMPI DUP1 PUSH4 0xB76D4FC3 EQ PUSH2 0x638 JUMPI DUP1 PUSH4 0xC222BCEA EQ PUSH2 0x65A JUMPI PUSH1 0x0 DUP1 REVERT JUMPDEST DUP1 PUSH4 0x8A700B53 GT PUSH2 0xD1 JUMPI DUP1 PUSH4 0x8A700B53 EQ PUSH2 0x51E JUMPI DUP1 PUSH4 0x8DA5CB5B EQ PUSH2 0x53E JUMPI DUP1 PUSH4 0x904796D4 EQ PUSH2 0x576 JUMPI DUP1 PUSH4 0x98C61C37 EQ PUSH2 0x598 JUMPI PUSH1 0x0 DUP1 REVERT JUMPDEST DUP1 PUSH4 0x6DE7CE14 EQ PUSH2 0x4C8 JUMPI DUP1 PUSH4 0x74CBE57E EQ PUSH2 0x4E8 JUMPI DUP1 PUSH4 0x7D882097 EQ PUSH2 0x508 JUMPI PUSH1 0x0 DUP1 REVERT JUMPDEST DUP1 PUSH4 0x2E7700F0 GT PUSH2 0x16F JUMPI DUP1 PUSH4 0x52196812 GT PUSH2 0x13E JUMPI DUP1 PUSH4 0x52196812 EQ PUSH2 0x411 JUMPI DUP1 PUSH4 0x5E5C06E2 EQ PUSH2 0x426 JUMPI DUP1 PUSH4 0x5F5D0655 EQ PUSH2 0x49D JUMPI DUP1 PUSH4 0x620D54B2 EQ PUSH2 0x4B3 JUMPI PUSH1 0x0 DUP1 REVERT JUMPDEST DUP1 PUSH4 0x2E7700F0 EQ PUSH2 0x365 JUMPI DUP1 PUSH4 0x4402CC2B EQ PUSH2 0x37A JUMPI DUP1 PUSH4 0x4B56504F EQ PUSH2 0x39A JUMPI DUP1 PUSH4 0x504006CA EQ PUSH2 0x3BA JUMPI PUSH1 0x0 DUP1 REVERT JUMPDEST DUP1 PUSH4 0x21265D0E GT PUSH2 0x1AB JUMPI DUP1 PUSH4 0x21265D0E EQ PUSH2 0x24C JUMPI DUP1 PUSH4 0x2A3CB13A EQ PUSH2 0x26E JUMPI DUP1 PUSH4 0x2C7BDD4B EQ PUSH2 0x28E JUMPI DUP1 PUSH4 0x2E1A7D4D EQ PUSH2 0x345 JUMPI PUSH1 0x0 DUP1 REVERT JUMPDEST DUP1 PUSH4 0x12065FE0 EQ PUSH2 0x1DD JUMPI DUP1 PUSH4 0x14538128 EQ PUSH2 0x205 JUMPI DUP1 PUSH4 0x196A29EB EQ PUSH2 0x236 JUMPI PUSH1 0x0 DUP1 REVERT JUMPDEST CALLDATASIZE PUSH2 0x1D8 JUMPI STOP JUMPDEST PUSH1 0x0 DUP1 REVERT JUMPDEST CALLVALUE DUP1 ISZERO PUSH2 0x1E9 JUMPI PUSH1 0x0 DUP1 REVERT JUMPDEST POP PUSH2 0x1F2 PUSH2 0x6CE JUMP JUMPDEST PUSH1 0x40 MLOAD SWAP1 DUP2 MSTORE PUSH1 0x20 ADD JUMPDEST PUSH1 0x40 MLOAD DUP1 SWAP2 SUB SWAP1 RETURN JUMPDEST CALLVALUE DUP1 ISZERO PUSH2 0x211 JUMPI PUSH1 0x0 DUP1 REVERT JUMPDEST POP PUSH2 0x225 PUSH2 0x220 CALLDATASIZE PUSH1 0x4 PUSH2 0x2885 JUMP JUMPDEST PUSH2 0x702 JUMP JUMPDEST PUSH1 0x40 MLOAD PUSH2 0x1FC SWAP6 SWAP5 SWAP4 SWAP3 SWAP2 SWAP1 PUSH2 0x28F5 JUMP JUMPDEST CALLVALUE DUP1 ISZERO PUSH2 0x242 JUMPI PUSH1 0x0 DUP1 REVERT JUMPDEST POP PUSH2 0x1F2 PUSH1 0x3 SLOAD DUP2 JUMP JUMPDEST CALLVALUE DUP1 ISZERO PUSH2 0x258 JUMPI PUSH1 0x0 DUP1 REVERT JUMPDEST POP PUSH2 0x26C PUSH2 0x267 CALLDATASIZE PUSH1 0x4 PUSH2 0x293A JUMP JUMPDEST PUSH2 0x7EA JUMP JUMPDEST STOP JUMPDEST CALLVALUE DUP1 ISZERO PUSH2 0x27A JUMPI PUSH1 0x0 DUP1 REVERT JUMPDEST POP PUSH2 0x26C PUSH2 0x289 CALLDATASIZE PUSH1 0x4 PUSH2 0x293A JUMP JUMPDEST PUSH2 0xAEA JUMP JUMPDEST CALLVALUE DUP1 ISZERO PUSH2 0x29A JUMPI PUSH1 0x0 DUP1 REVERT JUMPDEST POP PUSH2 0x2FD PUSH2 0x2A9 CALLDATASIZE PUSH1 0x4 PUSH2 0x293A JUMP JUMPDEST PUSH1 0x8 PUSH1 0x20 MSTORE PUSH1 0x0 SWAP1 DUP2 MSTORE PUSH1 0x40 SWAP1 KECCAK256 DUP1 SLOAD PUSH1 0x1 DUP3 ADD SLOAD PUSH1 0x2 DUP4 ADD SLOAD PUSH1 0x3 DUP5 ADD SLOAD PUSH1 0x4 DUP6 ADD SLOAD PUSH1 0x5 DUP7 ADD SLOAD PUSH1 0x6 SWAP1 SWAP7 ADD SLOAD SWAP5 SWAP6 PUSH1 0x1 PUSH1 0x1 PUSH1 0xA0 SHL SUB SWAP5 DUP6 AND SWAP6 SWAP4 SWAP5 SWAP3 SWAP4 SWAP2 SWAP3 SWAP1 SWAP2 PUSH1 0xFF DUP2 AND SWAP2 PUSH2 0x100 SWAP1 SWAP2 DIV AND DUP9 JUMP JUMPDEST PUSH1 0x40 DUP1 MLOAD SWAP9 DUP10 MSTORE PUSH1 0x1 PUSH1 0x1 PUSH1 0xA0 SHL SUB SWAP8 DUP9 AND PUSH1 0x20 DUP11 ADD MSTORE DUP9 ADD SWAP6 SWAP1 SWAP6 MSTORE PUSH1 0x60 DUP8 ADD SWAP4 SWAP1 SWAP4 MSTORE PUSH1 0x80 DUP7 ADD SWAP2 SWAP1 SWAP2 MSTORE PUSH1 0xA0 DUP6 ADD MSTORE ISZERO ISZERO PUSH1 0xC0 DUP5 ADD MSTORE AND PUSH1 0xE0 DUP3 ADD MSTORE PUSH2 0x100 ADD PUSH2 0x1FC JUMP JUMPDEST CALLVALUE DUP1 ISZERO PUSH2 0x351 JUMPI PUSH1 0x0 DUP1 REVERT JUMPDEST POP PUSH2 0x26C PUSH2 0x360 CALLDATASIZE PUSH1 0x4 PUSH2 0x293A JUMP JUMPDEST PUSH2 0xB19 JUMP JUMPDEST CALLVALUE DUP1 ISZERO PUSH2 0x371 JUMPI PUSH1 0x0 DUP1 REVERT JUMPDEST POP PUSH2 0x1F2 PUSH2 0xC89 JUMP JUMPDEST CALLVALUE DUP1 ISZERO PUSH2 0x386 JUMPI PUSH1 0x0 DUP1 REVERT JUMPDEST POP PUSH2 0x1F2 PUSH2 0x395 CALLDATASIZE PUSH1 0x4 PUSH2 0x293A JUMP JUMPDEST PUSH2 0xCBD JUMP JUMPDEST CALLVALUE DUP1 ISZERO PUSH2 0x3A6 JUMPI PUSH1 0x0 DUP1 REVERT JUMPDEST POP PUSH2 0x26C PUSH2 0x3B5 CALLDATASIZE PUSH1 0x4 PUSH2 0x293A JUMP JUMPDEST PUSH2 0xCDE JUMP JUMPDEST CALLVALUE DUP1 ISZERO PUSH2 0x3C6 JUMPI PUSH1 0x0 DUP1 REVERT JUMPDEST POP PUSH2 0x3DA PUSH2 0x3D5 CALLDATASIZE PUSH1 0x4 PUSH2 0x293A JUMP JUMPDEST PUSH2 0xE9F JUMP JUMPDEST PUSH1 0x40 DUP1 MLOAD SWAP8 DUP9 MSTORE PUSH1 0x20 DUP9 ADD SWAP7 SWAP1 SWAP7 MSTORE SWAP5 DUP7 ADD SWAP4 SWAP1 SWAP4 MSTORE PUSH1 0x60 DUP6 ADD SWAP2 SWAP1 SWAP2 MSTORE ISZERO ISZERO PUSH1 0x80 DUP5 ADD MSTORE PUSH1 0xA0 DUP4 ADD MSTORE PUSH1 0xC0 DUP3 ADD MSTORE PUSH1 0xE0 ADD PUSH2 0x1FC JUMP JUMPDEST CALLVALUE DUP1 ISZERO PUSH2 0x41D JUMPI PUSH1 0x0 DUP1 REVERT JUMPDEST POP PUSH2 0x1F2 PUSH2 0x102C JUMP JUMPDEST CALLVALUE DUP1 ISZERO PUSH2 0x432 JUMPI PUSH1 0x0 DUP1 REVERT JUMPDEST POP PUSH2 0x473 PUSH2 0x441 CALLDATASIZE PUSH1 0x4 PUSH2 0x2953 JUMP JUMPDEST PUSH1 0x5 PUSH1 0x20 MSTORE PUSH1 0x0 SWAP1 DUP2 MSTORE PUSH1 0x40 SWAP1 KECCAK256 DUP1 SLOAD PUSH1 0x1 DUP3 ADD SLOAD PUSH1 0x2 DUP4 ADD SLOAD PUSH1 0x3 DUP5 ADD SLOAD PUSH1 0x4 SWAP1 SWAP5 ADD SLOAD SWAP3 SWAP4 SWAP2 SWAP3 SWAP1 SWAP2 SWAP1 PUSH1 0xFF AND DUP6 JUMP JUMPDEST PUSH1 0x40 DUP1 MLOAD SWAP6 DUP7 MSTORE PUSH1 0x20 DUP7 ADD SWAP5 SWAP1 SWAP5 MSTORE SWAP3 DUP5 ADD SWAP2 SWAP1 SWAP2 MSTORE PUSH1 0x60 DUP4 ADD MSTORE ISZERO ISZERO PUSH1 0x80 DUP3 ADD MSTORE PUSH1 0xA0 ADD PUSH2 0x1FC JUMP JUMPDEST CALLVALUE DUP1 ISZERO PUSH2 0x4A9 JUMPI PUSH1 0x0 DUP1 REVERT JUMPDEST POP PUSH2 0x1F2 PUSH1 0x9 SLOAD DUP2 JUMP JUMPDEST CALLVALUE DUP1 ISZERO PUSH2 0x4BF JUMPI PUSH1 0x0 DUP1 REVERT JUMPDEST POP PUSH2 0x1F2 PUSH2 0x1060 JUMP JUMPDEST CALLVALUE DUP1 ISZERO PUSH2 0x4D4 JUMPI PUSH1 0x0 DUP1 REVERT JUMPDEST POP PUSH2 0x26C PUSH2 0x4E3 CALLDATASIZE PUSH1 0x4 PUSH2 0x293A JUMP JUMPDEST PUSH2 0x1138 JUMP JUMPDEST CALLVALUE DUP1 ISZERO PUSH2 0x4F4 JUMPI PUSH1 0x0 DUP1 REVERT JUMPDEST POP PUSH2 0x26C PUSH2 0x503 CALLDATASIZE PUSH1 0x4 PUSH2 0x293A JUMP JUMPDEST PUSH2 0x1167 JUMP JUMPDEST CALLVALUE DUP1 ISZERO PUSH2 0x514 JUMPI PUSH1 0x0 DUP1 REVERT JUMPDEST POP PUSH2 0x1F2 PUSH1 0x1 SLOAD DUP2 JUMP JUMPDEST CALLVALUE DUP1 ISZERO PUSH2 0x52A JUMPI PUSH1 0x0 DUP1 REVERT JUMPDEST POP PUSH2 0x26C PUSH2 0x539 CALLDATASIZE PUSH1 0x4 PUSH2 0x2975 JUMP JUMPDEST PUSH2 0x1290 JUMP JUMPDEST CALLVALUE DUP1 ISZERO PUSH2 0x54A JUMPI PUSH1 0x0 DUP1 REVERT JUMPDEST POP PUSH1 0x0 SLOAD PUSH2 0x55E SWAP1 PUSH1 0x1 PUSH1 0x1 PUSH1 0xA0 SHL SUB AND DUP2 JUMP JUMPDEST PUSH1 0x40 MLOAD PUSH1 0x1 PUSH1 0x1 PUSH1 0xA0 SHL SUB SWAP1 SWAP2 AND DUP2 MSTORE PUSH1 0x20 ADD PUSH2 0x1FC JUMP JUMPDEST CALLVALUE DUP1 ISZERO PUSH2 0x582 JUMPI PUSH1 0x0 DUP1 REVERT JUMPDEST POP PUSH2 0x58B PUSH2 0x1690 JUMP JUMPDEST PUSH1 0x40 MLOAD PUSH2 0x1FC SWAP2 SWAP1 PUSH2 0x2997 JUMP JUMPDEST CALLVALUE DUP1 ISZERO PUSH2 0x5A4 JUMPI PUSH1 0x0 DUP1 REVERT JUMPDEST POP PUSH2 0x5B8 PUSH2 0x5B3 CALLDATASIZE PUSH1 0x4 PUSH2 0x2885 JUMP JUMPDEST PUSH2 0x18AC JUMP JUMPDEST PUSH1 0x40 DUP1 MLOAD SWAP8 DUP9 MSTORE PUSH1 0x20 DUP9 ADD SWAP7 SWAP1 SWAP7 MSTORE SWAP5 DUP7 ADD SWAP4 SWAP1 SWAP4 MSTORE PUSH1 0x60 DUP6 ADD SWAP2 SWAP1 SWAP2 MSTORE ISZERO ISZERO PUSH1 0x80 DUP5 ADD MSTORE PUSH1 0xA0 DUP4 ADD MSTORE PUSH1 0x1 PUSH1 0x1 PUSH1 0xA0 SHL SUB AND PUSH1 0xC0 DUP3 ADD MSTORE PUSH1 0xE0 ADD PUSH2 0x1FC JUMP JUMPDEST CALLVALUE DUP1 ISZERO PUSH2 0x604 JUMPI PUSH1 0x0 DUP1 REVERT JUMPDEST POP PUSH2 0x26C PUSH2 0x613 CALLDATASIZE PUSH1 0x4 PUSH2 0x2975 JUMP JUMPDEST PUSH2 0x1915 JUMP JUMPDEST CALLVALUE DUP1 ISZERO PUSH2 0x624 JUMPI PUSH1 0x0 DUP1 REVERT JUMPDEST POP PUSH2 0x26C PUSH2 0x633 CALLDATASIZE PUSH1 0x4 PUSH2 0x2885 JUMP JUMPDEST PUSH2 0x1BDF JUMP JUMPDEST CALLVALUE DUP1 ISZERO PUSH2 0x644 JUMPI PUSH1 0x0 DUP1 REVERT JUMPDEST POP PUSH2 0x64D PUSH2 0x1D9D JUMP JUMPDEST PUSH1 0x40 MLOAD PUSH2 0x1FC SWAP2 SWAP1 PUSH2 0x2A32 JUMP JUMPDEST CALLVALUE DUP1 ISZERO PUSH2 0x666 JUMPI PUSH1 0x0 DUP1 REVERT JUMPDEST POP PUSH2 0x1F2 PUSH1 0x4 SLOAD DUP2 JUMP JUMPDEST CALLVALUE DUP1 ISZERO PUSH2 0x67C JUMPI PUSH1 0x0 DUP1 REVERT JUMPDEST POP PUSH2 0x1F2 PUSH1 0x2 SLOAD DUP2 JUMP JUMPDEST PUSH2 0x26C PUSH2 0x1F5C JUMP JUMPDEST CALLVALUE DUP1 ISZERO PUSH2 0x69A JUMPI PUSH1 0x0 DUP1 REVERT JUMPDEST POP PUSH2 0x26C PUSH2 0x6A9 CALLDATASIZE PUSH1 0x4 PUSH2 0x293A JUMP JUMPDEST PUSH2 0x2069 JUMP JUMPDEST CALLVALUE DUP1 ISZERO PUSH2 0x6BA JUMPI PUSH1 0x0 DUP1 REVERT JUMPDEST POP PUSH2 0x26C PUSH2 0x6C9 CALLDATASIZE PUSH1 0x4 PUSH2 0x2AD3 JUMP JUMPDEST PUSH2 0x220F JUMP JUMPDEST CALLER PUSH1 0x0 SWAP1 DUP2 MSTORE PUSH1 0x5 PUSH1 0x20 MSTORE PUSH1 0x40 DUP2 KECCAK256 PUSH1 0x4 ADD SLOAD PUSH1 0xFF AND PUSH2 0x6EE JUMPI POP PUSH1 0x0 SWAP1 JUMP JUMPDEST POP CALLER PUSH1 0x0 SWAP1 DUP2 MSTORE PUSH1 0x5 PUSH1 0x20 MSTORE PUSH1 0x40 SWAP1 KECCAK256 SLOAD SWAP1 JUMP JUMPDEST PUSH1 0x7 PUSH1 0x20 MSTORE DUP2 PUSH1 0x0 MSTORE PUSH1 0x40 PUSH1 0x0 KECCAK256 DUP2 DUP2 SLOAD DUP2 LT PUSH2 0x71E JUMPI PUSH1 0x0 DUP1 REVERT JUMPDEST PUSH1 0x0 SWAP2 DUP3 MSTORE PUSH1 0x20 SWAP1 SWAP2 KECCAK256 PUSH1 0x5 SWAP1 SWAP2 MUL ADD DUP1 SLOAD PUSH1 0x1 DUP3 ADD SLOAD PUSH1 0x2 DUP4 ADD SLOAD PUSH1 0x3 DUP5 ADD SLOAD PUSH1 0x4 DUP6 ADD DUP1 SLOAD PUSH1 0x1 PUSH1 0x1 PUSH1 0xA0 SHL SUB SWAP6 DUP7 AND SWAP9 POP SWAP4 SWAP1 SWAP5 AND SWAP6 POP SWAP1 SWAP4 SWAP1 SWAP3 SWAP1 SWAP2 PUSH2 0x767 SWAP1 PUSH2 0x2B05 JUMP JUMPDEST DUP1 PUSH1 0x1F ADD PUSH1 0x20 DUP1 SWAP2 DIV MUL PUSH1 0x20 ADD PUSH1 0x40 MLOAD SWAP1 DUP2 ADD PUSH1 0x40 MSTORE DUP1 SWAP3 SWAP2 SWAP1 DUP2 DUP2 MSTORE PUSH1 0x20 ADD DUP3 DUP1 SLOAD PUSH2 0x793 SWAP1 PUSH2 0x2B05 JUMP JUMPDEST DUP1 ISZERO PUSH2 0x7E0 JUMPI DUP1 PUSH1 0x1F LT PUSH2 0x7B5 JUMPI PUSH2 0x100 DUP1 DUP4 SLOAD DIV MUL DUP4 MSTORE SWAP2 PUSH1 0x20 ADD SWAP2 PUSH2 0x7E0 JUMP JUMPDEST DUP3 ADD SWAP2 SWAP1 PUSH1 0x0 MSTORE PUSH1 0x20 PUSH1 0x0 KECCAK256 SWAP1 JUMPDEST DUP2 SLOAD DUP2 MSTORE SWAP1 PUSH1 0x1 ADD SWAP1 PUSH1 0x20 ADD DUP1 DUP4 GT PUSH2 0x7C3 JUMPI DUP3 SWAP1 SUB PUSH1 0x1F AND DUP3 ADD SWAP2 JUMPDEST POP POP POP POP POP SWAP1 POP DUP6 JUMP JUMPDEST PUSH2 0x7F3 CALLER PUSH2 0x2487 JUMP JUMPDEST PUSH1 0x0 DUP2 DUP2 MSTORE PUSH1 0x8 PUSH1 0x20 MSTORE PUSH1 0x40 SWAP1 KECCAK256 PUSH1 0x6 DUP2 ADD SLOAD PUSH1 0xFF AND PUSH2 0x855 JUMPI PUSH1 0x40 MLOAD PUSH3 0x461BCD PUSH1 0xE5 SHL DUP2 MSTORE PUSH1 0x20 PUSH1 0x4 DUP3 ADD MSTORE PUSH1 0x18 PUSH1 0x24 DUP3 ADD MSTORE PUSH24 0x4C6F616E206F66666572206973206E6F7420616374697665 PUSH1 0x40 SHL PUSH1 0x44 DUP3 ADD MSTORE PUSH1 0x64 ADD JUMPDEST PUSH1 0x40 MLOAD DUP1 SWAP2 SUB SWAP1 REVERT JUMPDEST PUSH1 0x1 DUP2 ADD SLOAD CALLER PUSH1 0x1 PUSH1 0x1 PUSH1 0xA0 SHL SUB SWAP1 SWAP2 AND SUB PUSH2 0x8BD JUMPI PUSH1 0x40 MLOAD PUSH3 0x461BCD PUSH1 0xE5 SHL DUP2 MSTORE PUSH1 0x20 PUSH1 0x4 DUP3 ADD MSTORE PUSH1 0x21 PUSH1 0x24 DUP3 ADD MSTORE PUSH32 0x43616E6E6F742061636365707420796F7572206F776E206C6F616E206F666665 PUSH1 0x44 DUP3 ADD MSTORE PUSH1 0x39 PUSH1 0xF9 SHL PUSH1 0x64 DUP3 ADD MSTORE PUSH1 0x84 ADD PUSH2 0x84C JUMP JUMPDEST PUSH1 0x0 PUSH1 0x64 DUP3 PUSH1 0x5 ADD SLOAD DUP4 PUSH1 0x2 ADD SLOAD PUSH2 0x8D5 SWAP2 SWAP1 PUSH2 0x2B55 JUMP JUMPDEST PUSH2 0x8DF SWAP2 SWAP1 PUSH2 0x2B72 JUMP JUMPDEST CALLER PUSH1 0x0 SWAP1 DUP2 MSTORE PUSH1 0x5 PUSH1 0x20 MSTORE PUSH1 0x40 SWAP1 KECCAK256 PUSH1 0x1 ADD SLOAD SWAP1 SWAP2 POP DUP2 GT ISZERO PUSH2 0x93E JUMPI PUSH1 0x40 MLOAD PUSH3 0x461BCD PUSH1 0xE5 SHL DUP2 MSTORE PUSH1 0x20 PUSH1 0x4 DUP3 ADD MSTORE PUSH1 0x17 PUSH1 0x24 DUP3 ADD MSTORE PUSH23 0x125B9CDD59999A58DA595B9D0818DBDB1B185D195C985B PUSH1 0x4A SHL PUSH1 0x44 DUP3 ADD MSTORE PUSH1 0x64 ADD PUSH2 0x84C JUMP JUMPDEST PUSH1 0x6 DUP3 ADD DUP1 SLOAD PUSH1 0x1 PUSH1 0x1 PUSH1 0xA8 SHL SUB NOT AND PUSH2 0x100 CALLER MUL OR SWAP1 SSTORE PUSH1 0x40 DUP1 MLOAD PUSH1 0xE0 DUP2 ADD DUP3 MSTORE PUSH1 0x2 DUP5 ADD SLOAD DUP2 MSTORE PUSH1 0x3 DUP5 ADD SLOAD PUSH1 0x20 DUP3 ADD MSTORE TIMESTAMP SWAP2 DUP2 ADD SWAP2 SWAP1 SWAP2 MSTORE PUSH1 0x4 DUP4 ADD SLOAD PUSH1 0x0 SWAP2 SWAP1 PUSH1 0x60 DUP3 ADD SWAP1 PUSH2 0x994 SWAP1 PUSH3 0x15180 PUSH2 0x2B55 JUMP JUMPDEST DUP2 MSTORE PUSH1 0x1 PUSH1 0x20 DUP1 DUP4 ADD DUP3 SWAP1 MSTORE PUSH1 0x0 PUSH1 0x40 DUP1 DUP6 ADD DUP3 SWAP1 MSTORE DUP9 DUP5 ADD SLOAD PUSH1 0x1 PUSH1 0x1 PUSH1 0xA0 SHL SUB SWAP1 DUP2 AND PUSH1 0x60 SWAP7 DUP8 ADD MSTORE CALLER DUP1 DUP5 MSTORE PUSH1 0x6 DUP1 DUP7 MSTORE DUP4 DUP6 KECCAK256 DUP1 SLOAD DUP1 DUP10 ADD DUP3 SSTORE SWAP1 DUP7 MSTORE DUP7 DUP7 KECCAK256 DUP11 MLOAD PUSH1 0x7 SWAP1 SWAP3 MUL ADD SWAP1 DUP2 SSTORE DUP10 DUP8 ADD MLOAD SWAP8 DUP2 ADD SWAP8 SWAP1 SWAP8 SSTORE DUP9 DUP5 ADD MLOAD PUSH1 0x2 DUP1 DUP10 ADD SWAP2 SWAP1 SWAP2 SSTORE SWAP8 DUP10 ADD MLOAD PUSH1 0x3 DUP9 ADD SSTORE PUSH1 0x80 DUP10 ADD MLOAD PUSH1 0x4 DUP9 ADD DUP1 SLOAD PUSH1 0xFF NOT AND SWAP2 ISZERO ISZERO SWAP2 SWAP1 SWAP2 OR SWAP1 SSTORE PUSH1 0xA0 DUP10 ADD MLOAD PUSH1 0x5 DUP1 DUP10 ADD SWAP2 SWAP1 SWAP2 SSTORE PUSH1 0xC0 DUP11 ADD MLOAD SWAP8 SWAP1 SWAP2 ADD DUP1 SLOAD PUSH1 0x1 PUSH1 0x1 PUSH1 0xA0 SHL SUB NOT AND SWAP8 SWAP1 SWAP4 AND SWAP7 SWAP1 SWAP7 OR SWAP1 SWAP2 SSTORE SWAP5 DUP10 ADD SLOAD SWAP5 DUP3 MSTORE SWAP3 SWAP1 SWAP2 MSTORE SWAP1 DUP2 KECCAK256 DUP1 SLOAD SWAP4 SWAP5 POP SWAP2 SWAP3 PUSH2 0xA6A SWAP1 DUP5 SWAP1 PUSH2 0x2B94 JUMP JUMPDEST SWAP1 SWAP2 SSTORE POP PUSH2 0xA79 SWAP1 POP DUP5 PUSH2 0x2521 JUMP JUMPDEST PUSH1 0x1 DUP4 ADD SLOAD PUSH1 0x2 DUP5 ADD SLOAD PUSH1 0x40 DUP1 MLOAD DUP1 DUP3 ADD SWAP1 SWAP2 MSTORE PUSH1 0x8 DUP2 MSTORE PUSH8 0x281928102637B0B7 PUSH1 0xC1 SHL PUSH1 0x20 DUP3 ADD MSTORE PUSH2 0xAB7 SWAP3 PUSH1 0x1 PUSH1 0x1 PUSH1 0xA0 SHL SUB AND SWAP2 CALLER SWAP2 PUSH2 0x25DD JUMP JUMPDEST PUSH1 0x40 MLOAD CALLER SWAP1 DUP6 SWAP1 PUSH32 0x2E68EDC76171B2DC4D4B10FFFED9D8FE887A05C5C66F45A570CA91F141464A73 SWAP1 PUSH1 0x0 SWAP1 LOG3 POP POP POP POP JUMP JUMPDEST PUSH1 0x0 SLOAD PUSH1 0x1 PUSH1 0x1 PUSH1 0xA0 SHL SUB AND CALLER EQ PUSH2 0xB14 JUMPI PUSH1 0x40 MLOAD PUSH3 0x461BCD PUSH1 0xE5 SHL DUP2 MSTORE PUSH1 0x4 ADD PUSH2 0x84C SWAP1 PUSH2 0x2BA7 JUMP JUMPDEST PUSH1 0x4 SSTORE JUMP JUMPDEST PUSH2 0xB22 CALLER PUSH2 0x2487 JUMP JUMPDEST PUSH1 0x0 DUP2 GT PUSH2 0xB83 JUMPI PUSH1 0x40 MLOAD PUSH3 0x461BCD PUSH1 0xE5 SHL DUP2 MSTORE PUSH1 0x20 PUSH1 0x4 DUP3 ADD MSTORE PUSH1 0x28 PUSH1 0x24 DUP3 ADD MSTORE PUSH32 0x5769746864726177616C20616D6F756E74206D75737420626520677265617465 PUSH1 0x44 DUP3 ADD MSTORE PUSH8 0x72207468616E203 PUSH1 0xC4 SHL PUSH1 0x64 DUP3 ADD MSTORE PUSH1 0x84 ADD PUSH2 0x84C JUMP JUMPDEST CALLER PUSH1 0x0 SWAP1 DUP2 MSTORE PUSH1 0x5 PUSH1 0x20 MSTORE PUSH1 0x40 SWAP1 KECCAK256 SLOAD DUP2 GT ISZERO PUSH2 0xBB2 JUMPI PUSH1 0x40 MLOAD PUSH3 0x461BCD PUSH1 0xE5 SHL DUP2 MSTORE PUSH1 0x4 ADD PUSH2 0x84C SWAP1 PUSH2 0x2BE8 JUMP JUMPDEST CALLER PUSH1 0x0 SWAP1 DUP2 MSTORE PUSH1 0x5 PUSH1 0x20 MSTORE PUSH1 0x40 DUP2 KECCAK256 DUP1 SLOAD DUP4 SWAP3 SWAP1 PUSH2 0xBD1 SWAP1 DUP5 SWAP1 PUSH2 0x2C16 JUMP JUMPDEST SWAP3 POP POP DUP2 SWAP1 SSTORE POP DUP1 PUSH1 0x1 PUSH1 0x0 DUP3 DUP3 SLOAD PUSH2 0xBEA SWAP2 SWAP1 PUSH2 0x2C16 JUMP JUMPDEST SWAP1 SWAP2 SSTORE POP POP PUSH1 0x40 MLOAD CALLER SWAP1 DUP3 ISZERO PUSH2 0x8FC MUL SWAP1 DUP4 SWAP1 PUSH1 0x0 DUP2 DUP2 DUP2 DUP6 DUP9 DUP9 CALL SWAP4 POP POP POP POP ISZERO DUP1 ISZERO PUSH2 0xC1C JUMPI RETURNDATASIZE PUSH1 0x0 DUP1 RETURNDATACOPY RETURNDATASIZE PUSH1 0x0 REVERT JUMPDEST POP PUSH2 0xC4B CALLER CALLER DUP4 PUSH1 0x40 MLOAD DUP1 PUSH1 0x40 ADD PUSH1 0x40 MSTORE DUP1 PUSH1 0xA DUP2 MSTORE PUSH1 0x20 ADD PUSH10 0x15DA5D1A191C985DD85B PUSH1 0xB2 SHL DUP2 MSTORE POP PUSH2 0x25DD JUMP JUMPDEST PUSH1 0x40 DUP1 MLOAD DUP3 DUP2 MSTORE TIMESTAMP PUSH1 0x20 DUP3 ADD MSTORE CALLER SWAP2 PUSH32 0xDF273CB619D95419A9CD0EC88123A0538C85064229BAA6363788F743FFF90DEB SWAP2 ADD JUMPDEST PUSH1 0x40 MLOAD DUP1 SWAP2 SUB SWAP1 LOG2 POP JUMP JUMPDEST CALLER PUSH1 0x0 SWAP1 DUP2 MSTORE PUSH1 0x5 PUSH1 0x20 MSTORE PUSH1 0x40 DUP2 KECCAK256 PUSH1 0x4 ADD SLOAD PUSH1 0xFF AND PUSH2 0xCA9 JUMPI POP PUSH1 0x0 SWAP1 JUMP JUMPDEST POP CALLER PUSH1 0x0 SWAP1 DUP2 MSTORE PUSH1 0x7 PUSH1 0x20 MSTORE PUSH1 0x40 SWAP1 KECCAK256 SLOAD SWAP1 JUMP JUMPDEST PUSH1 0xA DUP2 DUP2 SLOAD DUP2 LT PUSH2 0xCCD JUMPI PUSH1 0x0 DUP1 REVERT JUMPDEST PUSH1 0x0 SWAP2 DUP3 MSTORE PUSH1 0x20 SWAP1 SWAP2 KECCAK256 ADD SLOAD SWAP1 POP DUP2 JUMP JUMPDEST PUSH2 0xCE7 CALLER PUSH2 0x2487 JUMP JUMPDEST PUSH1 0x0 DUP2 GT PUSH2 0xD37 JUMPI PUSH1 0x40 MLOAD PUSH3 0x461BCD PUSH1 0xE5 SHL DUP2 MSTORE PUSH1 0x20 PUSH1 0x4 DUP3 ADD MSTORE PUSH1 0x1D PUSH1 0x24 DUP3 ADD MSTORE PUSH32 0x416D6F756E74206D7573742062652067726561746572207468616E2030000000 PUSH1 0x44 DUP3 ADD MSTORE PUSH1 0x64 ADD PUSH2 0x84C JUMP JUMPDEST CALLER PUSH1 0x0 SWAP1 DUP2 MSTORE PUSH1 0x5 PUSH1 0x20 MSTORE PUSH1 0x40 SWAP1 KECCAK256 PUSH1 0x1 ADD SLOAD DUP2 GT ISZERO PUSH2 0xD99 JUMPI PUSH1 0x40 MLOAD PUSH3 0x461BCD PUSH1 0xE5 SHL DUP2 MSTORE PUSH1 0x20 PUSH1 0x4 DUP3 ADD MSTORE PUSH1 0x1C PUSH1 0x24 DUP3 ADD MSTORE PUSH32 0x496E73756666696369656E7420736176696E67732062616C616E636500000000 PUSH1 0x44 DUP3 ADD MSTORE PUSH1 0x64 ADD PUSH2 0x84C JUMP JUMPDEST PUSH2 0xDA2 CALLER PUSH2 0x2734 JUMP JUMPDEST CALLER PUSH1 0x0 SWAP1 DUP2 MSTORE PUSH1 0x5 PUSH1 0x20 MSTORE PUSH1 0x40 DUP2 KECCAK256 PUSH1 0x1 ADD DUP1 SLOAD DUP4 SWAP3 SWAP1 PUSH2 0xDC4 SWAP1 DUP5 SWAP1 PUSH2 0x2C16 JUMP JUMPDEST SWAP1 SWAP2 SSTORE POP POP CALLER PUSH1 0x0 SWAP1 DUP2 MSTORE PUSH1 0x5 PUSH1 0x20 MSTORE PUSH1 0x40 DUP2 KECCAK256 DUP1 SLOAD DUP4 SWAP3 SWAP1 PUSH2 0xDE8 SWAP1 DUP5 SWAP1 PUSH2 0x2B94 JUMP JUMPDEST SWAP1 SWAP2 SSTORE POP POP CALLER PUSH1 0x0 SWAP1 DUP2 MSTORE PUSH1 0x5 PUSH1 0x20 MSTORE PUSH1 0x40 DUP2 KECCAK256 PUSH1 0x1 ADD SLOAD SWAP1 SUB PUSH2 0xE1A JUMPI CALLER PUSH1 0x0 SWAP1 DUP2 MSTORE PUSH1 0x5 PUSH1 0x20 MSTORE PUSH1 0x40 DUP2 KECCAK256 PUSH1 0x2 ADD SSTORE JUMPDEST CALLER PUSH1 0x0 DUP2 DUP2 MSTORE PUSH1 0x5 PUSH1 0x20 SWAP1 DUP2 MSTORE PUSH1 0x40 SWAP2 DUP3 SWAP1 KECCAK256 TIMESTAMP PUSH1 0x3 SWAP1 SWAP2 ADD SSTORE DUP2 MLOAD DUP1 DUP4 ADD SWAP1 SWAP3 MSTORE PUSH1 0x12 DUP3 MSTORE PUSH18 0x14D85D9A5B99DCC815DA5D1A191C985DD85B PUSH1 0x72 SHL SWAP1 DUP3 ADD MSTORE PUSH2 0xE68 SWAP2 SWAP1 DUP2 SWAP1 DUP5 SWAP1 PUSH2 0x25DD JUMP JUMPDEST PUSH1 0x40 DUP1 MLOAD DUP3 DUP2 MSTORE TIMESTAMP PUSH1 0x20 DUP3 ADD MSTORE CALLER SWAP2 PUSH32 0xBC5AD05086F5C2B5EE738247479B6CA942DBC8B5F4D742217264A5AB2E146711 SWAP2 ADD PUSH2 0xC7E JUMP JUMPDEST CALLER PUSH1 0x0 SWAP1 DUP2 MSTORE PUSH1 0x5 PUSH1 0x20 MSTORE PUSH1 0x40 DUP2 KECCAK256 PUSH1 0x4 ADD SLOAD DUP2 SWAP1 DUP2 SWAP1 DUP2 SWAP1 DUP2 SWAP1 DUP2 SWAP1 DUP2 SWAP1 PUSH1 0xFF AND ISZERO DUP1 PUSH2 0xEDC JUMPI POP CALLER PUSH1 0x0 SWAP1 DUP2 MSTORE PUSH1 0x6 PUSH1 0x20 MSTORE PUSH1 0x40 SWAP1 KECCAK256 SLOAD DUP9 LT ISZERO JUMPDEST ISZERO PUSH2 0xEFB JUMPI POP PUSH1 0x0 SWAP6 POP DUP6 SWAP5 POP DUP5 SWAP4 POP DUP4 SWAP3 POP DUP3 SWAP2 POP DUP2 SWAP1 POP DUP1 PUSH2 0x1021 JUMP JUMPDEST CALLER PUSH1 0x0 SWAP1 DUP2 MSTORE PUSH1 0x6 PUSH1 0x20 MSTORE PUSH1 0x40 DUP2 KECCAK256 DUP1 SLOAD DUP11 SWAP1 DUP2 LT PUSH2 0xF1C JUMPI PUSH2 0xF1C PUSH2 0x2C29 JUMP JUMPDEST PUSH1 0x0 SWAP2 DUP3 MSTORE PUSH1 0x20 DUP1 DUP4 KECCAK256 PUSH1 0x40 DUP1 MLOAD PUSH1 0xE0 DUP2 ADD DUP3 MSTORE PUSH1 0x7 SWAP1 SWAP5 MUL SWAP1 SWAP2 ADD DUP1 SLOAD DUP5 MSTORE PUSH1 0x1 DUP2 ADD SLOAD SWAP3 DUP5 ADD SWAP3 SWAP1 SWAP3 MSTORE PUSH1 0x2 DUP3 ADD SLOAD SWAP1 DUP4 ADD DUP2 SWAP1 MSTORE PUSH1 0x3 DUP3 ADD SLOAD PUSH1 0x60 DUP5 ADD MSTORE PUSH1 0x4 DUP3 ADD SLOAD PUSH1 0xFF AND ISZERO ISZERO PUSH1 0x80 DUP5 ADD MSTORE PUSH1 0x5 DUP3 ADD SLOAD PUSH1 0xA0 DUP5 ADD MSTORE PUSH1 0x6 SWAP1 SWAP2 ADD SLOAD PUSH1 0x1 PUSH1 0x1 PUSH1 0xA0 SHL SUB AND PUSH1 0xC0 DUP4 ADD MSTORE SWAP1 SWAP3 POP PUSH2 0xF97 SWAP1 TIMESTAMP PUSH2 0x2C16 JUMP JUMPDEST SWAP1 POP PUSH1 0x0 PUSH5 0x496CEBB800 DUP3 DUP5 PUSH1 0x20 ADD MLOAD DUP6 PUSH1 0x0 ADD MLOAD PUSH2 0xFB6 SWAP2 SWAP1 PUSH2 0x2B55 JUMP JUMPDEST PUSH2 0xFC0 SWAP2 SWAP1 PUSH2 0x2B55 JUMP JUMPDEST PUSH2 0xFCA SWAP2 SWAP1 PUSH2 0x2B72 JUMP JUMPDEST SWAP1 POP PUSH1 0x0 DUP4 PUSH1 0xA0 ADD MLOAD DUP3 DUP6 PUSH1 0x0 ADD MLOAD PUSH2 0xFE3 SWAP2 SWAP1 PUSH2 0x2B94 JUMP JUMPDEST PUSH2 0xFED SWAP2 SWAP1 PUSH2 0x2C16 JUMP JUMPDEST SWAP1 POP DUP4 PUSH1 0x0 ADD MLOAD DUP5 PUSH1 0x20 ADD MLOAD DUP6 PUSH1 0x40 ADD MLOAD DUP7 PUSH1 0x60 ADD MLOAD DUP8 PUSH1 0x80 ADD MLOAD DUP9 PUSH1 0xA0 ADD MLOAD DUP7 SWAP11 POP SWAP11 POP SWAP11 POP SWAP11 POP SWAP11 POP SWAP11 POP SWAP11 POP POP POP POP POP JUMPDEST SWAP2 SWAP4 SWAP6 SWAP8 SWAP1 SWAP3 SWAP5 SWAP7 POP JUMP JUMPDEST CALLER PUSH1 0x0 SWAP1 DUP2 MSTORE PUSH1 0x5 PUSH1 0x20 MSTORE PUSH1 0x40 DUP2 KECCAK256 PUSH1 0x4 ADD SLOAD PUSH1 0xFF AND PUSH2 0x104C JUMPI POP PUSH1 0x0 SWAP1 JUMP JUMPDEST POP CALLER PUSH1 0x0 SWAP1 DUP2 MSTORE PUSH1 0x6 PUSH1 0x20 MSTORE PUSH1 0x40 SWAP1 KECCAK256 SLOAD SWAP1 JUMP JUMPDEST CALLER PUSH1 0x0 SWAP1 DUP2 MSTORE PUSH1 0x5 PUSH1 0x20 MSTORE PUSH1 0x40 DUP2 KECCAK256 PUSH1 0x4 ADD SLOAD PUSH1 0xFF AND PUSH2 0x1080 JUMPI POP PUSH1 0x0 SWAP1 JUMP JUMPDEST CALLER PUSH1 0x0 SWAP1 DUP2 MSTORE PUSH1 0x5 PUSH1 0x20 SWAP1 DUP2 MSTORE PUSH1 0x40 DUP1 DUP4 KECCAK256 DUP2 MLOAD PUSH1 0xA0 DUP2 ADD DUP4 MSTORE DUP2 SLOAD DUP2 MSTORE PUSH1 0x1 DUP3 ADD SLOAD SWAP4 DUP2 ADD DUP5 SWAP1 MSTORE PUSH1 0x2 DUP3 ADD SLOAD SWAP3 DUP2 ADD SWAP3 SWAP1 SWAP3 MSTORE PUSH1 0x3 DUP2 ADD SLOAD PUSH1 0x60 DUP4 ADD MSTORE PUSH1 0x4 ADD SLOAD PUSH1 0xFF AND ISZERO ISZERO PUSH1 0x80 DUP3 ADD MSTORE SWAP2 SUB PUSH2 0x10DB JUMPI PUSH1 0x0 SWAP2 POP POP SWAP1 JUMP JUMPDEST PUSH1 0x0 DUP2 PUSH1 0x60 ADD MLOAD TIMESTAMP PUSH2 0x10ED SWAP2 SWAP1 PUSH2 0x2C16 JUMP JUMPDEST SWAP1 POP PUSH1 0x0 PUSH5 0x496CEBB800 DUP3 PUSH1 0x3 SLOAD DUP6 PUSH1 0x20 ADD MLOAD PUSH2 0x110A SWAP2 SWAP1 PUSH2 0x2B55 JUMP JUMPDEST PUSH2 0x1114 SWAP2 SWAP1 PUSH2 0x2B55 JUMP JUMPDEST PUSH2 0x111E SWAP2 SWAP1 PUSH2 0x2B72 JUMP JUMPDEST SWAP1 POP DUP1 DUP4 PUSH1 0x20 ADD MLOAD PUSH2 0x1130 SWAP2 SWAP1 PUSH2 0x2B94 JUMP JUMPDEST SWAP4 POP POP POP POP SWAP1 JUMP JUMPDEST PUSH1 0x0 SLOAD PUSH1 0x1 PUSH1 0x1 PUSH1 0xA0 SHL SUB AND CALLER EQ PUSH2 0x1162 JUMPI PUSH1 0x40 MLOAD PUSH3 0x461BCD PUSH1 0xE5 SHL DUP2 MSTORE PUSH1 0x4 ADD PUSH2 0x84C SWAP1 PUSH2 0x2BA7 JUMP JUMPDEST PUSH1 0x3 SSTORE JUMP JUMPDEST PUSH2 0x1170 CALLER PUSH2 0x2487 JUMP JUMPDEST PUSH1 0x0 DUP2 DUP2 MSTORE PUSH1 0x8 PUSH1 0x20 MSTORE PUSH1 0x40 SWAP1 KECCAK256 PUSH1 0x6 DUP2 ADD SLOAD PUSH1 0xFF AND PUSH2 0x11CD JUMPI PUSH1 0x40 MLOAD PUSH3 0x461BCD PUSH1 0xE5 SHL DUP2 MSTORE PUSH1 0x20 PUSH1 0x4 DUP3 ADD MSTORE PUSH1 0x18 PUSH1 0x24 DUP3 ADD MSTORE PUSH24 0x4C6F616E206F66666572206973206E6F7420616374697665 PUSH1 0x40 SHL PUSH1 0x44 DUP3 ADD MSTORE PUSH1 0x64 ADD PUSH2 0x84C JUMP JUMPDEST PUSH1 0x1 DUP2 ADD SLOAD PUSH1 0x1 PUSH1 0x1 PUSH1 0xA0 SHL SUB AND CALLER EQ PUSH2 0x1222 JUMPI PUSH1 0x40 MLOAD PUSH3 0x461BCD PUSH1 0xE5 SHL DUP2 MSTORE PUSH1 0x20 PUSH1 0x4 DUP3 ADD MSTORE PUSH1 0x16 PUSH1 0x24 DUP3 ADD MSTORE PUSH22 0x13DB9B1E481B195B99195C8818D85B8818D85B98D95B PUSH1 0x52 SHL PUSH1 0x44 DUP3 ADD MSTORE PUSH1 0x64 ADD PUSH2 0x84C JUMP JUMPDEST PUSH1 0x6 DUP2 ADD DUP1 SLOAD PUSH1 0xFF NOT AND SWAP1 SSTORE PUSH1 0x2 DUP2 ADD SLOAD CALLER PUSH1 0x0 SWAP1 DUP2 MSTORE PUSH1 0x5 PUSH1 0x20 MSTORE PUSH1 0x40 DUP2 KECCAK256 DUP1 SLOAD SWAP1 SWAP2 SWAP1 PUSH2 0x1252 SWAP1 DUP5 SWAP1 PUSH2 0x2B94 JUMP JUMPDEST SWAP1 SWAP2 SSTORE POP PUSH2 0x1261 SWAP1 POP DUP3 PUSH2 0x2521 JUMP JUMPDEST PUSH1 0x40 MLOAD DUP3 SWAP1 PUSH32 0xEFF051D270F5ECEE1680A12EA87F0452D48A2637F5E381834C1B9D630E1B9148 SWAP1 PUSH1 0x0 SWAP1 LOG2 POP POP JUMP JUMPDEST PUSH2 0x1299 CALLER PUSH2 0x2487 JUMP JUMPDEST CALLER PUSH1 0x0 SWAP1 DUP2 MSTORE PUSH1 0x6 PUSH1 0x20 MSTORE PUSH1 0x40 SWAP1 KECCAK256 SLOAD DUP3 LT PUSH2 0x12EC JUMPI PUSH1 0x40 MLOAD PUSH3 0x461BCD PUSH1 0xE5 SHL DUP2 MSTORE PUSH1 0x20 PUSH1 0x4 DUP3 ADD MSTORE PUSH1 0x12 PUSH1 0x24 DUP3 ADD MSTORE PUSH18 0x92DCECC2D8D2C840D8DEC2DC40D2DCC8CAF PUSH1 0x73 SHL PUSH1 0x44 DUP3 ADD MSTORE PUSH1 0x64 ADD PUSH2 0x84C JUMP JUMPDEST CALLER PUSH1 0x0 SWAP1 DUP2 MSTORE PUSH1 0x6 PUSH1 0x20 MSTORE PUSH1 0x40 SWAP1 KECCAK256 DUP1 SLOAD DUP4 SWAP1 DUP2 LT PUSH2 0x130D JUMPI PUSH2 0x130D PUSH2 0x2C29 JUMP JUMPDEST PUSH1 0x0 SWAP2 DUP3 MSTORE PUSH1 0x20 SWAP1 SWAP2 KECCAK256 PUSH1 0x4 PUSH1 0x7 SWAP1 SWAP3 MUL ADD ADD SLOAD PUSH1 0xFF AND PUSH2 0x1365 JUMPI PUSH1 0x40 MLOAD PUSH3 0x461BCD PUSH1 0xE5 SHL DUP2 MSTORE PUSH1 0x20 PUSH1 0x4 DUP3 ADD MSTORE PUSH1 0x12 PUSH1 0x24 DUP3 ADD MSTORE PUSH18 0x4C6F616E206973206E6F7420616374697665 PUSH1 0x70 SHL PUSH1 0x44 DUP3 ADD MSTORE PUSH1 0x64 ADD PUSH2 0x84C JUMP JUMPDEST PUSH1 0x0 DUP2 GT PUSH2 0x13C5 JUMPI PUSH1 0x40 MLOAD PUSH3 0x461BCD PUSH1 0xE5 SHL DUP2 MSTORE PUSH1 0x20 PUSH1 0x4 DUP3 ADD MSTORE PUSH1 0x27 PUSH1 0x24 DUP3 ADD MSTORE PUSH32 0x52657061796D656E7420616D6F756E74206D7573742062652067726561746572 PUSH1 0x44 DUP3 ADD MSTORE PUSH7 0x207468616E203 PUSH1 0xCC SHL PUSH1 0x64 DUP3 ADD MSTORE PUSH1 0x84 ADD PUSH2 0x84C JUMP JUMPDEST CALLER PUSH1 0x0 SWAP1 DUP2 MSTORE PUSH1 0x5 PUSH1 0x20 MSTORE PUSH1 0x40 SWAP1 KECCAK256 SLOAD DUP2 GT ISZERO PUSH2 0x13F4 JUMPI PUSH1 0x40 MLOAD PUSH3 0x461BCD PUSH1 0xE5 SHL DUP2 MSTORE PUSH1 0x4 ADD PUSH2 0x84C SWAP1 PUSH2 0x2BE8 JUMP JUMPDEST CALLER PUSH1 0x0 SWAP1 DUP2 MSTORE PUSH1 0x6 PUSH1 0x20 MSTORE PUSH1 0x40 DUP2 KECCAK256 DUP1 SLOAD DUP5 SWAP1 DUP2 LT PUSH2 0x1415 JUMPI PUSH2 0x1415 PUSH2 0x2C29 JUMP JUMPDEST SWAP1 PUSH1 0x0 MSTORE PUSH1 0x20 PUSH1 0x0 KECCAK256 SWAP1 PUSH1 0x7 MUL ADD SWAP1 POP PUSH1 0x0 DUP2 PUSH1 0x2 ADD SLOAD TIMESTAMP PUSH2 0x1437 SWAP2 SWAP1 PUSH2 0x2C16 JUMP JUMPDEST SWAP1 POP PUSH1 0x0 PUSH5 0x496CEBB800 DUP3 DUP5 PUSH1 0x1 ADD SLOAD DUP6 PUSH1 0x0 ADD SLOAD PUSH2 0x1456 SWAP2 SWAP1 PUSH2 0x2B55 JUMP JUMPDEST PUSH2 0x1460 SWAP2 SWAP1 PUSH2 0x2B55 JUMP JUMPDEST PUSH2 0x146A SWAP2 SWAP1 PUSH2 0x2B72 JUMP JUMPDEST SWAP1 POP PUSH1 0x0 DUP4 PUSH1 0x5 ADD SLOAD DUP3 DUP6 PUSH1 0x0 ADD SLOAD PUSH2 0x1483 SWAP2 SWAP1 PUSH2 0x2B94 JUMP JUMPDEST PUSH2 0x148D SWAP2 SWAP1 PUSH2 0x2C16 JUMP JUMPDEST SWAP1 POP DUP1 DUP6 GT ISZERO PUSH2 0x14DF JUMPI PUSH1 0x40 MLOAD PUSH3 0x461BCD PUSH1 0xE5 SHL DUP2 MSTORE PUSH1 0x20 PUSH1 0x4 DUP3 ADD MSTORE PUSH1 0x1D PUSH1 0x24 DUP3 ADD MSTORE PUSH32 0x52657061796D656E742065786365656473206C6F616E20616D6F756E74000000 PUSH1 0x44 DUP3 ADD MSTORE PUSH1 0x64 ADD PUSH2 0x84C JUMP JUMPDEST CALLER PUSH1 0x0 SWAP1 DUP2 MSTORE PUSH1 0x5 PUSH1 0x20 MSTORE PUSH1 0x40 DUP2 KECCAK256 DUP1 SLOAD DUP8 SWAP3 SWAP1 PUSH2 0x14FE SWAP1 DUP5 SWAP1 PUSH2 0x2C16 JUMP JUMPDEST SWAP3 POP POP DUP2 SWAP1 SSTORE POP DUP5 DUP5 PUSH1 0x5 ADD PUSH1 0x0 DUP3 DUP3 SLOAD PUSH2 0x1519 SWAP2 SWAP1 PUSH2 0x2B94 JUMP JUMPDEST SWAP1 SWAP2 SSTORE POP POP DUP4 SLOAD PUSH2 0x152B SWAP1 DUP4 SWAP1 PUSH2 0x2B94 JUMP JUMPDEST DUP5 PUSH1 0x5 ADD SLOAD LT PUSH2 0x156D JUMPI PUSH1 0x4 DUP5 ADD DUP1 SLOAD PUSH1 0xFF NOT AND SWAP1 SSTORE PUSH1 0x6 DUP5 ADD SLOAD PUSH1 0x1 PUSH1 0x1 PUSH1 0xA0 SHL SUB AND PUSH2 0x156D JUMPI DUP4 SLOAD PUSH1 0x2 DUP1 SLOAD PUSH1 0x0 SWAP1 PUSH2 0x1567 SWAP1 DUP5 SWAP1 PUSH2 0x2C16 JUMP JUMPDEST SWAP1 SWAP2 SSTORE POP POP JUMPDEST PUSH1 0x6 DUP5 ADD SLOAD PUSH1 0x1 PUSH1 0x1 PUSH1 0xA0 SHL SUB AND ISZERO PUSH2 0x1614 JUMPI PUSH1 0x6 DUP5 ADD SLOAD PUSH2 0x1597 SWAP1 PUSH1 0x1 PUSH1 0x1 PUSH1 0xA0 SHL SUB AND PUSH2 0x2487 JUMP JUMPDEST PUSH1 0x6 DUP5 ADD SLOAD PUSH1 0x1 PUSH1 0x1 PUSH1 0xA0 SHL SUB AND PUSH1 0x0 SWAP1 DUP2 MSTORE PUSH1 0x5 PUSH1 0x20 MSTORE PUSH1 0x40 DUP2 KECCAK256 DUP1 SLOAD DUP8 SWAP3 SWAP1 PUSH2 0x15C3 SWAP1 DUP5 SWAP1 PUSH2 0x2B94 JUMP JUMPDEST SWAP1 SWAP2 SSTORE POP POP PUSH1 0x6 DUP5 ADD SLOAD PUSH1 0x40 DUP1 MLOAD DUP1 DUP3 ADD SWAP1 SWAP2 MSTORE PUSH1 0x12 DUP2 MSTORE PUSH18 0x140C9408131BD85B8814995C185E5B595B9D PUSH1 0x72 SHL PUSH1 0x20 DUP3 ADD MSTORE PUSH2 0x160F SWAP2 CALLER SWAP2 PUSH1 0x1 PUSH1 0x1 PUSH1 0xA0 SHL SUB SWAP1 SWAP2 AND SWAP1 DUP9 SWAP1 PUSH2 0x25DD JUMP JUMPDEST PUSH2 0x1646 JUMP JUMPDEST PUSH2 0x1646 CALLER ADDRESS DUP8 PUSH1 0x40 MLOAD DUP1 PUSH1 0x40 ADD PUSH1 0x40 MSTORE DUP1 PUSH1 0xE DUP2 MSTORE PUSH1 0x20 ADD PUSH14 0x131BD85B8814995C185E5B595B9D PUSH1 0x92 SHL DUP2 MSTORE POP PUSH2 0x25DD JUMP JUMPDEST PUSH1 0x40 DUP1 MLOAD DUP8 DUP2 MSTORE PUSH1 0x20 DUP2 ADD DUP8 SWAP1 MSTORE TIMESTAMP DUP2 DUP4 ADD MSTORE SWAP1 MLOAD CALLER SWAP2 PUSH32 0x2CEBE3C4A7E8E81CA2035A6CB3EE450BB6401D9B6636652E183583F047049572 SWAP2 SWAP1 DUP2 SWAP1 SUB PUSH1 0x60 ADD SWAP1 LOG2 POP POP POP POP POP POP JUMP JUMPDEST PUSH1 0xA SLOAD PUSH1 0x60 SWAP1 PUSH1 0x0 SWAP1 PUSH8 0xFFFFFFFFFFFFFFFF DUP2 GT ISZERO PUSH2 0x16B1 JUMPI PUSH2 0x16B1 PUSH2 0x2C3F JUMP JUMPDEST PUSH1 0x40 MLOAD SWAP1 DUP1 DUP3 MSTORE DUP1 PUSH1 0x20 MUL PUSH1 0x20 ADD DUP3 ADD PUSH1 0x40 MSTORE DUP1 ISZERO PUSH2 0x16EA JUMPI DUP2 PUSH1 0x20 ADD JUMPDEST PUSH2 0x16D7 PUSH2 0x2810 JUMP JUMPDEST DUP2 MSTORE PUSH1 0x20 ADD SWAP1 PUSH1 0x1 SWAP1 SUB SWAP1 DUP2 PUSH2 0x16CF JUMPI SWAP1 POP JUMPDEST POP SWAP1 POP PUSH1 0x0 DUP1 JUMPDEST PUSH1 0xA SLOAD DUP2 LT ISZERO PUSH2 0x17F7 JUMPI PUSH1 0x0 PUSH1 0xA DUP3 DUP2 SLOAD DUP2 LT PUSH2 0x1710 JUMPI PUSH2 0x1710 PUSH2 0x2C29 JUMP JUMPDEST PUSH1 0x0 SWAP2 DUP3 MSTORE PUSH1 0x20 DUP1 DUP4 KECCAK256 SWAP1 SWAP2 ADD SLOAD DUP1 DUP4 MSTORE PUSH1 0x8 SWAP1 SWAP2 MSTORE PUSH1 0x40 SWAP1 SWAP2 KECCAK256 PUSH1 0x6 ADD SLOAD SWAP1 SWAP2 POP PUSH1 0xFF AND ISZERO PUSH2 0x17E4 JUMPI PUSH1 0x0 DUP2 DUP2 MSTORE PUSH1 0x8 PUSH1 0x20 SWAP1 DUP2 MSTORE PUSH1 0x40 SWAP2 DUP3 SWAP1 KECCAK256 DUP3 MLOAD PUSH2 0x100 DUP1 DUP3 ADD DUP6 MSTORE DUP3 SLOAD DUP3 MSTORE PUSH1 0x1 DUP4 ADD SLOAD PUSH1 0x1 PUSH1 0x1 PUSH1 0xA0 SHL SUB SWAP1 DUP2 AND SWAP5 DUP4 ADD SWAP5 SWAP1 SWAP5 MSTORE PUSH1 0x2 DUP4 ADD SLOAD SWAP5 DUP3 ADD SWAP5 SWAP1 SWAP5 MSTORE PUSH1 0x3 DUP3 ADD SLOAD PUSH1 0x60 DUP3 ADD MSTORE PUSH1 0x4 DUP3 ADD SLOAD PUSH1 0x80 DUP3 ADD MSTORE PUSH1 0x5 DUP3 ADD SLOAD PUSH1 0xA0 DUP3 ADD MSTORE PUSH1 0x6 SWAP1 SWAP2 ADD SLOAD PUSH1 0xFF DUP2 AND ISZERO ISZERO PUSH1 0xC0 DUP4 ADD MSTORE SWAP3 SWAP1 SWAP3 DIV AND PUSH1 0xE0 DUP3 ADD MSTORE DUP5 MLOAD DUP6 SWAP1 DUP6 SWAP1 DUP2 LT PUSH2 0x17CA JUMPI PUSH2 0x17CA PUSH2 0x2C29 JUMP JUMPDEST PUSH1 0x20 MUL PUSH1 0x20 ADD ADD DUP2 SWAP1 MSTORE POP DUP3 DUP1 PUSH2 0x17E0 SWAP1 PUSH2 0x2C55 JUMP JUMPDEST SWAP4 POP POP JUMPDEST POP DUP1 PUSH2 0x17EF DUP2 PUSH2 0x2C55 JUMP JUMPDEST SWAP2 POP POP PUSH2 0x16F1 JUMP JUMPDEST POP PUSH1 0x0 DUP2 PUSH8 0xFFFFFFFFFFFFFFFF DUP2 GT ISZERO PUSH2 0x1813 JUMPI PUSH2 0x1813 PUSH2 0x2C3F JUMP JUMPDEST PUSH1 0x40 MLOAD SWAP1 DUP1 DUP3 MSTORE DUP1 PUSH1 0x20 MUL PUSH1 0x20 ADD DUP3 ADD PUSH1 0x40 MSTORE DUP1 ISZERO PUSH2 0x184C JUMPI DUP2 PUSH1 0x20 ADD JUMPDEST PUSH2 0x1839 PUSH2 0x2810 JUMP JUMPDEST DUP2 MSTORE PUSH1 0x20 ADD SWAP1 PUSH1 0x1 SWAP1 SUB SWAP1 DUP2 PUSH2 0x1831 JUMPI SWAP1 POP JUMPDEST POP SWAP1 POP PUSH1 0x0 JUMPDEST DUP3 DUP2 LT ISZERO PUSH2 0x18A4 JUMPI DUP4 DUP2 DUP2 MLOAD DUP2 LT PUSH2 0x186C JUMPI PUSH2 0x186C PUSH2 0x2C29 JUMP JUMPDEST PUSH1 0x20 MUL PUSH1 0x20 ADD ADD MLOAD DUP3 DUP3 DUP2 MLOAD DUP2 LT PUSH2 0x1886 JUMPI PUSH2 0x1886 PUSH2 0x2C29 JUMP JUMPDEST PUSH1 0x20 MUL PUSH1 0x20 ADD ADD DUP2 SWAP1 MSTORE POP DUP1 DUP1 PUSH2 0x189C SWAP1 PUSH2 0x2C55 JUMP JUMPDEST SWAP2 POP POP PUSH2 0x1852 JUMP JUMPDEST POP SWAP4 SWAP3 POP POP POP JUMP JUMPDEST PUSH1 0x6 PUSH1 0x20 MSTORE DUP2 PUSH1 0x0 MSTORE PUSH1 0x40 PUSH1 0x0 KECCAK256 DUP2 DUP2 SLOAD DUP2 LT PUSH2 0x18C8 JUMPI PUSH1 0x0 DUP1 REVERT JUMPDEST PUSH1 0x0 SWAP2 DUP3 MSTORE PUSH1 0x20 SWAP1 SWAP2 KECCAK256 PUSH1 0x7 SWAP1 SWAP2 MUL ADD DUP1 SLOAD PUSH1 0x1 DUP3 ADD SLOAD PUSH1 0x2 DUP4 ADD SLOAD PUSH1 0x3 DUP5 ADD SLOAD PUSH1 0x4 DUP6 ADD SLOAD PUSH1 0x5 DUP7 ADD SLOAD PUSH1 0x6 SWAP1 SWAP7 ADD SLOAD SWAP5 SWAP8 POP SWAP3 SWAP6 POP SWAP1 SWAP4 SWAP1 SWAP3 PUSH1 0xFF SWAP1 SWAP3 AND SWAP2 PUSH1 0x1 PUSH1 0x1 PUSH1 0xA0 SHL SUB AND DUP8 JUMP JUMPDEST PUSH2 0x191E CALLER PUSH2 0x2487 JUMP JUMPDEST PUSH1 0x0 DUP3 GT PUSH2 0x193E JUMPI PUSH1 0x40 MLOAD PUSH3 0x461BCD PUSH1 0xE5 SHL DUP2 MSTORE PUSH1 0x4 ADD PUSH2 0x84C SWAP1 PUSH2 0x2C6E JUMP JUMPDEST PUSH1 0x0 DUP2 GT PUSH2 0x198E JUMPI PUSH1 0x40 MLOAD PUSH3 0x461BCD PUSH1 0xE5 SHL DUP2 MSTORE PUSH1 0x20 PUSH1 0x4 DUP3 ADD MSTORE PUSH1 0x1F PUSH1 0x24 DUP3 ADD MSTORE PUSH32 0x4475726174696F6E206D7573742062652067726561746572207468616E203000 PUSH1 0x44 DUP3 ADD MSTORE PUSH1 0x64 ADD PUSH2 0x84C JUMP JUMPDEST DUP2 SELFBALANCE LT ISZERO PUSH2 0x19DE JUMPI PUSH1 0x40 MLOAD PUSH3 0x461BCD PUSH1 0xE5 SHL DUP2 MSTORE PUSH1 0x20 PUSH1 0x4 DUP3 ADD MSTORE PUSH1 0x1D PUSH1 0x24 DUP3 ADD MSTORE PUSH32 0x496E73756666696369656E7420636F6E74726163742062616C616E6365000000 PUSH1 0x44 DUP3 ADD MSTORE PUSH1 0x64 ADD PUSH2 0x84C JUMP JUMPDEST PUSH1 0x0 PUSH1 0x64 PUSH2 0x19ED DUP5 PUSH1 0x96 PUSH2 0x2B55 JUMP JUMPDEST PUSH2 0x19F7 SWAP2 SWAP1 PUSH2 0x2B72 JUMP JUMPDEST CALLER PUSH1 0x0 SWAP1 DUP2 MSTORE PUSH1 0x5 PUSH1 0x20 MSTORE PUSH1 0x40 SWAP1 KECCAK256 PUSH1 0x1 ADD SLOAD SWAP1 SWAP2 POP DUP2 GT ISZERO PUSH2 0x1A56 JUMPI PUSH1 0x40 MLOAD PUSH3 0x461BCD PUSH1 0xE5 SHL DUP2 MSTORE PUSH1 0x20 PUSH1 0x4 DUP3 ADD MSTORE PUSH1 0x17 PUSH1 0x24 DUP3 ADD MSTORE PUSH23 0x125B9CDD59999A58DA595B9D0818DBDB1B185D195C985B PUSH1 0x4A SHL PUSH1 0x44 DUP3 ADD MSTORE PUSH1 0x64 ADD PUSH2 0x84C JUMP JUMPDEST PUSH1 0x0 PUSH1 0x40 MLOAD DUP1 PUSH1 0xE0 ADD PUSH1 0x40 MSTORE DUP1 DUP6 DUP2 MSTORE PUSH1 0x20 ADD PUSH1 0x4 SLOAD DUP2 MSTORE PUSH1 0x20 ADD TIMESTAMP DUP2 MSTORE PUSH1 0x20 ADD DUP5 PUSH3 0x15180 PUSH2 0x1A86 SWAP2 SWAP1 PUSH2 0x2B55 JUMP JUMPDEST DUP2 MSTORE PUSH1 0x1 PUSH1 0x20 DUP1 DUP4 ADD DUP3 SWAP1 MSTORE PUSH1 0x0 PUSH1 0x40 DUP1 DUP6 ADD DUP3 SWAP1 MSTORE PUSH1 0x60 SWAP5 DUP6 ADD DUP3 SWAP1 MSTORE CALLER DUP1 DUP4 MSTORE PUSH1 0x6 DUP1 DUP6 MSTORE DUP3 DUP5 KECCAK256 DUP1 SLOAD DUP1 DUP9 ADD DUP3 SSTORE SWAP1 DUP6 MSTORE DUP6 DUP6 KECCAK256 DUP10 MLOAD PUSH1 0x7 SWAP1 SWAP3 MUL ADD SWAP1 DUP2 SSTORE DUP9 DUP7 ADD MLOAD SWAP7 DUP2 ADD SWAP7 SWAP1 SWAP7 SSTORE DUP8 DUP4 ADD MLOAD PUSH1 0x2 DUP8 ADD SSTORE SWAP6 DUP8 ADD MLOAD PUSH1 0x3 DUP7 ADD SSTORE PUSH1 0x80 DUP8 ADD MLOAD PUSH1 0x4 DUP7 ADD DUP1 SLOAD PUSH1 0xFF NOT AND SWAP2 ISZERO ISZERO SWAP2 SWAP1 SWAP2 OR SWAP1 SSTORE PUSH1 0xA0 DUP8 ADD MLOAD PUSH1 0x5 DUP1 DUP8 ADD SWAP2 SWAP1 SWAP2 SSTORE PUSH1 0xC0 DUP9 ADD MLOAD SWAP6 SWAP1 SWAP7 ADD DUP1 SLOAD PUSH1 0x1 PUSH1 0x1 PUSH1 0xA0 SHL SUB NOT AND PUSH1 0x1 PUSH1 0x1 PUSH1 0xA0 SHL SUB SWAP1 SWAP7 AND SWAP6 SWAP1 SWAP6 OR SWAP1 SWAP5 SSTORE SWAP3 DUP2 MSTORE SWAP3 SWAP1 MSTORE DUP2 KECCAK256 DUP1 SLOAD SWAP3 SWAP4 POP DUP7 SWAP3 SWAP1 SWAP2 SWAP1 PUSH2 0x1B4F SWAP1 DUP5 SWAP1 PUSH2 0x2B94 JUMP JUMPDEST SWAP3 POP POP DUP2 SWAP1 SSTORE POP DUP4 PUSH1 0x2 PUSH1 0x0 DUP3 DUP3 SLOAD PUSH2 0x1B68 SWAP2 SWAP1 PUSH2 0x2B94 JUMP JUMPDEST SWAP3 POP POP DUP2 SWAP1 SSTORE POP PUSH2 0x1B97 ADDRESS CALLER DUP7 PUSH1 0x40 MLOAD DUP1 PUSH1 0x40 ADD PUSH1 0x40 MSTORE DUP1 PUSH1 0x4 DUP2 MSTORE PUSH1 0x20 ADD PUSH4 0x2637B0B7 PUSH1 0xE1 SHL DUP2 MSTORE POP PUSH2 0x25DD JUMP JUMPDEST PUSH1 0x40 DUP1 MLOAD DUP6 DUP2 MSTORE PUSH1 0x20 DUP2 ADD DUP6 SWAP1 MSTORE TIMESTAMP DUP2 DUP4 ADD MSTORE SWAP1 MLOAD CALLER SWAP2 PUSH32 0x1DAAE93C0719C540C3891D8A11E5F3B79CBD03028F1FA7E520D31C1A87843335 SWAP2 SWAP1 DUP2 SWAP1 SUB PUSH1 0x60 ADD SWAP1 LOG2 POP POP POP POP JUMP JUMPDEST PUSH2 0x1BE8 CALLER PUSH2 0x2487 JUMP JUMPDEST PUSH1 0x1 PUSH1 0x1 PUSH1 0xA0 SHL SUB DUP3 AND PUSH2 0x1C3E JUMPI PUSH1 0x40 MLOAD PUSH3 0x461BCD PUSH1 0xE5 SHL DUP2 MSTORE PUSH1 0x20 PUSH1 0x4 DUP3 ADD MSTORE PUSH1 0x19 PUSH1 0x24 DUP3 ADD MSTORE PUSH32 0x496E76616C696420726563697069656E74206164647265737300000000000000 PUSH1 0x44 DUP3 ADD MSTORE PUSH1 0x64 ADD PUSH2 0x84C JUMP JUMPDEST PUSH1 0x0 DUP2 GT PUSH2 0x1C9D JUMPI PUSH1 0x40 MLOAD PUSH3 0x461BCD PUSH1 0xE5 SHL DUP2 MSTORE PUSH1 0x20 PUSH1 0x4 DUP3 ADD MSTORE PUSH1 0x26 PUSH1 0x24 DUP3 ADD MSTORE PUSH32 0x5472616E7366657220616D6F756E74206D757374206265206772656174657220 PUSH1 0x44 DUP3 ADD MSTORE PUSH6 0x7468616E203 PUSH1 0xD4 SHL PUSH1 0x64 DUP3 ADD MSTORE PUSH1 0x84 ADD PUSH2 0x84C JUMP JUMPDEST CALLER PUSH1 0x0 SWAP1 DUP2 MSTORE PUSH1 0x5 PUSH1 0x20 MSTORE PUSH1 0x40 SWAP1 KECCAK256 SLOAD DUP2 GT ISZERO PUSH2 0x1CCC JUMPI PUSH1 0x40 MLOAD PUSH3 0x461BCD PUSH1 0xE5 SHL DUP2 MSTORE PUSH1 0x4 ADD PUSH2 0x84C SWAP1 PUSH2 0x2BE8 JUMP JUMPDEST PUSH2 0x1CD5 DUP3 PUSH2 0x2487 JUMP JUMPDEST CALLER PUSH1 0x0 SWAP1 DUP2 MSTORE PUSH1 0x5 PUSH1 0x20 MSTORE PUSH1 0x40 DUP2 KECCAK256 DUP1 SLOAD DUP4 SWAP3 SWAP1 PUSH2 0x1CF4 SWAP1 DUP5 SWAP1 PUSH2 0x2C16 JUMP JUMPDEST SWAP1 SWAP2 SSTORE POP POP PUSH1 0x1 PUSH1 0x1 PUSH1 0xA0 SHL SUB DUP3 AND PUSH1 0x0 SWAP1 DUP2 MSTORE PUSH1 0x5 PUSH1 0x20 MSTORE PUSH1 0x40 DUP2 KECCAK256 DUP1 SLOAD DUP4 SWAP3 SWAP1 PUSH2 0x1D21 SWAP1 DUP5 SWAP1 PUSH2 0x2B94 JUMP JUMPDEST SWAP3 POP POP DUP2 SWAP1 SSTORE POP PUSH2 0x1D54 CALLER DUP4 DUP4 PUSH1 0x40 MLOAD DUP1 PUSH1 0x40 ADD PUSH1 0x40 MSTORE DUP1 PUSH1 0x8 DUP2 MSTORE PUSH1 0x20 ADD PUSH8 0x2A3930B739B332B9 PUSH1 0xC1 SHL DUP2 MSTORE POP PUSH2 0x25DD JUMP JUMPDEST PUSH1 0x40 DUP1 MLOAD DUP3 DUP2 MSTORE TIMESTAMP PUSH1 0x20 DUP3 ADD MSTORE PUSH1 0x1 PUSH1 0x1 PUSH1 0xA0 SHL SUB DUP5 AND SWAP2 CALLER SWAP2 PUSH32 0x9ED053BB818FF08B8353CD46F78DB1F0799F31C9E4458FDB425C10ECCD2EFC44 SWAP2 ADD PUSH1 0x40 MLOAD DUP1 SWAP2 SUB SWAP1 LOG3 POP POP JUMP JUMPDEST CALLER PUSH1 0x0 SWAP1 DUP2 MSTORE PUSH1 0x5 PUSH1 0x20 MSTORE PUSH1 0x40 SWAP1 KECCAK256 PUSH1 0x4 ADD SLOAD PUSH1 0x60 SWAP1 PUSH1 0xFF AND PUSH2 0x1E2D JUMPI PUSH1 0x40 DUP1 MLOAD PUSH1 0x0 DUP1 DUP3 MSTORE PUSH1 0x20 DUP3 ADD SWAP1 SWAP3 MSTORE SWAP1 PUSH2 0x1E27 JUMP JUMPDEST PUSH2 0x1E14 PUSH1 0x40 MLOAD DUP1 PUSH1 0xA0 ADD PUSH1 0x40 MSTORE DUP1 PUSH1 0x0 PUSH1 0x1 PUSH1 0x1 PUSH1 0xA0 SHL SUB AND DUP2 MSTORE PUSH1 0x20 ADD PUSH1 0x0 PUSH1 0x1 PUSH1 0x1 PUSH1 0xA0 SHL SUB AND DUP2 MSTORE PUSH1 0x20 ADD PUSH1 0x0 DUP2 MSTORE PUSH1 0x20 ADD PUSH1 0x0 DUP2 MSTORE PUSH1 0x20 ADD PUSH1 0x60 DUP2 MSTORE POP SWAP1 JUMP JUMPDEST DUP2 MSTORE PUSH1 0x20 ADD SWAP1 PUSH1 0x1 SWAP1 SUB SWAP1 DUP2 PUSH2 0x1DD0 JUMPI SWAP1 POP JUMPDEST POP SWAP1 POP SWAP1 JUMP JUMPDEST CALLER PUSH1 0x0 SWAP1 DUP2 MSTORE PUSH1 0x7 PUSH1 0x20 SWAP1 DUP2 MSTORE PUSH1 0x40 DUP1 DUP4 KECCAK256 DUP1 SLOAD DUP3 MLOAD DUP2 DUP6 MUL DUP2 ADD DUP6 ADD SWAP1 SWAP4 MSTORE DUP1 DUP4 MSTORE SWAP2 SWAP4 SWAP1 SWAP3 DUP5 ADD JUMPDEST DUP3 DUP3 LT ISZERO PUSH2 0x1F53 JUMPI PUSH1 0x0 DUP5 DUP2 MSTORE PUSH1 0x20 SWAP1 DUP2 SWAP1 KECCAK256 PUSH1 0x40 DUP1 MLOAD PUSH1 0xA0 DUP2 ADD DUP3 MSTORE PUSH1 0x5 DUP7 MUL SWAP1 SWAP3 ADD DUP1 SLOAD PUSH1 0x1 PUSH1 0x1 PUSH1 0xA0 SHL SUB SWAP1 DUP2 AND DUP5 MSTORE PUSH1 0x1 DUP3 ADD SLOAD AND SWAP4 DUP4 ADD SWAP4 SWAP1 SWAP4 MSTORE PUSH1 0x2 DUP4 ADD SLOAD SWAP1 DUP3 ADD MSTORE PUSH1 0x3 DUP3 ADD SLOAD PUSH1 0x60 DUP3 ADD MSTORE PUSH1 0x4 DUP3 ADD DUP1 SLOAD SWAP2 SWAP3 SWAP2 PUSH1 0x80 DUP5 ADD SWAP2 SWAP1 PUSH2 0x1EC2 SWAP1 PUSH2 0x2B05 JUMP JUMPDEST DUP1 PUSH1 0x1F ADD PUSH1 0x20 DUP1 SWAP2 DIV MUL PUSH1 0x20 ADD PUSH1 0x40 MLOAD SWAP1 DUP2 ADD PUSH1 0x40 MSTORE DUP1 SWAP3 SWAP2 SWAP1 DUP2 DUP2 MSTORE PUSH1 0x20 ADD DUP3 DUP1 SLOAD PUSH2 0x1EEE SWAP1 PUSH2 0x2B05 JUMP JUMPDEST DUP1 ISZERO PUSH2 0x1F3B JUMPI DUP1 PUSH1 0x1F LT PUSH2 0x1F10 JUMPI PUSH2 0x100 DUP1 DUP4 SLOAD DIV MUL DUP4 MSTORE SWAP2 PUSH1 0x20 ADD SWAP2 PUSH2 0x1F3B JUMP JUMPDEST DUP3 ADD SWAP2 SWAP1 PUSH1 0x0 MSTORE PUSH1 0x20 PUSH1 0x0 KECCAK256 SWAP1 JUMPDEST DUP2 SLOAD DUP2 MSTORE SWAP1 PUSH1 0x1 ADD SWAP1 PUSH1 0x20 ADD DUP1 DUP4 GT PUSH2 0x1F1E JUMPI DUP3 SWAP1 SUB PUSH1 0x1F AND DUP3 ADD SWAP2 JUMPDEST POP POP POP POP POP DUP2 MSTORE POP POP DUP2 MSTORE PUSH1 0x20 ADD SWAP1 PUSH1 0x1 ADD SWAP1 PUSH2 0x1E57 JUMP JUMPDEST POP POP POP POP SWAP1 POP SWAP1 JUMP JUMPDEST PUSH2 0x1F65 CALLER PUSH2 0x2487 JUMP JUMPDEST PUSH1 0x0 CALLVALUE GT PUSH2 0x1FC3 JUMPI PUSH1 0x40 MLOAD PUSH3 0x461BCD PUSH1 0xE5 SHL DUP2 MSTORE PUSH1 0x20 PUSH1 0x4 DUP3 ADD MSTORE PUSH1 0x25 PUSH1 0x24 DUP3 ADD MSTORE PUSH32 0x4465706F73697420616D6F756E74206D75737420626520677265617465722074 PUSH1 0x44 DUP3 ADD MSTORE PUSH5 0x68616E203 PUSH1 0xDC SHL PUSH1 0x64 DUP3 ADD MSTORE PUSH1 0x84 ADD PUSH2 0x84C JUMP JUMPDEST CALLER PUSH1 0x0 SWAP1 DUP2 MSTORE PUSH1 0x5 PUSH1 0x20 MSTORE PUSH1 0x40 DUP2 KECCAK256 DUP1 SLOAD CALLVALUE SWAP3 SWAP1 PUSH2 0x1FE2 SWAP1 DUP5 SWAP1 PUSH2 0x2B94 JUMP JUMPDEST SWAP3 POP POP DUP2 SWAP1 SSTORE POP CALLVALUE PUSH1 0x1 PUSH1 0x0 DUP3 DUP3 SLOAD PUSH2 0x1FFB SWAP2 SWAP1 PUSH2 0x2B94 JUMP JUMPDEST SWAP3 POP POP DUP2 SWAP1 SSTORE POP PUSH2 0x202D CALLER CALLER CALLVALUE PUSH1 0x40 MLOAD DUP1 PUSH1 0x40 ADD PUSH1 0x40 MSTORE DUP1 PUSH1 0x7 DUP2 MSTORE PUSH1 0x20 ADD PUSH7 0x11195C1BDCDA5D PUSH1 0xCA SHL DUP2 MSTORE POP PUSH2 0x25DD JUMP JUMPDEST PUSH1 0x40 DUP1 MLOAD CALLVALUE DUP2 MSTORE TIMESTAMP PUSH1 0x20 DUP3 ADD MSTORE CALLER SWAP2 PUSH32 0x90890809C654F11D6E72A28FA60149770A0D11EC6C92319D6CEB2BB0A4EA1A15 SWAP2 ADD PUSH1 0x40 MLOAD DUP1 SWAP2 SUB SWAP1 LOG2 JUMP JUMPDEST PUSH2 0x2072 CALLER PUSH2 0x2487 JUMP JUMPDEST PUSH1 0x0 DUP2 GT PUSH2 0x20C2 JUMPI PUSH1 0x40 MLOAD PUSH3 0x461BCD PUSH1 0xE5 SHL DUP2 MSTORE PUSH1 0x20 PUSH1 0x4 DUP3 ADD MSTORE PUSH1 0x1D PUSH1 0x24 DUP3 ADD MSTORE PUSH32 0x416D6F756E74206D7573742062652067726561746572207468616E2030000000 PUSH1 0x44 DUP3 ADD MSTORE PUSH1 0x64 ADD PUSH2 0x84C JUMP JUMPDEST CALLER PUSH1 0x0 SWAP1 DUP2 MSTORE PUSH1 0x5 PUSH1 0x20 MSTORE PUSH1 0x40 SWAP1 KECCAK256 SLOAD DUP2 GT ISZERO PUSH2 0x20F1 JUMPI PUSH1 0x40 MLOAD PUSH3 0x461BCD PUSH1 0xE5 SHL DUP2 MSTORE PUSH1 0x4 ADD PUSH2 0x84C SWAP1 PUSH2 0x2BE8 JUMP JUMPDEST CALLER PUSH1 0x0 SWAP1 DUP2 MSTORE PUSH1 0x5 PUSH1 0x20 MSTORE PUSH1 0x40 SWAP1 KECCAK256 PUSH1 0x1 ADD SLOAD ISZERO PUSH2 0x2112 JUMPI PUSH2 0x2112 CALLER PUSH2 0x2734 JUMP JUMPDEST CALLER PUSH1 0x0 SWAP1 DUP2 MSTORE PUSH1 0x5 PUSH1 0x20 MSTORE PUSH1 0x40 DUP2 KECCAK256 DUP1 SLOAD DUP4 SWAP3 SWAP1 PUSH2 0x2131 SWAP1 DUP5 SWAP1 PUSH2 0x2C16 JUMP JUMPDEST SWAP1 SWAP2 SSTORE POP POP CALLER PUSH1 0x0 SWAP1 DUP2 MSTORE PUSH1 0x5 PUSH1 0x20 MSTORE PUSH1 0x40 DUP2 KECCAK256 PUSH1 0x1 ADD DUP1 SLOAD DUP4 SWAP3 SWAP1 PUSH2 0x2158 SWAP1 DUP5 SWAP1 PUSH2 0x2B94 JUMP JUMPDEST SWAP1 SWAP2 SSTORE POP POP CALLER PUSH1 0x0 SWAP1 DUP2 MSTORE PUSH1 0x5 PUSH1 0x20 MSTORE PUSH1 0x40 DUP2 KECCAK256 PUSH1 0x2 ADD SLOAD SWAP1 SUB PUSH2 0x218D JUMPI CALLER PUSH1 0x0 SWAP1 DUP2 MSTORE PUSH1 0x5 PUSH1 0x20 MSTORE PUSH1 0x40 SWAP1 KECCAK256 TIMESTAMP PUSH1 0x2 SWAP1 SWAP2 ADD SSTORE JUMPDEST CALLER PUSH1 0x0 DUP2 DUP2 MSTORE PUSH1 0x5 PUSH1 0x20 SWAP1 DUP2 MSTORE PUSH1 0x40 SWAP2 DUP3 SWAP1 KECCAK256 TIMESTAMP PUSH1 0x3 SWAP1 SWAP2 ADD SSTORE DUP2 MLOAD DUP1 DUP4 ADD SWAP1 SWAP3 MSTORE PUSH1 0xF DUP3 MSTORE PUSH15 0x14D85D9A5B99DCC811195C1BDCDA5D PUSH1 0x8A SHL SWAP1 DUP3 ADD MSTORE PUSH2 0x21D8 SWAP2 SWAP1 DUP2 SWAP1 DUP5 SWAP1 PUSH2 0x25DD JUMP JUMPDEST PUSH1 0x40 DUP1 MLOAD DUP3 DUP2 MSTORE TIMESTAMP PUSH1 0x20 DUP3 ADD MSTORE CALLER SWAP2 PUSH32 0xA1977B78FDB0389C2A3C7E0D3EF23E6A4EB9983E42821101D4A0FD89DE433753 SWAP2 ADD PUSH2 0xC7E JUMP JUMPDEST PUSH2 0x2218 CALLER PUSH2 0x2487 JUMP JUMPDEST PUSH1 0x0 DUP5 GT PUSH2 0x2238 JUMPI PUSH1 0x40 MLOAD PUSH3 0x461BCD PUSH1 0xE5 SHL DUP2 MSTORE PUSH1 0x4 ADD PUSH2 0x84C SWAP1 PUSH2 0x2C6E JUMP JUMPDEST PUSH1 0x0 DUP4 GT PUSH2 0x2294 JUMPI PUSH1 0x40 MLOAD PUSH3 0x461BCD PUSH1 0xE5 SHL DUP2 MSTORE PUSH1 0x20 PUSH1 0x4 DUP3 ADD MSTORE PUSH1 0x24 DUP1 DUP3 ADD MSTORE PUSH32 0x496E7465726573742072617465206D7573742062652067726561746572207468 PUSH1 0x44 DUP3 ADD MSTORE PUSH4 0x616E203 PUSH1 0xE4 SHL PUSH1 0x64 DUP3 ADD MSTORE PUSH1 0x84 ADD PUSH2 0x84C JUMP JUMPDEST PUSH1 0x0 DUP3 GT PUSH2 0x22E4 JUMPI PUSH1 0x40 MLOAD PUSH3 0x461BCD PUSH1 0xE5 SHL DUP2 MSTORE PUSH1 0x20 PUSH1 0x4 DUP3 ADD MSTORE PUSH1 0x1F PUSH1 0x24 DUP3 ADD MSTORE PUSH32 0x4475726174696F6E206D7573742062652067726561746572207468616E203000 PUSH1 0x44 DUP3 ADD MSTORE PUSH1 0x64 ADD PUSH2 0x84C JUMP JUMPDEST CALLER PUSH1 0x0 SWAP1 DUP2 MSTORE PUSH1 0x5 PUSH1 0x20 MSTORE PUSH1 0x40 SWAP1 KECCAK256 SLOAD DUP5 GT ISZERO PUSH2 0x2313 JUMPI PUSH1 0x40 MLOAD PUSH3 0x461BCD PUSH1 0xE5 SHL DUP2 MSTORE PUSH1 0x4 ADD PUSH2 0x84C SWAP1 PUSH2 0x2BE8 JUMP JUMPDEST CALLER PUSH1 0x0 SWAP1 DUP2 MSTORE PUSH1 0x5 PUSH1 0x20 MSTORE PUSH1 0x40 DUP2 KECCAK256 DUP1 SLOAD DUP7 SWAP3 SWAP1 PUSH2 0x2332 SWAP1 DUP5 SWAP1 PUSH2 0x2C16 JUMP JUMPDEST SWAP1 SWAP2 SSTORE POP POP PUSH1 0x9 DUP1 SLOAD PUSH1 0x0 SWAP2 DUP3 PUSH2 0x2348 DUP4 PUSH2 0x2C55 JUMP JUMPDEST SWAP1 SWAP2 SSTORE POP PUSH1 0x40 DUP1 MLOAD PUSH2 0x100 DUP1 DUP3 ADD DUP4 MSTORE DUP4 DUP3 MSTORE CALLER PUSH1 0x20 DUP1 DUP5 ADD DUP3 DUP2 MSTORE DUP5 DUP7 ADD DUP13 DUP2 MSTORE PUSH1 0x60 DUP7 ADD DUP13 DUP2 MSTORE PUSH1 0x80 DUP8 ADD DUP13 DUP2 MSTORE PUSH1 0xA0 DUP9 ADD DUP13 DUP2 MSTORE PUSH1 0x1 PUSH1 0xC0 DUP11 ADD DUP2 DUP2 MSTORE PUSH1 0x0 PUSH1 0xE0 DUP13 ADD DUP2 DUP2 MSTORE DUP15 DUP3 MSTORE PUSH1 0x8 DUP11 MSTORE DUP14 DUP3 KECCAK256 SWAP13 MLOAD DUP14 SSTORE SWAP8 MLOAD DUP13 DUP5 ADD DUP1 SLOAD PUSH1 0x1 PUSH1 0x1 PUSH1 0xA0 SHL SUB NOT AND PUSH1 0x1 PUSH1 0x1 PUSH1 0xA0 SHL SUB SWAP3 DUP4 AND OR SWAP1 SSTORE SWAP7 MLOAD PUSH1 0x2 DUP14 ADD SSTORE SWAP5 MLOAD PUSH1 0x3 DUP13 ADD SSTORE SWAP3 MLOAD PUSH1 0x4 DUP12 ADD SSTORE SWAP1 MLOAD PUSH1 0x5 DUP11 ADD SSTORE SWAP1 MLOAD PUSH1 0x6 SWAP1 SWAP9 ADD DUP1 SLOAD SWAP5 MLOAD PUSH1 0x1 PUSH1 0x1 PUSH1 0xA8 SHL SUB NOT SWAP1 SWAP6 AND SWAP9 ISZERO ISZERO PUSH2 0x100 PUSH1 0x1 PUSH1 0xA8 SHL SUB NOT AND SWAP9 SWAP1 SWAP9 OR SWAP4 SWAP1 SWAP3 AND SWAP1 SWAP6 MUL SWAP2 SWAP1 SWAP2 OR SWAP1 SWAP5 SSTORE PUSH1 0xA DUP1 SLOAD SWAP5 DUP6 ADD DUP2 SSTORE SWAP1 SWAP3 MSTORE PUSH32 0xC65A7BB8D6351C1CF70C95A316CC6A92839C986682D98BC35F958F4883F9D2A8 SWAP1 SWAP3 ADD DUP5 SWAP1 SSTORE DUP3 MLOAD DUP10 DUP2 MSTORE SWAP1 DUP2 ADD DUP9 SWAP1 MSTORE SWAP3 SWAP4 POP SWAP2 DUP4 SWAP2 PUSH32 0x46572DB6C519C91CEF0E381CA28D10DFBC4806DAE4864B5876BF5B3F0DD01F93 SWAP2 ADD PUSH1 0x40 MLOAD DUP1 SWAP2 SUB SWAP1 LOG3 POP POP POP POP POP JUMP JUMPDEST PUSH1 0x1 PUSH1 0x1 PUSH1 0xA0 SHL SUB DUP2 AND PUSH1 0x0 SWAP1 DUP2 MSTORE PUSH1 0x5 PUSH1 0x20 MSTORE PUSH1 0x40 SWAP1 KECCAK256 PUSH1 0x4 ADD SLOAD PUSH1 0xFF AND PUSH2 0x251E JUMPI PUSH1 0x40 DUP1 MLOAD PUSH1 0xA0 DUP2 ADD DUP3 MSTORE PUSH1 0x0 DUP1 DUP3 MSTORE PUSH1 0x20 DUP1 DUP4 ADD DUP3 DUP2 MSTORE DUP4 DUP6 ADD DUP4 DUP2 MSTORE TIMESTAMP PUSH1 0x60 DUP7 ADD SWAP1 DUP2 MSTORE PUSH1 0x1 PUSH1 0x80 DUP8 ADD DUP2 DUP2 MSTORE PUSH1 0x1 PUSH1 0x1 PUSH1 0xA0 SHL SUB DUP11 AND DUP8 MSTORE PUSH1 0x5 SWAP1 SWAP6 MSTORE SWAP7 SWAP1 SWAP5 KECCAK256 SWAP5 MLOAD DUP6 SSTORE SWAP1 MLOAD SWAP5 DUP5 ADD SWAP5 SWAP1 SWAP5 SSTORE SWAP3 MLOAD PUSH1 0x2 DUP4 ADD SSTORE MLOAD PUSH1 0x3 DUP3 ADD SSTORE SWAP1 MLOAD PUSH1 0x4 SWAP1 SWAP2 ADD DUP1 SLOAD PUSH1 0xFF NOT AND SWAP2 ISZERO ISZERO SWAP2 SWAP1 SWAP2 OR SWAP1 SSTORE JUMPDEST POP JUMP JUMPDEST PUSH1 0x0 JUMPDEST PUSH1 0xA SLOAD DUP2 LT ISZERO PUSH2 0x25D9 JUMPI DUP2 PUSH1 0xA DUP3 DUP2 SLOAD DUP2 LT PUSH2 0x2542 JUMPI PUSH2 0x2542 PUSH2 0x2C29 JUMP JUMPDEST SWAP1 PUSH1 0x0 MSTORE PUSH1 0x20 PUSH1 0x0 KECCAK256 ADD SLOAD SUB PUSH2 0x25C7 JUMPI PUSH1 0xA DUP1 SLOAD PUSH2 0x2562 SWAP1 PUSH1 0x1 SWAP1 PUSH2 0x2C16 JUMP JUMPDEST DUP2 SLOAD DUP2 LT PUSH2 0x2572 JUMPI PUSH2 0x2572 PUSH2 0x2C29 JUMP JUMPDEST SWAP1 PUSH1 0x0 MSTORE PUSH1 0x20 PUSH1 0x0 KECCAK256 ADD SLOAD PUSH1 0xA DUP3 DUP2 SLOAD DUP2 LT PUSH2 0x2590 JUMPI PUSH2 0x2590 PUSH2 0x2C29 JUMP JUMPDEST PUSH1 0x0 SWAP2 DUP3 MSTORE PUSH1 0x20 SWAP1 SWAP2 KECCAK256 ADD SSTORE PUSH1 0xA DUP1 SLOAD DUP1 PUSH2 0x25AD JUMPI PUSH2 0x25AD PUSH2 0x2CB0 JUMP JUMPDEST PUSH1 0x1 SWAP1 SUB DUP2 DUP2 SWAP1 PUSH1 0x0 MSTORE PUSH1 0x20 PUSH1 0x0 KECCAK256 ADD PUSH1 0x0 SWAP1 SSTORE SWAP1 SSTORE POP POP JUMP JUMPDEST DUP1 PUSH2 0x25D1 DUP2 PUSH2 0x2C55 JUMP JUMPDEST SWAP2 POP POP PUSH2 0x2524 JUMP JUMPDEST POP POP JUMP JUMPDEST PUSH1 0x40 DUP1 MLOAD PUSH1 0xA0 DUP2 ADD DUP3 MSTORE PUSH1 0x1 PUSH1 0x1 PUSH1 0xA0 SHL SUB DUP1 DUP8 AND DUP1 DUP4 MSTORE DUP7 DUP3 AND PUSH1 0x20 DUP1 DUP6 ADD SWAP2 DUP3 MSTORE DUP5 DUP7 ADD DUP9 DUP2 MSTORE TIMESTAMP PUSH1 0x60 DUP8 ADD SWAP1 DUP2 MSTORE PUSH1 0x80 DUP8 ADD DUP10 DUP2 MSTORE PUSH1 0x0 SWAP6 DUP7 MSTORE PUSH1 0x7 DUP5 MSTORE SWAP8 DUP6 KECCAK256 DUP1 SLOAD PUSH1 0x1 DUP2 DUP2 ADD DUP4 SSTORE SWAP2 DUP8 MSTORE SWAP4 SWAP1 SWAP6 KECCAK256 DUP8 MLOAD PUSH1 0x5 SWAP1 SWAP5 MUL ADD DUP1 SLOAD SWAP4 DUP8 AND PUSH1 0x1 PUSH1 0x1 PUSH1 0xA0 SHL SUB NOT SWAP5 DUP6 AND OR DUP2 SSTORE SWAP4 MLOAD SWAP5 DUP5 ADD DUP1 SLOAD SWAP6 SWAP1 SWAP7 AND SWAP5 SWAP1 SWAP3 AND SWAP4 SWAP1 SWAP4 OR SWAP1 SWAP4 SSTORE SWAP1 MLOAD PUSH1 0x2 DUP3 ADD SSTORE SWAP1 MLOAD PUSH1 0x3 DUP3 ADD SSTORE SWAP2 MLOAD SWAP1 SWAP2 DUP3 SWAP2 PUSH1 0x4 DUP3 ADD SWAP1 PUSH2 0x2686 SWAP1 DUP3 PUSH2 0x2D15 JUMP JUMPDEST POP POP POP DUP4 PUSH1 0x1 PUSH1 0x1 PUSH1 0xA0 SHL SUB AND DUP6 PUSH1 0x1 PUSH1 0x1 PUSH1 0xA0 SHL SUB AND EQ PUSH2 0x272D JUMPI PUSH1 0x1 PUSH1 0x1 PUSH1 0xA0 SHL SUB DUP1 DUP6 AND PUSH1 0x0 SWAP1 DUP2 MSTORE PUSH1 0x7 PUSH1 0x20 SWAP1 DUP2 MSTORE PUSH1 0x40 DUP1 DUP4 KECCAK256 DUP1 SLOAD PUSH1 0x1 DUP2 DUP2 ADD DUP4 SSTORE SWAP2 DUP6 MSTORE SWAP4 DUP4 SWAP1 KECCAK256 DUP7 MLOAD PUSH1 0x5 SWAP1 SWAP6 MUL ADD DUP1 SLOAD SWAP5 DUP7 AND PUSH1 0x1 PUSH1 0x1 PUSH1 0xA0 SHL SUB NOT SWAP6 DUP7 AND OR DUP2 SSTORE SWAP3 DUP7 ADD MLOAD SWAP1 DUP4 ADD DUP1 SLOAD SWAP2 SWAP1 SWAP6 AND SWAP4 AND SWAP3 SWAP1 SWAP3 OR SWAP1 SWAP3 SSTORE DUP3 ADD MLOAD PUSH1 0x2 DUP3 ADD SSTORE PUSH1 0x60 DUP3 ADD MLOAD PUSH1 0x3 DUP3 ADD SSTORE PUSH1 0x80 DUP3 ADD MLOAD DUP3 SWAP2 SWAP1 PUSH1 0x4 DUP3 ADD SWAP1 PUSH2 0x2729 SWAP1 DUP3 PUSH2 0x2D15 JUMP JUMPDEST POP POP POP JUMPDEST POP POP POP POP POP JUMP JUMPDEST PUSH1 0x1 PUSH1 0x1 PUSH1 0xA0 SHL SUB DUP2 AND PUSH1 0x0 SWAP1 DUP2 MSTORE PUSH1 0x5 PUSH1 0x20 MSTORE PUSH1 0x40 DUP2 KECCAK256 PUSH1 0x1 DUP2 ADD SLOAD SWAP1 SWAP2 SUB PUSH2 0x275C JUMPI POP POP JUMP JUMPDEST PUSH1 0x0 DUP2 PUSH1 0x3 ADD SLOAD TIMESTAMP PUSH2 0x276E SWAP2 SWAP1 PUSH2 0x2C16 JUMP JUMPDEST SWAP1 POP PUSH1 0x0 PUSH5 0x496CEBB800 DUP3 PUSH1 0x3 SLOAD DUP6 PUSH1 0x1 ADD SLOAD PUSH2 0x278B SWAP2 SWAP1 PUSH2 0x2B55 JUMP JUMPDEST PUSH2 0x2795 SWAP2 SWAP1 PUSH2 0x2B55 JUMP JUMPDEST PUSH2 0x279F SWAP2 SWAP1 PUSH2 0x2B72 JUMP JUMPDEST SWAP1 POP DUP1 ISZERO PUSH2 0x2804 JUMPI DUP1 DUP4 PUSH1 0x1 ADD PUSH1 0x0 DUP3 DUP3 SLOAD PUSH2 0x27BB SWAP2 SWAP1 PUSH2 0x2B94 JUMP JUMPDEST SWAP1 SWAP2 SSTORE POP POP PUSH1 0x40 DUP1 MLOAD DUP3 DUP2 MSTORE TIMESTAMP PUSH1 0x20 DUP3 ADD MSTORE PUSH1 0x1 PUSH1 0x1 PUSH1 0xA0 SHL SUB DUP7 AND SWAP2 PUSH32 0x480E1DB5CDA5860B75E338921C2926B382DD6BBE98C35521F5D46683FBA516C8 SWAP2 ADD PUSH1 0x40 MLOAD DUP1 SWAP2 SUB SWAP1 LOG2 JUMPDEST POP POP TIMESTAMP PUSH1 0x3 SWAP1 SWAP2 ADD SSTORE POP JUMP JUMPDEST PUSH1 0x40 MLOAD DUP1 PUSH2 0x100 ADD PUSH1 0x40 MSTORE DUP1 PUSH1 0x0 DUP2 MSTORE PUSH1 0x20 ADD PUSH1 0x0 PUSH1 0x1 PUSH1 0x1 PUSH1 0xA0 SHL SUB AND DUP2 MSTORE PUSH1 0x20 ADD PUSH1 0x0 DUP2 MSTORE PUSH1 0x20 ADD PUSH1 0x0 DUP2 MSTORE PUSH1 0x20 ADD PUSH1 0x0 DUP2 MSTORE PUSH1 0x20 ADD PUSH1 0x0 DUP2 MSTORE PUSH1 0x20 ADD PUSH1 0x0 ISZERO ISZERO DUP2 MSTORE PUSH1 0x20 ADD PUSH1 0x0 PUSH1 0x1 PUSH1 0x1 PUSH1 0xA0 SHL SUB AND DUP2 MSTORE POP SWAP1 JUMP JUMPDEST DUP1 CALLDATALOAD PUSH1 0x1 PUSH1 0x1 PUSH1 0xA0 SHL SUB DUP2 AND DUP2 EQ PUSH2 0x2880 JUMPI PUSH1 0x0 DUP1 REVERT JUMPDEST SWAP2 SWAP1 POP JUMP JUMPDEST PUSH1 0x0 DUP1 PUSH1 0x40 DUP4 DUP6 SUB SLT ISZERO PUSH2 0x2898 JUMPI PUSH1 0x0 DUP1 REVERT JUMPDEST PUSH2 0x28A1 DUP4 PUSH2 0x2869 JUMP JUMPDEST SWAP5 PUSH1 0x20 SWAP4 SWAP1 SWAP4 ADD CALLDATALOAD SWAP4 POP POP POP JUMP JUMPDEST PUSH1 0x0 DUP2 MLOAD DUP1 DUP5 MSTORE PUSH1 0x0 JUMPDEST DUP2 DUP2 LT ISZERO PUSH2 0x28D5 JUMPI PUSH1 0x20 DUP2 DUP6 ADD DUP2 ADD MLOAD DUP7 DUP4 ADD DUP3 ADD MSTORE ADD PUSH2 0x28B9 JUMP JUMPDEST POP PUSH1 0x0 PUSH1 0x20 DUP3 DUP7 ADD ADD MSTORE PUSH1 0x20 PUSH1 0x1F NOT PUSH1 0x1F DUP4 ADD AND DUP6 ADD ADD SWAP2 POP POP SWAP3 SWAP2 POP POP JUMP JUMPDEST PUSH1 0x1 PUSH1 0x1 PUSH1 0xA0 SHL SUB DUP7 DUP2 AND DUP3 MSTORE DUP6 AND PUSH1 0x20 DUP3 ADD MSTORE PUSH1 0x40 DUP2 ADD DUP5 SWAP1 MSTORE PUSH1 0x60 DUP2 ADD DUP4 SWAP1 MSTORE PUSH1 0xA0 PUSH1 0x80 DUP3 ADD DUP2 SWAP1 MSTORE PUSH1 0x0 SWAP1 PUSH2 0x292F SWAP1 DUP4 ADD DUP5 PUSH2 0x28AF JUMP JUMPDEST SWAP8 SWAP7 POP POP POP POP POP POP POP JUMP JUMPDEST PUSH1 0x0 PUSH1 0x20 DUP3 DUP5 SUB SLT ISZERO PUSH2 0x294C JUMPI PUSH1 0x0 DUP1 REVERT JUMPDEST POP CALLDATALOAD SWAP2 SWAP1 POP JUMP JUMPDEST PUSH1 0x0 PUSH1 0x20 DUP3 DUP5 SUB SLT ISZERO PUSH2 0x2965 JUMPI PUSH1 0x0 DUP1 REVERT JUMPDEST PUSH2 0x296E DUP3 PUSH2 0x2869 JUMP JUMPDEST SWAP4 SWAP3 POP POP POP JUMP JUMPDEST PUSH1 0x0 DUP1 PUSH1 0x40 DUP4 DUP6 SUB SLT ISZERO PUSH2 0x2988 JUMPI PUSH1 0x0 DUP1 REVERT JUMPDEST POP POP DUP1 CALLDATALOAD SWAP3 PUSH1 0x20 SWAP1 SWAP2 ADD CALLDATALOAD SWAP2 POP JUMP JUMPDEST PUSH1 0x20 DUP1 DUP3 MSTORE DUP3 MLOAD DUP3 DUP3 ADD DUP2 SWAP1 MSTORE PUSH1 0x0 SWAP2 SWAP1 PUSH1 0x40 SWAP1 DUP2 DUP6 ADD SWAP1 DUP7 DUP5 ADD DUP6 JUMPDEST DUP3 DUP2 LT ISZERO PUSH2 0x2A25 JUMPI DUP2 MLOAD DUP1 MLOAD DUP6 MSTORE DUP7 DUP2 ADD MLOAD PUSH1 0x1 PUSH1 0x1 PUSH1 0xA0 SHL SUB SWAP1 DUP2 AND DUP9 DUP8 ADD MSTORE DUP7 DUP3 ADD MLOAD DUP8 DUP8 ADD MSTORE PUSH1 0x60 DUP1 DUP4 ADD MLOAD SWAP1 DUP8 ADD MSTORE PUSH1 0x80 DUP1 DUP4 ADD MLOAD SWAP1 DUP8 ADD MSTORE PUSH1 0xA0 DUP1 DUP4 ADD MLOAD SWAP1 DUP8 ADD MSTORE PUSH1 0xC0 DUP1 DUP4 ADD MLOAD ISZERO ISZERO SWAP1 DUP8 ADD MSTORE PUSH1 0xE0 SWAP2 DUP3 ADD MLOAD AND SWAP1 DUP6 ADD MSTORE PUSH2 0x100 SWAP1 SWAP4 ADD SWAP3 SWAP1 DUP6 ADD SWAP1 PUSH1 0x1 ADD PUSH2 0x29B4 JUMP JUMPDEST POP SWAP2 SWAP8 SWAP7 POP POP POP POP POP POP POP JUMP JUMPDEST PUSH1 0x0 PUSH1 0x20 DUP1 DUP4 ADD DUP2 DUP5 MSTORE DUP1 DUP6 MLOAD DUP1 DUP4 MSTORE PUSH1 0x40 SWAP3 POP DUP3 DUP7 ADD SWAP2 POP DUP3 DUP2 PUSH1 0x5 SHL DUP8 ADD ADD DUP5 DUP9 ADD PUSH1 0x0 JUMPDEST DUP4 DUP2 LT ISZERO PUSH2 0x2AC5 JUMPI DUP9 DUP4 SUB PUSH1 0x3F NOT ADD DUP6 MSTORE DUP2 MLOAD DUP1 MLOAD PUSH1 0x1 PUSH1 0x1 PUSH1 0xA0 SHL SUB SWAP1 DUP2 AND DUP6 MSTORE DUP9 DUP3 ADD MLOAD AND DUP9 DUP6 ADD MSTORE DUP7 DUP2 ADD MLOAD DUP8 DUP6 ADD MSTORE PUSH1 0x60 DUP1 DUP3 ADD MLOAD SWAP1 DUP6 ADD MSTORE PUSH1 0x80 SWAP1 DUP2 ADD MLOAD PUSH1 0xA0 SWAP2 DUP6 ADD DUP3 SWAP1 MSTORE SWAP1 PUSH2 0x2AB1 DUP2 DUP7 ADD DUP4 PUSH2 0x28AF JUMP JUMPDEST SWAP7 DUP10 ADD SWAP7 SWAP5 POP POP POP SWAP1 DUP7 ADD SWAP1 PUSH1 0x1 ADD PUSH2 0x2A59 JUMP JUMPDEST POP SWAP1 SWAP9 SWAP8 POP POP POP POP POP POP POP POP JUMP JUMPDEST PUSH1 0x0 DUP1 PUSH1 0x0 DUP1 PUSH1 0x80 DUP6 DUP8 SUB SLT ISZERO PUSH2 0x2AE9 JUMPI PUSH1 0x0 DUP1 REVERT JUMPDEST POP POP DUP3 CALLDATALOAD SWAP5 PUSH1 0x20 DUP5 ADD CALLDATALOAD SWAP5 POP PUSH1 0x40 DUP5 ADD CALLDATALOAD SWAP4 PUSH1 0x60 ADD CALLDATALOAD SWAP3 POP SWAP1 POP JUMP JUMPDEST PUSH1 0x1 DUP2 DUP2 SHR SWAP1 DUP3 AND DUP1 PUSH2 0x2B19 JUMPI PUSH1 0x7F DUP3 AND SWAP2 POP JUMPDEST PUSH1 0x20 DUP3 LT DUP2 SUB PUSH2 0x2B39 JUMPI PUSH4 0x4E487B71 PUSH1 0xE0 SHL PUSH1 0x0 MSTORE PUSH1 0x22 PUSH1 0x4 MSTORE PUSH1 0x24 PUSH1 0x0 REVERT JUMPDEST POP SWAP2 SWAP1 POP JUMP JUMPDEST PUSH4 0x4E487B71 PUSH1 0xE0 SHL PUSH1 0x0 MSTORE PUSH1 0x11 PUSH1 0x4 MSTORE PUSH1 0x24 PUSH1 0x0 REVERT JUMPDEST DUP1 DUP3 MUL DUP2 ISZERO DUP3 DUP3 DIV DUP5 EQ OR PUSH2 0x2B6C JUMPI PUSH2 0x2B6C PUSH2 0x2B3F JUMP JUMPDEST SWAP3 SWAP2 POP POP JUMP JUMPDEST PUSH1 0x0 DUP3 PUSH2 0x2B8F JUMPI PUSH4 0x4E487B71 PUSH1 0xE0 SHL PUSH1 0x0 MSTORE PUSH1 0x12 PUSH1 0x4 MSTORE PUSH1 0x24 PUSH1 0x0 REVERT JUMPDEST POP DIV SWAP1 JUMP JUMPDEST DUP1 DUP3 ADD DUP1 DUP3 GT ISZERO PUSH2 0x2B6C JUMPI PUSH2 0x2B6C PUSH2 0x2B3F JUMP JUMPDEST PUSH1 0x20 DUP1 DUP3 MSTORE PUSH1 0x21 SWAP1 DUP3 ADD MSTORE PUSH32 0x4F6E6C79206F776E65722063616E2063616C6C20746869732066756E6374696F PUSH1 0x40 DUP3 ADD MSTORE PUSH1 0x37 PUSH1 0xF9 SHL PUSH1 0x60 DUP3 ADD MSTORE PUSH1 0x80 ADD SWAP1 JUMP JUMPDEST PUSH1 0x20 DUP1 DUP3 MSTORE PUSH1 0x14 SWAP1 DUP3 ADD MSTORE PUSH20 0x496E73756666696369656E742062616C616E6365 PUSH1 0x60 SHL PUSH1 0x40 DUP3 ADD MSTORE PUSH1 0x60 ADD SWAP1 JUMP JUMPDEST DUP2 DUP2 SUB DUP2 DUP2 GT ISZERO PUSH2 0x2B6C JUMPI PUSH2 0x2B6C PUSH2 0x2B3F JUMP JUMPDEST PUSH4 0x4E487B71 PUSH1 0xE0 SHL PUSH1 0x0 MSTORE PUSH1 0x32 PUSH1 0x4 MSTORE PUSH1 0x24 PUSH1 0x0 REVERT JUMPDEST PUSH4 0x4E487B71 PUSH1 0xE0 SHL PUSH1 0x0 MSTORE PUSH1 0x41 PUSH1 0x4 MSTORE PUSH1 0x24 PUSH1 0x0 REVERT JUMPDEST PUSH1 0x0 PUSH1 0x1 DUP3 ADD PUSH2 0x2C67 JUMPI PUSH2 0x2C67 PUSH2 0x2B3F JUMP JUMPDEST POP PUSH1 0x1 ADD SWAP1 JUMP JUMPDEST PUSH1 0x20 DUP1 DUP3 MSTORE PUSH1 0x22 SWAP1 DUP3 ADD MSTORE PUSH32 0x4C6F616E20616D6F756E74206D7573742062652067726561746572207468616E PUSH1 0x40 DUP3 ADD MSTORE PUSH2 0x203 PUSH1 0xF4 SHL PUSH1 0x60 DUP3 ADD MSTORE PUSH1 0x80 ADD SWAP1 JUMP JUMPDEST PUSH4 0x4E487B71 PUSH1 0xE0 SHL PUSH1 0x0 MSTORE PUSH1 0x31 PUSH1 0x4 MSTORE PUSH1 0x24 PUSH1 0x0 REVERT JUMPDEST PUSH1 0x1F DUP3 GT ISZERO PUSH2 0x2D10 JUMPI PUSH1 0x0 DUP2 DUP2 MSTORE PUSH1 0x20 DUP2 KECCAK256 PUSH1 0x1F DUP6 ADD PUSH1 0x5 SHR DUP2 ADD PUSH1 0x20 DUP7 LT ISZERO PUSH2 0x2CED JUMPI POP DUP1 JUMPDEST PUSH1 0x1F DUP6 ADD PUSH1 0x5 SHR DUP3 ADD SWAP2 POP JUMPDEST DUP2 DUP2 LT ISZERO PUSH2 0x2D0C JUMPI DUP3 DUP2 SSTORE PUSH1 0x1 ADD PUSH2 0x2CF9 JUMP JUMPDEST POP POP POP JUMPDEST POP POP POP JUMP JUMPDEST DUP2 MLOAD PUSH8 0xFFFFFFFFFFFFFFFF DUP2 GT ISZERO PUSH2 0x2D2F JUMPI PUSH2 0x2D2F PUSH2 0x2C3F JUMP JUMPDEST PUSH2 0x2D43 DUP2 PUSH2 0x2D3D DUP5 SLOAD PUSH2 0x2B05 JUMP JUMPDEST DUP5 PUSH2 0x2CC6 JUMP JUMPDEST PUSH1 0x20 DUP1 PUSH1 0x1F DUP4 GT PUSH1 0x1 DUP2 EQ PUSH2 0x2D78 JUMPI PUSH1 0x0 DUP5 ISZERO PUSH2 0x2D60 JUMPI POP DUP6 DUP4 ADD MLOAD JUMPDEST PUSH1 0x0 NOT PUSH1 0x3 DUP7 SWAP1 SHL SHR NOT AND PUSH1 0x1 DUP6 SWAP1 SHL OR DUP6 SSTORE PUSH2 0x2D0C JUMP JUMPDEST PUSH1 0x0 DUP6 DUP2 MSTORE PUSH1 0x20 DUP2 KECCAK256 PUSH1 0x1F NOT DUP7 AND SWAP2 JUMPDEST DUP3 DUP2 LT ISZERO PUSH2 0x2DA7 JUMPI DUP9 DUP7 ADD MLOAD DUP3 SSTORE SWAP5 DUP5 ADD SWAP5 PUSH1 0x1 SWAP1 SWAP2 ADD SWAP1 DUP5 ADD PUSH2 0x2D88 JUMP JUMPDEST POP DUP6 DUP3 LT ISZERO PUSH2 0x2DC5 JUMPI DUP8 DUP6 ADD MLOAD PUSH1 0x0 NOT PUSH1 0x3 DUP9 SWAP1 SHL PUSH1 0xF8 AND SHR NOT AND DUP2 SSTORE JUMPDEST POP POP POP POP POP PUSH1 0x1 SWAP1 DUP2 SHL ADD SWAP1 SSTORE POP JUMP INVALID LOG2 PUSH5 0x6970667358 0x22 SLT KECCAK256 0x2E NUMBER MLOAD RETURNDATACOPY CALLCODE 0x5E LOG1 DUP13 DUP6 0xAF SWAP13 POP CALLER CALLDATACOPY DUP2 PUSH27 0xB1ECAF6D94B980D75C3C9FB0BB7D2E7864736F6C63430008130033 "},"methodIdentifiers":{"acceptLoanOffer(uint256)":"21265d0e","accounts(address)":"5e5c06e2","activeLoanOfferIds(uint256)":"4402cc2b","cancelLoanOffer(uint256)":"74cbe57e","createLoanOffer(uint256,uint256,uint256,uint256)":"f240f8cc","deposit()":"d0e30db0","depositToSavings(uint256)":"d3099983","getActiveLoanOffers()":"904796d4","getBalance()":"12065fe0","getLoan(uint256)":"504006ca","getLoanCount()":"52196812","getSavingsBalance()":"620d54b2","getTransactionCount()":"2e7700f0","getTransactionHistory()":"b76d4fc3","loanInterestRate()":"c222bcea","loanOffers(uint256)":"2c7bdd4b","loans(address,uint256)":"98c61c37","nextOfferId()":"5f5d0655","owner()":"8da5cb5b","repayLoan(uint256,uint256)":"8a700b53","savingsInterestRate()":"196a29eb","setLoanInterestRate(uint256)":"2a3cb13a","setSavingsInterestRate(uint256)":"6de7ce14","takeLoan(uint256,uint256)":"a3183125","totalDeposits()":"7d882097","totalLoans()":"cc952b57","transactions(address,uint256)":"14538128","transfer(address,uint256)":"a9059cbb","withdraw(uint256)":"2e1a7d4d","withdrawFromSavings(uint256)":"4b56504f"}}}}}