{
  "_format": "hh-sol-artifact-1",
  "contractName": "DeFiBank",
  "sourceName": "contracts/DeFiBank.sol",
  "abi": [
    {
      "inputs": [],
      "stateMutability": "nonpayable",
      "type": "constructor"
    },
    {
      "anonymous": false,
      "inputs": [
        {
          "indexed": true,
          "internalType": "address",
          "name": "user",
          "type": "address"
        },
        {
          "indexed": false,
          "internalType": "uint256",
          "name": "amount",
          "type": "uint256"
        },
        {
          "indexed": false,
          "internalType": "uint256",
          "name": "timestamp",
          "type": "uint256"
        }
      ],
      "name": "Deposit",
      "type": "event"
    },
    {
      "anonymous": false,
      "inputs": [
        {
          "indexed": true,
          "internalType": "address",
          "name": "user",
          "type": "address"
        },
        {
          "indexed": false,
          "internalType": "uint256",
          "name": "amount",
          "type": "uint256"
        },
        {
          "indexed": false,
          "internalType": "uint256",
          "name": "timestamp",
          "type": "uint256"
        }
      ],
      "name": "InterestCredited",
      "type": "event"
    },
    {
      "anonymous": false,
      "inputs": [
        {
          "indexed": true,
          "internalType": "uint256",
          "name": "offerId",
          "type": "uint256"
        },
        {
          "indexed": true,
          "internalType": "address",
          "name": "borrower",
          "type": "address"
        }
      ],
      "name": "LoanOfferAccepted",
      "type": "event"
    },
    {
      "anonymous": false,
      "inputs": [
        {
          "indexed": true,
          "internalType": "uint256",
          "name": "offerId",
          "type": "uint256"
        }
      ],
      "name": "LoanOfferCancelled",
      "type": "event"
    },
    {
      "anonymous": false,
      "inputs": [
        {
          "indexed": true,
          "internalType": "uint256",
          "name": "offerId",
          "type": "uint256"
        },
        {
          "indexed": true,
          "internalType": "address",
          "name": "lender",
          "type": "address"
        },
        {
          "indexed": false,
          "internalType": "uint256",
          "name": "amount",
          "type": "uint256"
        },
        {
          "indexed": false,
          "internalType": "uint256",
          "name": "interestRate",
          "type": "uint256"
        }
      ],
      "name": "LoanOfferCreated",
      "type": "event"
    },
    {
      "anonymous": false,
      "inputs": [
        {
          "indexed": true,
          "internalType": "address",
          "name": "user",
          "type": "address"
        },
        {
          "indexed": false,
          "internalType": "uint256",
          "name": "loanIndex",
          "type": "uint256"
        },
        {
          "indexed": false,
          "internalType": "uint256",
          "name": "amount",
          "type": "uint256"
        },
        {
          "indexed": false,
          "internalType": "uint256",
          "name": "timestamp",
          "type": "uint256"
        }
      ],
      "name": "LoanRepaid",
      "type": "event"
    },
    {
      "anonymous": false,
      "inputs": [
        {
          "indexed": true,
          "internalType": "address",
          "name": "user",
          "type": "address"
        },
        {
          "indexed": false,
          "internalType": "uint256",
          "name": "amount",
          "type": "uint256"
        },
        {
          "indexed": false,
          "internalType": "uint256",
          "name": "duration",
          "type": "uint256"
        },
        {
          "indexed": false,
          "internalType": "uint256",
          "name": "timestamp",
          "type": "uint256"
        }
      ],
      "name": "LoanTaken",
      "type": "event"
    },
    {
      "anonymous": false,
      "inputs": [
        {
          "indexed": true,
          "internalType": "address",
          "name": "user",
          "type": "address"
        },
        {
          "indexed": false,
          "internalType": "uint256",
          "name": "amount",
          "type": "uint256"
        },
        {
          "indexed": false,
          "internalType": "uint256",
          "name": "timestamp",
          "type": "uint256"
        }
      ],
      "name": "SavingsDeposit",
      "type": "event"
    },
    {
      "anonymous": false,
      "inputs": [
        {
          "indexed": true,
          "internalType": "address",
          "name": "user",
          "type": "address"
        },
        {
          "indexed": false,
          "internalType": "uint256",
          "name": "amount",
          "type": "uint256"
        },
        {
          "indexed": false,
          "internalType": "uint256",
          "name": "timestamp",
          "type": "uint256"
        }
      ],
      "name": "SavingsWithdrawal",
      "type": "event"
    },
    {
      "anonymous": false,
      "inputs": [
        {
          "indexed": true,
          "internalType": "address",
          "name": "from",
          "type": "address"
        },
        {
          "indexed": true,
          "internalType": "address",
          "name": "to",
          "type": "address"
        },
        {
          "indexed": false,
          "internalType": "uint256",
          "name": "amount",
          "type": "uint256"
        },
        {
          "indexed": false,
          "internalType": "uint256",
          "name": "timestamp",
          "type": "uint256"
        }
      ],
      "name": "Transfer",
      "type": "event"
    },
    {
      "anonymous": false,
      "inputs": [
        {
          "indexed": true,
          "internalType": "address",
          "name": "user",
          "type": "address"
        },
        {
          "indexed": false,
          "internalType": "uint256",
          "name": "amount",
          "type": "uint256"
        },
        {
          "indexed": false,
          "internalType": "uint256",
          "name": "timestamp",
          "type": "uint256"
        }
      ],
      "name": "Withdrawal",
      "type": "event"
    },
    {
      "inputs": [
        {
          "internalType": "uint256",
          "name": "offerId",
          "type": "uint256"
        }
      ],
      "name": "acceptLoanOffer",
      "outputs": [],
      "stateMutability": "nonpayable",
      "type": "function"
    },
    {
      "inputs": [
        {
          "internalType": "address",
          "name": "",
          "type": "address"
        }
      ],
      "name": "accounts",
      "outputs": [
        {
          "internalType": "uint256",
          "name": "balance",
          "type": "uint256"
        },
        {
          "internalType": "uint256",
          "name": "savingsBalance",
          "type": "uint256"
        },
        {
          "internalType": "uint256",
          "name": "savingsStartTime",
          "type": "uint256"
        },
        {
          "internalType": "uint256",
          "name": "lastInterestCalculation",
          "type": "uint256"
        },
        {
          "internalType": "bool",
          "name": "exists",
          "type": "bool"
        }
      ],
      "stateMutability": "view",
      "type": "function"
    },
    {
      "inputs": [
        {
          "internalType": "uint256",
          "name": "",
          "type": "uint256"
        }
      ],
      "name": "activeLoanOfferIds",
      "outputs": [
        {
          "internalType": "uint256",
          "name": "",
          "type": "uint256"
        }
      ],
      "stateMutability": "view",
      "type": "function"
    },
    {
      "inputs": [
        {
          "internalType": "uint256",
          "name": "offerId",
          "type": "uint256"
        }
      ],
      "name": "cancelLoanOffer",
      "outputs": [],
      "stateMutability": "nonpayable",
      "type": "function"
    },
    {
      "inputs": [
        {
          "internalType": "uint256",
          "name": "amount",
          "type": "uint256"
        },
        {
          "internalType": "uint256",
          "name": "interestRate",
          "type": "uint256"
        },
        {
          "internalType": "uint256",
          "name": "durationInDays",
          "type": "uint256"
        },
        {
          "internalType": "uint256",
          "name": "minCollateralPercent",
          "type": "uint256"
        }
      ],
      "name": "createLoanOffer",
      "outputs": [],
      "stateMutability": "nonpayable",
      "type": "function"
    },
    {
      "inputs": [],
      "name": "deposit",
      "outputs": [],
      "stateMutability": "payable",
      "type": "function"
    },
    {
      "inputs": [
        {
          "internalType": "uint256",
          "name": "amount",
          "type": "uint256"
        }
      ],
      "name": "depositToSavings",
      "outputs": [],
      "stateMutability": "nonpayable",
      "type": "function"
    },
    {
      "inputs": [],
      "name": "getActiveLoanOffers",
      "outputs": [
        {
          "components": [
            {
              "internalType": "uint256",
              "name": "id",
              "type": "uint256"
            },
            {
              "internalType": "address",
              "name": "lender",
              "type": "address"
            },
            {
              "internalType": "uint256",
              "name": "amount",
              "type": "uint256"
            },
            {
              "internalType": "uint256",
              "name": "interestRate",
              "type": "uint256"
            },
            {
              "internalType": "uint256",
              "name": "durationInDays",
              "type": "uint256"
            },
            {
              "internalType": "uint256",
              "name": "minCollateralPercent",
              "type": "uint256"
            },
            {
              "internalType": "bool",
              "name": "active",
              "type": "bool"
            },
            {
              "internalType": "address",
              "name": "borrower",
              "type": "address"
            }
          ],
          "internalType": "struct DeFiBank.LoanOffer[]",
          "name": "",
          "type": "tuple[]"
        }
      ],
      "stateMutability": "view",
      "type": "function"
    },
    {
      "inputs": [],
      "name": "getBalance",
      "outputs": [
        {
          "internalType": "uint256",
          "name": "",
          "type": "uint256"
        }
      ],
      "stateMutability": "view",
      "type": "function"
    },
    {
      "inputs": [
        {
          "internalType": "uint256",
          "name": "loanIndex",
          "type": "uint256"
        }
      ],
      "name": "getLoan",
      "outputs": [
        {
          "internalType": "uint256",
          "name": "amount",
          "type": "uint256"
        },
        {
          "internalType": "uint256",
          "name": "interestRate",
          "type": "uint256"
        },
        {
          "internalType": "uint256",
          "name": "startTime",
          "type": "uint256"
        },
        {
          "internalType": "uint256",
          "name": "duration",
          "type": "uint256"
        },
        {
          "internalType": "bool",
          "name": "active",
          "type": "bool"
        },
        {
          "internalType": "uint256",
          "name": "repaidAmount",
          "type": "uint256"
        },
        {
          "internalType": "uint256",
          "name": "totalDue",
          "type": "uint256"
        }
      ],
      "stateMutability": "view",
      "type": "function"
    },
    {
      "inputs": [],
      "name": "getLoanCount",
      "outputs": [
        {
          "internalType": "uint256",
          "name": "",
          "type": "uint256"
        }
      ],
      "stateMutability": "view",
      "type": "function"
    },
    {
      "inputs": [],
      "name": "getSavingsBalance",
      "outputs": [
        {
          "internalType": "uint256",
          "name": "",
          "type": "uint256"
        }
      ],
      "stateMutability": "view",
      "type": "function"
    },
    {
      "inputs": [],
      "name": "getTransactionCount",
      "outputs": [
        {
          "internalType": "uint256",
          "name": "",
          "type": "uint256"
        }
      ],
      "stateMutability": "view",
      "type": "function"
    },
    {
      "inputs": [],
      "name": "getTransactionHistory",
      "outputs": [
        {
          "components": [
            {
              "internalType": "address",
              "name": "from",
              "type": "address"
            },
            {
              "internalType": "address",
              "name": "to",
              "type": "address"
            },
            {
              "internalType": "uint256",
              "name": "amount",
              "type": "uint256"
            },
            {
              "internalType": "uint256",
              "name": "timestamp",
              "type": "uint256"
            },
            {
              "internalType": "string",
              "name": "transactionType",
              "type": "string"
            }
          ],
          "internalType": "struct DeFiBank.Transaction[]",
          "name": "",
          "type": "tuple[]"
        }
      ],
      "stateMutability": "view",
      "type": "function"
    },
    {
      "inputs": [],
      "name": "loanInterestRate",
      "outputs": [
        {
          "internalType": "uint256",
          "name": "",
          "type": "uint256"
        }
      ],
      "stateMutability": "view",
      "type": "function"
    },
    {
      "inputs": [
        {
          "internalType": "uint256",
          "name": "",
          "type": "uint256"
        }
      ],
      "name": "loanOffers",
      "outputs": [
        {
          "internalType": "uint256",
          "name": "id",
          "type": "uint256"
        },
        {
          "internalType": "address",
          "name": "lender",
          "type": "address"
        },
        {
          "internalType": "uint256",
          "name": "amount",
          "type": "uint256"
        },
        {
          "internalType": "uint256",
          "name": "interestRate",
          "type": "uint256"
        },
        {
          "internalType": "uint256",
          "name": "durationInDays",
          "type": "uint256"
        },
        {
          "internalType": "uint256",
          "name": "minCollateralPercent",
          "type": "uint256"
        },
        {
          "internalType": "bool",
          "name": "active",
          "type": "bool"
        },
        {
          "internalType": "address",
          "name": "borrower",
          "type": "address"
        }
      ],
      "stateMutability": "view",
      "type": "function"
    },
    {
      "inputs": [
        {
          "internalType": "address",
          "name": "",
          "type": "address"
        },
        {
          "internalType": "uint256",
          "name": "",
          "type": "uint256"
        }
      ],
      "name": "loans",
      "outputs": [
        {
          "internalType": "uint256",
          "name": "amount",
          "type": "uint256"
        },
        {
          "internalType": "uint256",
          "name": "interestRate",
          "type": "uint256"
        },
        {
          "internalType": "uint256",
          "name": "startTime",
          "type": "uint256"
        },
        {
          "internalType": "uint256",
          "name": "duration",
          "type": "uint256"
        },
        {
          "internalType": "bool",
          "name": "active",
          "type": "bool"
        },
        {
          "internalType": "uint256",
          "name": "repaidAmount",
          "type": "uint256"
        },
        {
          "internalType": "address",
          "name": "lender",
          "type": "address"
        }
      ],
      "stateMutability": "view",
      "type": "function"
    },
    {
      "inputs": [],
      "name": "nextOfferId",
      "outputs": [
        {
          "internalType": "uint256",
          "name": "",
          "type": "uint256"
        }
      ],
      "stateMutability": "view",
      "type": "function"
    },
    {
      "inputs": [],
      "name": "owner",
      "outputs": [
        {
          "internalType": "address",
          "name": "",
          "type": "address"
        }
      ],
      "stateMutability": "view",
      "type": "function"
    },
    {
      "inputs": [
        {
          "internalType": "uint256",
          "name": "loanIndex",
          "type": "uint256"
        },
        {
          "internalType": "uint256",
          "name": "amount",
          "type": "uint256"
        }
      ],
      "name": "repayLoan",
      "outputs": [],
      "stateMutability": "nonpayable",
      "type": "function"
    },
    {
      "inputs": [],
      "name": "savingsInterestRate",
      "outputs": [
        {
          "internalType": "uint256",
          "name": "",
          "type": "uint256"
        }
      ],
      "stateMutability": "view",
      "type": "function"
    },
    {
      "inputs": [
        {
          "internalType": "uint256",
          "name": "rate",
          "type": "uint256"
        }
      ],
      "name": "setLoanInterestRate",
      "outputs": [],
      "stateMutability": "nonpayable",
      "type": "function"
    },
    {
      "inputs": [
        {
          "internalType": "uint256",
          "name": "rate",
          "type": "uint256"
        }
      ],
      "name": "setSavingsInterestRate",
      "outputs": [],
      "stateMutability": "nonpayable",
      "type": "function"
    },
    {
      "inputs": [
        {
          "internalType": "uint256",
          "name": "amount",
          "type": "uint256"
        },
        {
          "internalType": "uint256",
          "name": "durationInDays",
          "type": "uint256"
        }
      ],
      "name": "takeLoan",
      "outputs": [],
      "stateMutability": "nonpayable",
      "type": "function"
    },
    {
      "inputs": [],
      "name": "totalDeposits",
      "outputs": [
        {
          "internalType": "uint256",
          "name": "",
          "type": "uint256"
        }
      ],
      "stateMutability": "view",
      "type": "function"
    },
    {
      "inputs": [],
      "name": "totalLoans",
      "outputs": [
        {
          "internalType": "uint256",
          "name": "",
          "type": "uint256"
        }
      ],
      "stateMutability": "view",
      "type": "function"
    },
    {
      "inputs": [
        {
          "internalType": "address",
          "name": "",
          "type": "address"
        },
        {
          "internalType": "uint256",
          "name": "",
          "type": "uint256"
        }
      ],
      "name": "transactions",
      "outputs": [
        {
          "internalType": "address",
          "name": "from",
          "type": "address"
        },
        {
          "internalType": "address",
          "name": "to",
          "type": "address"
        },
        {
          "internalType": "uint256",
          "name": "amount",
          "type": "uint256"
        },
        {
          "internalType": "uint256",
          "name": "timestamp",
          "type": "uint256"
        },
        {
          "internalType": "string",
          "name": "transactionType",
          "type": "string"
        }
      ],
      "stateMutability": "view",
      "type": "function"
    },
    {
      "inputs": [
        {
          "internalType": "address",
          "name": "to",
          "type": "address"
        },
        {
          "internalType": "uint256",
          "name": "amount",
          "type": "uint256"
        }
      ],
      "name": "transfer",
      "outputs": [],
      "stateMutability": "nonpayable",
      "type": "function"
    },
    {
      "inputs": [
        {
          "internalType": "uint256",
          "name": "amount",
          "type": "uint256"
        }
      ],
      "name": "withdraw",
      "outputs": [],
      "stateMutability": "nonpayable",
      "type": "function"
    },
    {
      "inputs": [
        {
          "internalType": "uint256",
          "name": "amount",
          "type": "uint256"
        }
      ],
      "name": "withdrawFromSavings",
      "outputs": [],
      "stateMutability": "nonpayable",
      "type": "function"
    },
    {
      "stateMutability": "payable",
      "type": "receive"
    }
  ],
  "bytecode": "0x60806040526101f460035561032060045534801561001c57600080fd5b50600080546001600160a01b0319163390811782556040805160a0810182528381526020808201858152828401868152426060850190815260016080860181815297895260059094529490962092518355519082015592516002840155516003830155516004909101805491151560ff19909216919091179055612e0b806100a56000396000f3fe6080604052600436106101d15760003560e01c80636de7ce14116100f7578063a318312511610095578063cc952b5711610064578063cc952b5714610670578063d0e30db014610686578063d30999831461068e578063f240f8cc146106ae57600080fd5b8063a3183125146105f8578063a9059cbb14610618578063b76d4fc314610638578063c222bcea1461065a57600080fd5b80638a700b53116100d15780638a700b531461051e5780638da5cb5b1461053e578063904796d41461057657806398c61c371461059857600080fd5b80636de7ce14146104c857806374cbe57e146104e85780637d8820971461050857600080fd5b80632e7700f01161016f578063521968121161013e57806352196812146104115780635e5c06e2146104265780635f5d06551461049d578063620d54b2146104b357600080fd5b80632e7700f0146103655780634402cc2b1461037a5780634b56504f1461039a578063504006ca146103ba57600080fd5b806321265d0e116101ab57806321265d0e1461024c5780632a3cb13a1461026e5780632c7bdd4b1461028e5780632e1a7d4d1461034557600080fd5b806312065fe0146101dd5780631453812814610205578063196a29eb1461023657600080fd5b366101d857005b600080fd5b3480156101e957600080fd5b506101f26106ce565b6040519081526020015b60405180910390f35b34801561021157600080fd5b50610225610220366004612885565b610702565b6040516101fc9594939291906128f5565b34801561024257600080fd5b506101f260035481565b34801561025857600080fd5b5061026c61026736600461293a565b6107ea565b005b34801561027a57600080fd5b5061026c61028936600461293a565b610aea565b34801561029a57600080fd5b506102fd6102a936600461293a565b600860205260009081526040902080546001820154600283015460038401546004850154600586015460069096015494956001600160a01b0394851695939492939192909160ff8116916101009091041688565b604080519889526001600160a01b0397881660208a01528801959095526060870193909352608086019190915260a0850152151560c08401521660e0820152610100016101fc565b34801561035157600080fd5b5061026c61036036600461293a565b610b19565b34801561037157600080fd5b506101f2610c89565b34801561038657600080fd5b506101f261039536600461293a565b610cbd565b3480156103a657600080fd5b5061026c6103b536600461293a565b610cde565b3480156103c657600080fd5b506103da6103d536600461293a565b610e9f565b6040805197885260208801969096529486019390935260608501919091521515608084015260a083015260c082015260e0016101fc565b34801561041d57600080fd5b506101f261102c565b34801561043257600080fd5b50610473610441366004612953565b600560205260009081526040902080546001820154600283015460038401546004909401549293919290919060ff1685565b6040805195865260208601949094529284019190915260608301521515608082015260a0016101fc565b3480156104a957600080fd5b506101f260095481565b3480156104bf57600080fd5b506101f2611060565b3480156104d457600080fd5b5061026c6104e336600461293a565b611138565b3480156104f457600080fd5b5061026c61050336600461293a565b611167565b34801561051457600080fd5b506101f260015481565b34801561052a57600080fd5b5061026c610539366004612975565b611290565b34801561054a57600080fd5b5060005461055e906001600160a01b031681565b6040516001600160a01b0390911681526020016101fc565b34801561058257600080fd5b5061058b611690565b6040516101fc9190612997565b3480156105a457600080fd5b506105b86105b3366004612885565b6118ac565b6040805197885260208801969096529486019390935260608501919091521515608084015260a08301526001600160a01b031660c082015260e0016101fc565b34801561060457600080fd5b5061026c610613366004612975565b611915565b34801561062457600080fd5b5061026c610633366004612885565b611bdf565b34801561064457600080fd5b5061064d611d9d565b6040516101fc9190612a32565b34801561066657600080fd5b506101f260045481565b34801561067c57600080fd5b506101f260025481565b61026c611f5c565b34801561069a57600080fd5b5061026c6106a936600461293a565b612069565b3480156106ba57600080fd5b5061026c6106c9366004612ad3565b61220f565b3360009081526005602052604081206004015460ff166106ee5750600090565b503360009081526005602052604090205490565b6007602052816000526040600020818154811061071e57600080fd5b6000918252602090912060059091020180546001820154600283015460038401546004850180546001600160a01b03958616985093909416955090939092909161076790612b05565b80601f016020809104026020016040519081016040528092919081815260200182805461079390612b05565b80156107e05780601f106107b5576101008083540402835291602001916107e0565b820191906000526020600020905b8154815290600101906020018083116107c357829003601f168201915b5050505050905085565b6107f333612487565b6000818152600860205260409020600681015460ff166108555760405162461bcd60e51b81526020600482015260186024820152774c6f616e206f66666572206973206e6f742061637469766560401b60448201526064015b60405180910390fd5b6001810154336001600160a01b03909116036108bd5760405162461bcd60e51b815260206004820152602160248201527f43616e6e6f742061636365707420796f7572206f776e206c6f616e206f6666656044820152603960f91b606482015260840161084c565b60006064826005015483600201546108d59190612b55565b6108df9190612b72565b3360009081526005602052604090206001015490915081111561093e5760405162461bcd60e51b8152602060048201526017602482015276125b9cdd59999a58da595b9d0818dbdb1b185d195c985b604a1b604482015260640161084c565b6006820180546001600160a81b03191661010033021790556040805160e0810182526002840154815260038401546020820152429181019190915260048301546000919060608201906109949062015180612b55565b81526001602080830182905260006040808501829052888401546001600160a01b03908116606096870152338084526006808652838520805480890182559086528686208a51600790920201908155898701519781019790975588840151600280890191909155978901516003880155608089015160048801805460ff191691151591909117905560a089015160058089019190915560c08a01519790910180546001600160a01b0319169790931696909617909155948901549482529290915290812080549394509192610a6a908490612b94565b90915550610a79905084612521565b60018301546002840154604080518082019091526008815267281928102637b0b760c11b6020820152610ab7926001600160a01b03169133916125dd565b604051339085907f2e68edc76171b2dc4d4b10fffed9d8fe887a05c5c66f45a570ca91f141464a7390600090a350505050565b6000546001600160a01b03163314610b145760405162461bcd60e51b815260040161084c90612ba7565b600455565b610b2233612487565b60008111610b835760405162461bcd60e51b815260206004820152602860248201527f5769746864726177616c20616d6f756e74206d75737420626520677265617465604482015267072207468616e20360c41b606482015260840161084c565b33600090815260056020526040902054811115610bb25760405162461bcd60e51b815260040161084c90612be8565b3360009081526005602052604081208054839290610bd1908490612c16565b925050819055508060016000828254610bea9190612c16565b9091555050604051339082156108fc029083906000818181858888f19350505050158015610c1c573d6000803e3d6000fd5b50610c4b3333836040518060400160405280600a81526020016915da5d1a191c985dd85b60b21b8152506125dd565b6040805182815242602082015233917fdf273cb619d95419a9cd0ec88123a0538c85064229baa6363788f743fff90deb91015b60405180910390a250565b3360009081526005602052604081206004015460ff16610ca95750600090565b503360009081526007602052604090205490565b600a8181548110610ccd57600080fd5b600091825260209091200154905081565b610ce733612487565b60008111610d375760405162461bcd60e51b815260206004820152601d60248201527f416d6f756e74206d7573742062652067726561746572207468616e2030000000604482015260640161084c565b33600090815260056020526040902060010154811115610d995760405162461bcd60e51b815260206004820152601c60248201527f496e73756666696369656e7420736176696e67732062616c616e636500000000604482015260640161084c565b610da233612734565b3360009081526005602052604081206001018054839290610dc4908490612c16565b90915550503360009081526005602052604081208054839290610de8908490612b94565b9091555050336000908152600560205260408120600101549003610e1a57336000908152600560205260408120600201555b33600081815260056020908152604091829020426003909101558151808301909252601282527114d85d9a5b99dcc815da5d1a191c985dd85b60721b90820152610e689190819084906125dd565b6040805182815242602082015233917fbc5ad05086f5c2b5ee738247479b6ca942dbc8b5f4d742217264a5ab2e1467119101610c7e565b3360009081526005602052604081206004015481908190819081908190819060ff161580610edc5750336000908152600660205260409020548810155b15610efb57506000955085945084935083925082915081905080611021565b33600090815260066020526040812080548a908110610f1c57610f1c612c29565b600091825260208083206040805160e081018252600790940290910180548452600181015492840192909252600282015490830181905260038201546060840152600482015460ff1615156080840152600582015460a08401526006909101546001600160a01b031660c0830152909250610f979042612c16565b9050600064496cebb8008284602001518560000151610fb69190612b55565b610fc09190612b55565b610fca9190612b72565b905060008360a00151828560000151610fe39190612b94565b610fed9190612c16565b9050836000015184602001518560400151866060015187608001518860a00151869a509a509a509a509a509a509a50505050505b919395979092949650565b3360009081526005602052604081206004015460ff1661104c5750600090565b503360009081526006602052604090205490565b3360009081526005602052604081206004015460ff166110805750600090565b336000908152600560209081526040808320815160a081018352815481526001820154938101849052600282015492810192909252600381015460608301526004015460ff161515608082015291036110db57600091505090565b60008160600151426110ed9190612c16565b9050600064496cebb80082600354856020015161110a9190612b55565b6111149190612b55565b61111e9190612b72565b90508083602001516111309190612b94565b935050505090565b6000546001600160a01b031633146111625760405162461bcd60e51b815260040161084c90612ba7565b600355565b61117033612487565b6000818152600860205260409020600681015460ff166111cd5760405162461bcd60e51b81526020600482015260186024820152774c6f616e206f66666572206973206e6f742061637469766560401b604482015260640161084c565b60018101546001600160a01b031633146112225760405162461bcd60e51b815260206004820152601660248201527513db9b1e481b195b99195c8818d85b8818d85b98d95b60521b604482015260640161084c565b60068101805460ff1916905560028101543360009081526005602052604081208054909190611252908490612b94565b90915550611261905082612521565b60405182907feff051d270f5ecee1680a12ea87f0452d48a2637f5e381834c1b9d630e1b914890600090a25050565b61129933612487565b3360009081526006602052604090205482106112ec5760405162461bcd60e51b8152602060048201526012602482015271092dcecc2d8d2c840d8dec2dc40d2dcc8caf60731b604482015260640161084c565b33600090815260066020526040902080548390811061130d5761130d612c29565b600091825260209091206004600790920201015460ff166113655760405162461bcd60e51b81526020600482015260126024820152714c6f616e206973206e6f742061637469766560701b604482015260640161084c565b600081116113c55760405162461bcd60e51b815260206004820152602760248201527f52657061796d656e7420616d6f756e74206d75737420626520677265617465726044820152660207468616e20360cc1b606482015260840161084c565b336000908152600560205260409020548111156113f45760405162461bcd60e51b815260040161084c90612be8565b33600090815260066020526040812080548490811061141557611415612c29565b9060005260206000209060070201905060008160020154426114379190612c16565b9050600064496cebb80082846001015485600001546114569190612b55565b6114609190612b55565b61146a9190612b72565b9050600083600501548285600001546114839190612b94565b61148d9190612c16565b9050808511156114df5760405162461bcd60e51b815260206004820152601d60248201527f52657061796d656e742065786365656473206c6f616e20616d6f756e74000000604482015260640161084c565b33600090815260056020526040812080548792906114fe908490612c16565b92505081905550848460050160008282546115199190612b94565b9091555050835461152b908390612b94565b84600501541061156d5760048401805460ff1916905560068401546001600160a01b031661156d57835460028054600090611567908490612c16565b90915550505b60068401546001600160a01b031615611614576006840154611597906001600160a01b0316612487565b60068401546001600160a01b0316600090815260056020526040812080548792906115c3908490612b94565b90915550506006840154604080518082019091526012815271140c9408131bd85b8814995c185e5b595b9d60721b602082015261160f9133916001600160a01b039091169088906125dd565b611646565b6116463330876040518060400160405280600e81526020016d131bd85b8814995c185e5b595b9d60921b8152506125dd565b60408051878152602081018790524281830152905133917f2cebe3c4a7e8e81ca2035a6cb3ee450bb6401d9b6636652e183583f047049572919081900360600190a2505050505050565b600a5460609060009067ffffffffffffffff8111156116b1576116b1612c3f565b6040519080825280602002602001820160405280156116ea57816020015b6116d7612810565b8152602001906001900390816116cf5790505b5090506000805b600a548110156117f7576000600a828154811061171057611710612c29565b6000918252602080832090910154808352600890915260409091206006015490915060ff16156117e457600081815260086020908152604091829020825161010080820185528254825260018301546001600160a01b03908116948301949094526002830154948201949094526003820154606082015260048201546080820152600582015460a082015260069091015460ff8116151560c0830152929092041660e082015284518590859081106117ca576117ca612c29565b602002602001018190525082806117e090612c55565b9350505b50806117ef81612c55565b9150506116f1565b5060008167ffffffffffffffff81111561181357611813612c3f565b60405190808252806020026020018201604052801561184c57816020015b611839612810565b8152602001906001900390816118315790505b50905060005b828110156118a45783818151811061186c5761186c612c29565b602002602001015182828151811061188657611886612c29565b6020026020010181905250808061189c90612c55565b915050611852565b509392505050565b600660205281600052604060002081815481106118c857600080fd5b600091825260209091206007909102018054600182015460028301546003840154600485015460058601546006909601549497509295509093909260ff909216916001600160a01b031687565b61191e33612487565b6000821161193e5760405162461bcd60e51b815260040161084c90612c6e565b6000811161198e5760405162461bcd60e51b815260206004820152601f60248201527f4475726174696f6e206d7573742062652067726561746572207468616e203000604482015260640161084c565b814710156119de5760405162461bcd60e51b815260206004820152601d60248201527f496e73756666696369656e7420636f6e74726163742062616c616e6365000000604482015260640161084c565b600060646119ed846096612b55565b6119f79190612b72565b33600090815260056020526040902060010154909150811115611a565760405162461bcd60e51b8152602060048201526017602482015276125b9cdd59999a58da595b9d0818dbdb1b185d195c985b604a1b604482015260640161084c565b60006040518060e0016040528085815260200160045481526020014281526020018462015180611a869190612b55565b8152600160208083018290526000604080850182905260609485018290523380835260068085528284208054808801825590855285852089516007909202019081558886015196810196909655878301516002870155958701516003860155608087015160048601805460ff191691151591909117905560a087015160058087019190915560c08801519590960180546001600160a01b0319166001600160a01b0390961695909517909455928152929052812080549293508692909190611b4f908490612b94565b925050819055508360026000828254611b689190612b94565b92505081905550611b97303386604051806040016040528060048152602001632637b0b760e11b8152506125dd565b60408051858152602081018590524281830152905133917f1daae93c0719c540c3891d8a11e5f3b79cbd03028f1fa7e520d31c1a87843335919081900360600190a250505050565b611be833612487565b6001600160a01b038216611c3e5760405162461bcd60e51b815260206004820152601960248201527f496e76616c696420726563697069656e74206164647265737300000000000000604482015260640161084c565b60008111611c9d5760405162461bcd60e51b815260206004820152602660248201527f5472616e7366657220616d6f756e74206d75737420626520677265617465722060448201526507468616e20360d41b606482015260840161084c565b33600090815260056020526040902054811115611ccc5760405162461bcd60e51b815260040161084c90612be8565b611cd582612487565b3360009081526005602052604081208054839290611cf4908490612c16565b90915550506001600160a01b03821660009081526005602052604081208054839290611d21908490612b94565b92505081905550611d54338383604051806040016040528060088152602001672a3930b739b332b960c11b8152506125dd565b604080518281524260208201526001600160a01b0384169133917f9ed053bb818ff08b8353cd46f78db1f0799f31c9e4458fdb425c10eccd2efc44910160405180910390a35050565b3360009081526005602052604090206004015460609060ff16611e2d576040805160008082526020820190925290611e27565b611e146040518060a0016040528060006001600160a01b0316815260200160006001600160a01b031681526020016000815260200160008152602001606081525090565b815260200190600190039081611dd05790505b50905090565b33600090815260076020908152604080832080548251818502810185019093528083529193909284015b82821015611f535760008481526020908190206040805160a0810182526005860290920180546001600160a01b0390811684526001820154169383019390935260028301549082015260038201546060820152600482018054919291608084019190611ec290612b05565b80601f0160208091040260200160405190810160405280929190818152602001828054611eee90612b05565b8015611f3b5780601f10611f1057610100808354040283529160200191611f3b565b820191906000526020600020905b815481529060010190602001808311611f1e57829003601f168201915b50505050508152505081526020019060010190611e57565b50505050905090565b611f6533612487565b60003411611fc35760405162461bcd60e51b815260206004820152602560248201527f4465706f73697420616d6f756e74206d75737420626520677265617465722074604482015264068616e20360dc1b606482015260840161084c565b3360009081526005602052604081208054349290611fe2908490612b94565b925050819055503460016000828254611ffb9190612b94565b9250508190555061202d3333346040518060400160405280600781526020016611195c1bdcda5d60ca1b8152506125dd565b6040805134815242602082015233917f90890809c654f11d6e72a28fa60149770a0d11ec6c92319d6ceb2bb0a4ea1a15910160405180910390a2565b61207233612487565b600081116120c25760405162461bcd60e51b815260206004820152601d60248201527f416d6f756e74206d7573742062652067726561746572207468616e2030000000604482015260640161084c565b336000908152600560205260409020548111156120f15760405162461bcd60e51b815260040161084c90612be8565b33600090815260056020526040902060010154156121125761211233612734565b3360009081526005602052604081208054839290612131908490612c16565b90915550503360009081526005602052604081206001018054839290612158908490612b94565b909155505033600090815260056020526040812060020154900361218d57336000908152600560205260409020426002909101555b33600081815260056020908152604091829020426003909101558151808301909252600f82526e14d85d9a5b99dcc811195c1bdcda5d608a1b908201526121d89190819084906125dd565b6040805182815242602082015233917fa1977b78fdb0389c2a3c7e0d3ef23e6a4eb9983e42821101d4a0fd89de4337539101610c7e565b61221833612487565b600084116122385760405162461bcd60e51b815260040161084c90612c6e565b600083116122945760405162461bcd60e51b8152602060048201526024808201527f496e7465726573742072617465206d75737420626520677265617465722074686044820152630616e20360e41b606482015260840161084c565b600082116122e45760405162461bcd60e51b815260206004820152601f60248201527f4475726174696f6e206d7573742062652067726561746572207468616e203000604482015260640161084c565b336000908152600560205260409020548411156123135760405162461bcd60e51b815260040161084c90612be8565b3360009081526005602052604081208054869290612332908490612c16565b9091555050600980546000918261234883612c55565b909155506040805161010080820183528382523360208084018281528486018c8152606086018c8152608087018c815260a088018c8152600160c08a01818152600060e08c018181528e825260088a528d82209c518d5597518c840180546001600160a01b0319166001600160a01b03928316179055965160028d0155945160038c0155925160048b0155905160058a015590516006909801805494516001600160a81b0319909516981515610100600160a81b031916989098179390921690950291909117909455600a805494850181559092527fc65a7bb8d6351c1cf70c95a316cc6a92839c986682d98bc35f958f4883f9d2a890920184905582518981529081018890529293509183917f46572db6c519c91cef0e381ca28d10dfbc4806dae4864b5876bf5b3f0dd01f93910160405180910390a35050505050565b6001600160a01b03811660009081526005602052604090206004015460ff1661251e576040805160a0810182526000808252602080830182815283850183815242606086019081526001608087018181526001600160a01b038a168752600590955296909420945185559051948401949094559251600283015551600382015590516004909101805460ff19169115159190911790555b50565b60005b600a548110156125d95781600a828154811061254257612542612c29565b9060005260206000200154036125c757600a805461256290600190612c16565b8154811061257257612572612c29565b9060005260206000200154600a828154811061259057612590612c29565b600091825260209091200155600a8054806125ad576125ad612cb0565b600190038181906000526020600020016000905590555050565b806125d181612c55565b915050612524565b5050565b6040805160a0810182526001600160a01b03808716808352868216602080850191825284860188815242606087019081526080870189815260009586526007845297852080546001818101835591875293909520875160059094020180549387166001600160a01b031994851617815593519484018054959096169490921693909317909355905160028201559051600382015591519091829160048201906126869082612d15565b505050836001600160a01b0316856001600160a01b03161461272d576001600160a01b03808516600090815260076020908152604080832080546001818101835591855293839020865160059095020180549486166001600160a01b031995861617815592860151908301805491909516931692909217909255820151600282015560608201516003820155608082015182919060048201906127299082612d15565b5050505b5050505050565b6001600160a01b0381166000908152600560205260408120600181015490910361275c575050565b600081600301544261276e9190612c16565b9050600064496cebb80082600354856001015461278b9190612b55565b6127959190612b55565b61279f9190612b72565b9050801561280457808360010160008282546127bb9190612b94565b9091555050604080518281524260208201526001600160a01b038616917f480e1db5cda5860b75e338921c2926b382dd6bbe98c35521f5d46683fba516c8910160405180910390a25b50504260039091015550565b6040518061010001604052806000815260200160006001600160a01b031681526020016000815260200160008152602001600081526020016000815260200160001515815260200160006001600160a01b031681525090565b80356001600160a01b038116811461288057600080fd5b919050565b6000806040838503121561289857600080fd5b6128a183612869565b946020939093013593505050565b6000815180845260005b818110156128d5576020818501810151868301820152016128b9565b506000602082860101526020601f19601f83011685010191505092915050565b6001600160a01b03868116825285166020820152604081018490526060810183905260a06080820181905260009061292f908301846128af565b979650505050505050565b60006020828403121561294c57600080fd5b5035919050565b60006020828403121561296557600080fd5b61296e82612869565b9392505050565b6000806040838503121561298857600080fd5b50508035926020909101359150565b602080825282518282018190526000919060409081850190868401855b82811015612a2557815180518552868101516001600160a01b03908116888701528682015187870152606080830151908701526080808301519087015260a0808301519087015260c08083015115159087015260e091820151169085015261010090930192908501906001016129b4565b5091979650505050505050565b60006020808301818452808551808352604092508286019150828160051b87010184880160005b83811015612ac557888303603f19018552815180516001600160a01b03908116855288820151168885015286810151878501526060808201519085015260809081015160a091850182905290612ab1818601836128af565b968901969450505090860190600101612a59565b509098975050505050505050565b60008060008060808587031215612ae957600080fd5b5050823594602084013594506040840135936060013592509050565b600181811c90821680612b1957607f821691505b602082108103612b3957634e487b7160e01b600052602260045260246000fd5b50919050565b634e487b7160e01b600052601160045260246000fd5b8082028115828204841417612b6c57612b6c612b3f565b92915050565b600082612b8f57634e487b7160e01b600052601260045260246000fd5b500490565b80820180821115612b6c57612b6c612b3f565b60208082526021908201527f4f6e6c79206f776e65722063616e2063616c6c20746869732066756e6374696f6040820152603760f91b606082015260800190565b602080825260149082015273496e73756666696369656e742062616c616e636560601b604082015260600190565b81810381811115612b6c57612b6c612b3f565b634e487b7160e01b600052603260045260246000fd5b634e487b7160e01b600052604160045260246000fd5b600060018201612c6757612c67612b3f565b5060010190565b60208082526022908201527f4c6f616e20616d6f756e74206d7573742062652067726561746572207468616e604082015261020360f41b606082015260800190565b634e487b7160e01b600052603160045260246000fd5b601f821115612d1057600081815260208120601f850160051c81016020861015612ced5750805b601f850160051c820191505b81811015612d0c57828155600101612cf9565b5050505b505050565b815167ffffffffffffffff811115612d2f57612d2f612c3f565b612d4381612d3d8454612b05565b84612cc6565b602080601f831160018114612d785760008415612d605750858301515b600019600386901b1c1916600185901b178555612d0c565b600085815260208120601f198616915b82811015612da757888601518255948401946001909101908401612d88565b5085821015612dc55787850151600019600388901b60f8161c191681555b5050505050600190811b0190555056fea264697066735822122073df185be0c1311521e4477dd0575e20124424c8611f186dadcd0c7a6cd05af364736f6c63430008130033",
  "linkReferences": {},
  "deployedLinkReferences": {}
}