{
  "_format": "hh-sol-artifact-1",
  "contractName": "DeFiBank",
  "sourceName": "contracts/DeFiBank.sol",
  "abi": [
    {
      "inputs": [],
      "stateMutability": "nonpayable",
      "type": "constructor"
    },
    {
      "anonymous": false,
      "inputs": [
        {
          "indexed": true,
          "internalType": "address",
          "name": "user",
          "type": "address"
        },
        {
          "indexed": false,
          "internalType": "uint256",
          "name": "amount",
          "type": "uint256"
        },
        {
          "indexed": false,
          "internalType": "uint256",
          "name": "timestamp",
          "type": "uint256"
        }
      ],
      "name": "Deposit",
      "type": "event"
    },
    {
      "anonymous": false,
      "inputs": [
        {
          "indexed": true,
          "internalType": "address",
          "name": "user",
          "type": "address"
        },
        {
          "indexed": false,
          "internalType": "uint256",
          "name": "amount",
          "type": "uint256"
        },
        {
          "indexed": false,
          "internalType": "uint256",
          "name": "timestamp",
          "type": "uint256"
        }
      ],
      "name": "InterestCredited",
      "type": "event"
    },
    {
      "anonymous": false,
      "inputs": [
        {
          "indexed": true,
          "internalType": "uint256",
          "name": "offerId",
          "type": "uint256"
        },
        {
          "indexed": true,
          "internalType": "address",
          "name": "borrower",
          "type": "address"
        }
      ],
      "name": "LoanOfferAccepted",
      "type": "event"
    },
    {
      "anonymous": false,
      "inputs": [
        {
          "indexed": true,
          "internalType": "uint256",
          "name": "offerId",
          "type": "uint256"
        }
      ],
      "name": "LoanOfferCancelled",
      "type": "event"
    },
    {
      "anonymous": false,
      "inputs": [
        {
          "indexed": true,
          "internalType": "uint256",
          "name": "offerId",
          "type": "uint256"
        },
        {
          "indexed": true,
          "internalType": "address",
          "name": "lender",
          "type": "address"
        },
        {
          "indexed": false,
          "internalType": "uint256",
          "name": "amount",
          "type": "uint256"
        },
        {
          "indexed": false,
          "internalType": "uint256",
          "name": "interestRate",
          "type": "uint256"
        }
      ],
      "name": "LoanOfferCreated",
      "type": "event"
    },
    {
      "anonymous": false,
      "inputs": [
        {
          "indexed": true,
          "internalType": "address",
          "name": "user",
          "type": "address"
        },
        {
          "indexed": false,
          "internalType": "uint256",
          "name": "loanIndex",
          "type": "uint256"
        },
        {
          "indexed": false,
          "internalType": "uint256",
          "name": "amount",
          "type": "uint256"
        },
        {
          "indexed": false,
          "internalType": "uint256",
          "name": "timestamp",
          "type": "uint256"
        }
      ],
      "name": "LoanRepaid",
      "type": "event"
    },
    {
      "anonymous": false,
      "inputs": [
        {
          "indexed": true,
          "internalType": "address",
          "name": "user",
          "type": "address"
        },
        {
          "indexed": false,
          "internalType": "uint256",
          "name": "amount",
          "type": "uint256"
        },
        {
          "indexed": false,
          "internalType": "uint256",
          "name": "duration",
          "type": "uint256"
        },
        {
          "indexed": false,
          "internalType": "uint256",
          "name": "timestamp",
          "type": "uint256"
        }
      ],
      "name": "LoanTaken",
      "type": "event"
    },
    {
      "anonymous": false,
      "inputs": [
        {
          "indexed": true,
          "internalType": "address",
          "name": "user",
          "type": "address"
        },
        {
          "indexed": false,
          "internalType": "uint256",
          "name": "amount",
          "type": "uint256"
        },
        {
          "indexed": false,
          "internalType": "uint256",
          "name": "timestamp",
          "type": "uint256"
        }
      ],
      "name": "SavingsDeposit",
      "type": "event"
    },
    {
      "anonymous": false,
      "inputs": [
        {
          "indexed": true,
          "internalType": "address",
          "name": "user",
          "type": "address"
        },
        {
          "indexed": false,
          "internalType": "uint256",
          "name": "amount",
          "type": "uint256"
        },
        {
          "indexed": false,
          "internalType": "uint256",
          "name": "timestamp",
          "type": "uint256"
        }
      ],
      "name": "SavingsWithdrawal",
      "type": "event"
    },
    {
      "anonymous": false,
      "inputs": [
        {
          "indexed": true,
          "internalType": "address",
          "name": "from",
          "type": "address"
        },
        {
          "indexed": true,
          "internalType": "address",
          "name": "to",
          "type": "address"
        },
        {
          "indexed": false,
          "internalType": "uint256",
          "name": "amount",
          "type": "uint256"
        },
        {
          "indexed": false,
          "internalType": "uint256",
          "name": "timestamp",
          "type": "uint256"
        }
      ],
      "name": "Transfer",
      "type": "event"
    },
    {
      "anonymous": false,
      "inputs": [
        {
          "indexed": true,
          "internalType": "address",
          "name": "user",
          "type": "address"
        },
        {
          "indexed": false,
          "internalType": "uint256",
          "name": "amount",
          "type": "uint256"
        },
        {
          "indexed": false,
          "internalType": "uint256",
          "name": "timestamp",
          "type": "uint256"
        }
      ],
      "name": "Withdrawal",
      "type": "event"
    },
    {
      "inputs": [
        {
          "internalType": "uint256",
          "name": "offerId",
          "type": "uint256"
        }
      ],
      "name": "acceptLoanOffer",
      "outputs": [],
      "stateMutability": "nonpayable",
      "type": "function"
    },
    {
      "inputs": [
        {
          "internalType": "address",
          "name": "",
          "type": "address"
        }
      ],
      "name": "accounts",
      "outputs": [
        {
          "internalType": "uint256",
          "name": "balance",
          "type": "uint256"
        },
        {
          "internalType": "uint256",
          "name": "savingsBalance",
          "type": "uint256"
        },
        {
          "internalType": "uint256",
          "name": "savingsStartTime",
          "type": "uint256"
        },
        {
          "internalType": "uint256",
          "name": "lastInterestCalculation",
          "type": "uint256"
        },
        {
          "internalType": "bool",
          "name": "exists",
          "type": "bool"
        }
      ],
      "stateMutability": "view",
      "type": "function"
    },
    {
      "inputs": [
        {
          "internalType": "uint256",
          "name": "",
          "type": "uint256"
        }
      ],
      "name": "activeLoanOfferIds",
      "outputs": [
        {
          "internalType": "uint256",
          "name": "",
          "type": "uint256"
        }
      ],
      "stateMutability": "view",
      "type": "function"
    },
    {
      "inputs": [
        {
          "internalType": "uint256",
          "name": "offerId",
          "type": "uint256"
        }
      ],
      "name": "cancelLoanOffer",
      "outputs": [],
      "stateMutability": "nonpayable",
      "type": "function"
    },
    {
      "inputs": [],
      "name": "createAccount",
      "outputs": [],
      "stateMutability": "nonpayable",
      "type": "function"
    },
    {
      "inputs": [
        {
          "internalType": "uint256",
          "name": "amount",
          "type": "uint256"
        },
        {
          "internalType": "uint256",
          "name": "interestRate",
          "type": "uint256"
        },
        {
          "internalType": "uint256",
          "name": "durationInDays",
          "type": "uint256"
        },
        {
          "internalType": "uint256",
          "name": "minCollateralPercent",
          "type": "uint256"
        }
      ],
      "name": "createLoanOffer",
      "outputs": [],
      "stateMutability": "nonpayable",
      "type": "function"
    },
    {
      "inputs": [],
      "name": "deposit",
      "outputs": [],
      "stateMutability": "payable",
      "type": "function"
    },
    {
      "inputs": [
        {
          "internalType": "uint256",
          "name": "amount",
          "type": "uint256"
        }
      ],
      "name": "depositToSavings",
      "outputs": [],
      "stateMutability": "nonpayable",
      "type": "function"
    },
    {
      "inputs": [],
      "name": "getActiveLoanOffers",
      "outputs": [
        {
          "components": [
            {
              "internalType": "uint256",
              "name": "id",
              "type": "uint256"
            },
            {
              "internalType": "address",
              "name": "lender",
              "type": "address"
            },
            {
              "internalType": "uint256",
              "name": "amount",
              "type": "uint256"
            },
            {
              "internalType": "uint256",
              "name": "interestRate",
              "type": "uint256"
            },
            {
              "internalType": "uint256",
              "name": "durationInDays",
              "type": "uint256"
            },
            {
              "internalType": "uint256",
              "name": "minCollateralPercent",
              "type": "uint256"
            },
            {
              "internalType": "bool",
              "name": "active",
              "type": "bool"
            },
            {
              "internalType": "address",
              "name": "borrower",
              "type": "address"
            }
          ],
          "internalType": "struct DeFiBank.LoanOffer[]",
          "name": "",
          "type": "tuple[]"
        }
      ],
      "stateMutability": "view",
      "type": "function"
    },
    {
      "inputs": [],
      "name": "getBalance",
      "outputs": [
        {
          "internalType": "uint256",
          "name": "",
          "type": "uint256"
        }
      ],
      "stateMutability": "view",
      "type": "function"
    },
    {
      "inputs": [
        {
          "internalType": "uint256",
          "name": "loanIndex",
          "type": "uint256"
        }
      ],
      "name": "getLoan",
      "outputs": [
        {
          "internalType": "uint256",
          "name": "amount",
          "type": "uint256"
        },
        {
          "internalType": "uint256",
          "name": "interestRate",
          "type": "uint256"
        },
        {
          "internalType": "uint256",
          "name": "startTime",
          "type": "uint256"
        },
        {
          "internalType": "uint256",
          "name": "duration",
          "type": "uint256"
        },
        {
          "internalType": "bool",
          "name": "active",
          "type": "bool"
        },
        {
          "internalType": "uint256",
          "name": "repaidAmount",
          "type": "uint256"
        },
        {
          "internalType": "uint256",
          "name": "totalDue",
          "type": "uint256"
        }
      ],
      "stateMutability": "view",
      "type": "function"
    },
    {
      "inputs": [],
      "name": "getLoanCount",
      "outputs": [
        {
          "internalType": "uint256",
          "name": "",
          "type": "uint256"
        }
      ],
      "stateMutability": "view",
      "type": "function"
    },
    {
      "inputs": [],
      "name": "getSavingsBalance",
      "outputs": [
        {
          "internalType": "uint256",
          "name": "",
          "type": "uint256"
        }
      ],
      "stateMutability": "view",
      "type": "function"
    },
    {
      "inputs": [],
      "name": "getTransactionCount",
      "outputs": [
        {
          "internalType": "uint256",
          "name": "",
          "type": "uint256"
        }
      ],
      "stateMutability": "view",
      "type": "function"
    },
    {
      "inputs": [],
      "name": "getTransactionHistory",
      "outputs": [
        {
          "components": [
            {
              "internalType": "address",
              "name": "from",
              "type": "address"
            },
            {
              "internalType": "address",
              "name": "to",
              "type": "address"
            },
            {
              "internalType": "uint256",
              "name": "amount",
              "type": "uint256"
            },
            {
              "internalType": "uint256",
              "name": "timestamp",
              "type": "uint256"
            },
            {
              "internalType": "string",
              "name": "transactionType",
              "type": "string"
            }
          ],
          "internalType": "struct DeFiBank.Transaction[]",
          "name": "",
          "type": "tuple[]"
        }
      ],
      "stateMutability": "view",
      "type": "function"
    },
    {
      "inputs": [],
      "name": "loanInterestRate",
      "outputs": [
        {
          "internalType": "uint256",
          "name": "",
          "type": "uint256"
        }
      ],
      "stateMutability": "view",
      "type": "function"
    },
    {
      "inputs": [
        {
          "internalType": "uint256",
          "name": "",
          "type": "uint256"
        }
      ],
      "name": "loanOffers",
      "outputs": [
        {
          "internalType": "uint256",
          "name": "id",
          "type": "uint256"
        },
        {
          "internalType": "address",
          "name": "lender",
          "type": "address"
        },
        {
          "internalType": "uint256",
          "name": "amount",
          "type": "uint256"
        },
        {
          "internalType": "uint256",
          "name": "interestRate",
          "type": "uint256"
        },
        {
          "internalType": "uint256",
          "name": "durationInDays",
          "type": "uint256"
        },
        {
          "internalType": "uint256",
          "name": "minCollateralPercent",
          "type": "uint256"
        },
        {
          "internalType": "bool",
          "name": "active",
          "type": "bool"
        },
        {
          "internalType": "address",
          "name": "borrower",
          "type": "address"
        }
      ],
      "stateMutability": "view",
      "type": "function"
    },
    {
      "inputs": [
        {
          "internalType": "address",
          "name": "",
          "type": "address"
        },
        {
          "internalType": "uint256",
          "name": "",
          "type": "uint256"
        }
      ],
      "name": "loans",
      "outputs": [
        {
          "internalType": "uint256",
          "name": "amount",
          "type": "uint256"
        },
        {
          "internalType": "uint256",
          "name": "interestRate",
          "type": "uint256"
        },
        {
          "internalType": "uint256",
          "name": "startTime",
          "type": "uint256"
        },
        {
          "internalType": "uint256",
          "name": "duration",
          "type": "uint256"
        },
        {
          "internalType": "bool",
          "name": "active",
          "type": "bool"
        },
        {
          "internalType": "uint256",
          "name": "repaidAmount",
          "type": "uint256"
        },
        {
          "internalType": "address",
          "name": "lender",
          "type": "address"
        }
      ],
      "stateMutability": "view",
      "type": "function"
    },
    {
      "inputs": [],
      "name": "nextOfferId",
      "outputs": [
        {
          "internalType": "uint256",
          "name": "",
          "type": "uint256"
        }
      ],
      "stateMutability": "view",
      "type": "function"
    },
    {
      "inputs": [],
      "name": "owner",
      "outputs": [
        {
          "internalType": "address",
          "name": "",
          "type": "address"
        }
      ],
      "stateMutability": "view",
      "type": "function"
    },
    {
      "inputs": [
        {
          "internalType": "uint256",
          "name": "loanIndex",
          "type": "uint256"
        },
        {
          "internalType": "uint256",
          "name": "amount",
          "type": "uint256"
        }
      ],
      "name": "repayLoan",
      "outputs": [],
      "stateMutability": "nonpayable",
      "type": "function"
    },
    {
      "inputs": [],
      "name": "savingsInterestRate",
      "outputs": [
        {
          "internalType": "uint256",
          "name": "",
          "type": "uint256"
        }
      ],
      "stateMutability": "view",
      "type": "function"
    },
    {
      "inputs": [
        {
          "internalType": "uint256",
          "name": "rate",
          "type": "uint256"
        }
      ],
      "name": "setLoanInterestRate",
      "outputs": [],
      "stateMutability": "nonpayable",
      "type": "function"
    },
    {
      "inputs": [
        {
          "internalType": "uint256",
          "name": "rate",
          "type": "uint256"
        }
      ],
      "name": "setSavingsInterestRate",
      "outputs": [],
      "stateMutability": "nonpayable",
      "type": "function"
    },
    {
      "inputs": [
        {
          "internalType": "uint256",
          "name": "amount",
          "type": "uint256"
        },
        {
          "internalType": "uint256",
          "name": "durationInDays",
          "type": "uint256"
        }
      ],
      "name": "takeLoan",
      "outputs": [],
      "stateMutability": "nonpayable",
      "type": "function"
    },
    {
      "inputs": [],
      "name": "totalDeposits",
      "outputs": [
        {
          "internalType": "uint256",
          "name": "",
          "type": "uint256"
        }
      ],
      "stateMutability": "view",
      "type": "function"
    },
    {
      "inputs": [],
      "name": "totalLoans",
      "outputs": [
        {
          "internalType": "uint256",
          "name": "",
          "type": "uint256"
        }
      ],
      "stateMutability": "view",
      "type": "function"
    },
    {
      "inputs": [
        {
          "internalType": "address",
          "name": "",
          "type": "address"
        },
        {
          "internalType": "uint256",
          "name": "",
          "type": "uint256"
        }
      ],
      "name": "transactions",
      "outputs": [
        {
          "internalType": "address",
          "name": "from",
          "type": "address"
        },
        {
          "internalType": "address",
          "name": "to",
          "type": "address"
        },
        {
          "internalType": "uint256",
          "name": "amount",
          "type": "uint256"
        },
        {
          "internalType": "uint256",
          "name": "timestamp",
          "type": "uint256"
        },
        {
          "internalType": "string",
          "name": "transactionType",
          "type": "string"
        }
      ],
      "stateMutability": "view",
      "type": "function"
    },
    {
      "inputs": [
        {
          "internalType": "address",
          "name": "to",
          "type": "address"
        },
        {
          "internalType": "uint256",
          "name": "amount",
          "type": "uint256"
        }
      ],
      "name": "transfer",
      "outputs": [],
      "stateMutability": "nonpayable",
      "type": "function"
    },
    {
      "inputs": [
        {
          "internalType": "uint256",
          "name": "amount",
          "type": "uint256"
        }
      ],
      "name": "withdraw",
      "outputs": [],
      "stateMutability": "nonpayable",
      "type": "function"
    },
    {
      "inputs": [
        {
          "internalType": "uint256",
          "name": "amount",
          "type": "uint256"
        }
      ],
      "name": "withdrawFromSavings",
      "outputs": [],
      "stateMutability": "nonpayable",
      "type": "function"
    },
    {
      "stateMutability": "payable",
      "type": "receive"
    }
  ],
  "bytecode": "0x60806040526101f460035561032060045534801561001c57600080fd5b50600080546001600160a01b03191633179055612fbf8061003e6000396000f3fe6080604052600436106101dc5760003560e01c80636de7ce1411610102578063a318312511610095578063cc952b5711610064578063cc952b57146106aa578063d0e30db0146106c0578063d3099983146106c8578063f240f8cc146106e857600080fd5b8063a318312514610632578063a9059cbb14610652578063b76d4fc314610672578063c222bcea1461069457600080fd5b80638da5cb5b116100d15780638da5cb5b14610563578063904796d41461059b57806398c61c37146105bd5780639dca362f1461061d57600080fd5b80636de7ce14146104ed57806374cbe57e1461050d5780637d8820971461052d5780638a700b531461054357600080fd5b80632e7700f01161017a578063521968121161014957806352196812146104295780635e5c06e21461044b5780635f5d0655146104c2578063620d54b2146104d857600080fd5b80632e7700f0146103705780634402cc2b146103925780634b56504f146103b2578063504006ca146103d257600080fd5b806321265d0e116101b657806321265d0e146102575780632a3cb13a146102795780632c7bdd4b146102995780632e1a7d4d1461035057600080fd5b806312065fe0146101e85780631453812814610210578063196a29eb1461024157600080fd5b366101e357005b600080fd5b3480156101f457600080fd5b506101fd610708565b6040519081526020015b60405180910390f35b34801561021c57600080fd5b5061023061022b366004612a09565b610757565b604051610207959493929190612a79565b34801561024d57600080fd5b506101fd60035481565b34801561026357600080fd5b50610277610272366004612abe565b61083f565b005b34801561028557600080fd5b50610277610294366004612abe565b610b63565b3480156102a557600080fd5b506103086102b4366004612abe565b600860205260009081526040902080546001820154600283015460038401546004850154600586015460069096015494956001600160a01b0394851695939492939192909160ff8116916101009091041688565b604080519889526001600160a01b0397881660208a01528801959095526060870193909352608086019190915260a0850152151560c08401521660e082015261010001610207565b34801561035c57600080fd5b5061027761036b366004612abe565b610b92565b34801561037c57600080fd5b50336000908152600760205260409020546101fd565b34801561039e57600080fd5b506101fd6103ad366004612abe565b610d2b565b3480156103be57600080fd5b506102776103cd366004612abe565b610d4c565b3480156103de57600080fd5b506103f26103ed366004612abe565b610f36565b6040805197885260208801969096529486019390935260608501919091521515608084015260a083015260c082015260e001610207565b34801561043557600080fd5b50336000908152600660205260409020546101fd565b34801561045757600080fd5b50610498610466366004612ad7565b600560205260009081526040902080546001820154600283015460038401546004909401549293919290919060ff1685565b6040805195865260208601949094529284019190915260608301521515608082015260a001610207565b3480156104ce57600080fd5b506101fd60095481565b3480156104e457600080fd5b506101fd6110c5565b3480156104f957600080fd5b50610277610508366004612abe565b6111af565b34801561051957600080fd5b50610277610528366004612abe565b6111de565b34801561053957600080fd5b506101fd60015481565b34801561054f57600080fd5b5061027761055e366004612af9565b611330565b34801561056f57600080fd5b50600054610583906001600160a01b031681565b6040516001600160a01b039091168152602001610207565b3480156105a757600080fd5b506105b0611742565b6040516102079190612b1b565b3480156105c957600080fd5b506105dd6105d8366004612a09565b61195e565b6040805197885260208801969096529486019390935260608501919091521515608084015260a08301526001600160a01b031660c082015260e001610207565b34801561062957600080fd5b506102776119c7565b34801561063e57600080fd5b5061027761064d366004612af9565b611a8f565b34801561065e57600080fd5b5061027761066d366004612a09565b611d82565b34801561067e57600080fd5b50610687611fcb565b6040516102079190612bb6565b3480156106a057600080fd5b506101fd60045481565b3480156106b657600080fd5b506101fd60025481565b6102776120ff565b3480156106d457600080fd5b506102776106e3366004612abe565b612235565b3480156106f457600080fd5b50610277610703366004612c57565b612404565b3360009081526005602052604081206004015460ff166107435760405162461bcd60e51b815260040161073a90612c89565b60405180910390fd5b503360009081526005602052604090205490565b6007602052816000526040600020818154811061077357600080fd5b6000918252602090912060059091020180546001820154600283015460038401546004850180546001600160a01b0395861698509390941695509093909290916107bc90612cb9565b80601f01602080910402602001604051908101604052809291908181526020018280546107e890612cb9565b80156108355780601f1061080a57610100808354040283529160200191610835565b820191906000526020600020905b81548152906001019060200180831161081857829003601f168201915b5050505050905085565b3360009081526005602052604090206004015460ff166108715760405162461bcd60e51b815260040161073a90612c89565b6000818152600860205260409020600681015460ff166108ce5760405162461bcd60e51b81526020600482015260186024820152774c6f616e206f66666572206973206e6f742061637469766560401b604482015260640161073a565b6001810154336001600160a01b03909116036109365760405162461bcd60e51b815260206004820152602160248201527f43616e6e6f742061636365707420796f7572206f776e206c6f616e206f6666656044820152603960f91b606482015260840161073a565b600060648260050154836002015461094e9190612d09565b6109589190612d26565b336000908152600560205260409020600101549091508111156109b75760405162461bcd60e51b8152602060048201526017602482015276125b9cdd59999a58da595b9d0818dbdb1b185d195c985b604a1b604482015260640161073a565b6006820180546001600160a81b03191661010033021790556040805160e081018252600284015481526003840154602082015242918101919091526004830154600091906060820190610a0d9062015180612d09565b81526001602080830182905260006040808501829052888401546001600160a01b03908116606096870152338084526006808652838520805480890182559086528686208a51600790920201908155898701519781019790975588840151600280890191909155978901516003880155608089015160048801805460ff191691151591909117905560a089015160058089019190915560c08a01519790910180546001600160a01b0319169790931696909617909155948901549482529290915290812080549394509192610ae3908490612d48565b90915550610af29050846126a5565b60018301546002840154604080518082019091526008815267281928102637b0b760c11b6020820152610b30926001600160a01b0316913391612761565b604051339085907f2e68edc76171b2dc4d4b10fffed9d8fe887a05c5c66f45a570ca91f141464a7390600090a350505050565b6000546001600160a01b03163314610b8d5760405162461bcd60e51b815260040161073a90612d5b565b600455565b3360009081526005602052604090206004015460ff16610bc45760405162461bcd60e51b815260040161073a90612c89565b60008111610c255760405162461bcd60e51b815260206004820152602860248201527f5769746864726177616c20616d6f756e74206d75737420626520677265617465604482015267072207468616e20360c41b606482015260840161073a565b33600090815260056020526040902054811115610c545760405162461bcd60e51b815260040161073a90612d9c565b3360009081526005602052604081208054839290610c73908490612dca565b925050819055508060016000828254610c8c9190612dca565b9091555050604051339082156108fc029083906000818181858888f19350505050158015610cbe573d6000803e3d6000fd5b50610ced3333836040518060400160405280600a81526020016915da5d1a191c985dd85b60b21b815250612761565b6040805182815242602082015233917fdf273cb619d95419a9cd0ec88123a0538c85064229baa6363788f743fff90deb91015b60405180910390a250565b600a8181548110610d3b57600080fd5b600091825260209091200154905081565b3360009081526005602052604090206004015460ff16610d7e5760405162461bcd60e51b815260040161073a90612c89565b60008111610dce5760405162461bcd60e51b815260206004820152601d60248201527f416d6f756e74206d7573742062652067726561746572207468616e2030000000604482015260640161073a565b33600090815260056020526040902060010154811115610e305760405162461bcd60e51b815260206004820152601c60248201527f496e73756666696369656e7420736176696e67732062616c616e636500000000604482015260640161073a565b610e39336128b8565b3360009081526005602052604081206001018054839290610e5b908490612dca565b90915550503360009081526005602052604081208054839290610e7f908490612d48565b9091555050336000908152600560205260408120600101549003610eb157336000908152600560205260408120600201555b33600081815260056020908152604091829020426003909101558151808301909252601282527114d85d9a5b99dcc815da5d1a191c985dd85b60721b90820152610eff919081908490612761565b6040805182815242602082015233917fbc5ad05086f5c2b5ee738247479b6ca942dbc8b5f4d742217264a5ab2e1467119101610d20565b336000908152600660205260408120548190819081908190819081908810610f955760405162461bcd60e51b81526020600482015260126024820152710d2dcecc2d8d2c840d8dec2dc40d2dcc8caf60731b604482015260640161073a565b33600090815260066020526040812080548a908110610fb657610fb6612ddd565b600091825260208083206040805160e081018252600790940290910180548452600181015492840192909252600282015490830181905260038201546060840152600482015460ff1615156080840152600582015460a08401526006909101546001600160a01b031660c08301529092506110319042612dca565b9050600064496cebb80082846020015185600001516110509190612d09565b61105a9190612d09565b6110649190612d26565b905060008360a0015182856000015161107d9190612d48565b6110879190612dca565b9050836000015184602001518560400151866060015187608001518860a00151869a509a509a509a509a509a509a5050505050919395979092949650565b3360009081526005602052604081206004015460ff166110f75760405162461bcd60e51b815260040161073a90612c89565b336000908152600560209081526040808320815160a081018352815481526001820154938101849052600282015492810192909252600381015460608301526004015460ff1615156080820152910361115257600091505090565b60008160600151426111649190612dca565b90506000640757b12c008260035485602001516111819190612d09565b61118b9190612d09565b6111959190612d26565b90508083602001516111a79190612d48565b935050505090565b6000546001600160a01b031633146111d95760405162461bcd60e51b815260040161073a90612d5b565b600355565b3360009081526005602052604090206004015460ff166112105760405162461bcd60e51b815260040161073a90612c89565b6000818152600860205260409020600681015460ff1661126d5760405162461bcd60e51b81526020600482015260186024820152774c6f616e206f66666572206973206e6f742061637469766560401b604482015260640161073a565b60018101546001600160a01b031633146112c25760405162461bcd60e51b815260206004820152601660248201527513db9b1e481b195b99195c8818d85b8818d85b98d95b60521b604482015260640161073a565b60068101805460ff19169055600281015433600090815260056020526040812080549091906112f2908490612d48565b909155506113019050826126a5565b60405182907feff051d270f5ecee1680a12ea87f0452d48a2637f5e381834c1b9d630e1b914890600090a25050565b3360009081526005602052604090206004015460ff166113625760405162461bcd60e51b815260040161073a90612c89565b3360009081526006602052604090205482106113b55760405162461bcd60e51b8152602060048201526012602482015271092dcecc2d8d2c840d8dec2dc40d2dcc8caf60731b604482015260640161073a565b3360009081526006602052604090208054839081106113d6576113d6612ddd565b600091825260209091206004600790920201015460ff1661142e5760405162461bcd60e51b81526020600482015260126024820152714c6f616e206973206e6f742061637469766560701b604482015260640161073a565b6000811161148e5760405162461bcd60e51b815260206004820152602760248201527f52657061796d656e7420616d6f756e74206d75737420626520677265617465726044820152660207468616e20360cc1b606482015260840161073a565b336000908152600560205260409020548111156114bd5760405162461bcd60e51b815260040161073a90612d9c565b3360009081526006602052604081208054849081106114de576114de612ddd565b9060005260206000209060070201905060008160020154426115009190612dca565b9050600064496cebb800828460010154856000015461151f9190612d09565b6115299190612d09565b6115339190612d26565b90506000836005015482856000015461154c9190612d48565b6115569190612dca565b9050808511156115a85760405162461bcd60e51b815260206004820152601d60248201527f52657061796d656e742065786365656473206c6f616e20616d6f756e74000000604482015260640161073a565b33600090815260056020526040812080548792906115c7908490612dca565b92505081905550848460050160008282546115e29190612d48565b909155505083546115f4908390612d48565b8460050154106116365760048401805460ff1916905560068401546001600160a01b031661163657835460028054600090611630908490612dca565b90915550505b60068401546001600160a01b0316156116c65760068401546001600160a01b031660009081526005602052604081208054879290611675908490612d48565b90915550506006840154604080518082019091526012815271140c9408131bd85b8814995c185e5b595b9d60721b60208201526116c19133916001600160a01b03909116908890612761565b6116f8565b6116f83330876040518060400160405280600e81526020016d131bd85b8814995c185e5b595b9d60921b815250612761565b60408051878152602081018790524281830152905133917f2cebe3c4a7e8e81ca2035a6cb3ee450bb6401d9b6636652e183583f047049572919081900360600190a2505050505050565b600a5460609060009067ffffffffffffffff81111561176357611763612df3565b60405190808252806020026020018201604052801561179c57816020015b611789612994565b8152602001906001900390816117815790505b5090506000805b600a548110156118a9576000600a82815481106117c2576117c2612ddd565b6000918252602080832090910154808352600890915260409091206006015490915060ff161561189657600081815260086020908152604091829020825161010080820185528254825260018301546001600160a01b03908116948301949094526002830154948201949094526003820154606082015260048201546080820152600582015460a082015260069091015460ff8116151560c0830152929092041660e0820152845185908590811061187c5761187c612ddd565b6020026020010181905250828061189290612e09565b9350505b50806118a181612e09565b9150506117a3565b5060008167ffffffffffffffff8111156118c5576118c5612df3565b6040519080825280602002602001820160405280156118fe57816020015b6118eb612994565b8152602001906001900390816118e35790505b50905060005b828110156119565783818151811061191e5761191e612ddd565b602002602001015182828151811061193857611938612ddd565b6020026020010181905250808061194e90612e09565b915050611904565b509392505050565b6006602052816000526040600020818154811061197a57600080fd5b600091825260209091206007909102018054600182015460028301546003840154600485015460058601546006909601549497509295509093909260ff909216916001600160a01b031687565b3360009081526005602052604090206004015460ff1615611a235760405162461bcd60e51b81526020600482015260166024820152754163636f756e7420616c72656164792065786973747360501b604482015260640161073a565b6040805160a081018252600080825260208083018281528385018381524260608601908152600160808701818152338752600590955296909420945185559051948401949094559251600283015551600382015590516004909101805460ff1916911515919091179055565b3360009081526005602052604090206004015460ff16611ac15760405162461bcd60e51b815260040161073a90612c89565b60008211611ae15760405162461bcd60e51b815260040161073a90612e22565b60008111611b315760405162461bcd60e51b815260206004820152601f60248201527f4475726174696f6e206d7573742062652067726561746572207468616e203000604482015260640161073a565b81471015611b815760405162461bcd60e51b815260206004820152601d60248201527f496e73756666696369656e7420636f6e74726163742062616c616e6365000000604482015260640161073a565b60006064611b90846096612d09565b611b9a9190612d26565b33600090815260056020526040902060010154909150811115611bf95760405162461bcd60e51b8152602060048201526017602482015276125b9cdd59999a58da595b9d0818dbdb1b185d195c985b604a1b604482015260640161073a565b60006040518060e0016040528085815260200160045481526020014281526020018462015180611c299190612d09565b8152600160208083018290526000604080850182905260609485018290523380835260068085528284208054808801825590855285852089516007909202019081558886015196810196909655878301516002870155958701516003860155608087015160048601805460ff191691151591909117905560a087015160058087019190915560c08801519590960180546001600160a01b0319166001600160a01b0390961695909517909455928152929052812080549293508692909190611cf2908490612d48565b925050819055508360026000828254611d0b9190612d48565b92505081905550611d3a303386604051806040016040528060048152602001632637b0b760e11b815250612761565b60408051858152602081018590524281830152905133917f1daae93c0719c540c3891d8a11e5f3b79cbd03028f1fa7e520d31c1a87843335919081900360600190a250505050565b3360009081526005602052604090206004015460ff16611db45760405162461bcd60e51b815260040161073a90612c89565b6001600160a01b038216611e0a5760405162461bcd60e51b815260206004820152601960248201527f496e76616c696420726563697069656e74206164647265737300000000000000604482015260640161073a565b6001600160a01b03821660009081526005602052604090206004015460ff16611e755760405162461bcd60e51b815260206004820181905260248201527f526563656970656e74206163636f756e7420646f6573206e6f74206578697374604482015260640161073a565b60008111611ed45760405162461bcd60e51b815260206004820152602660248201527f5472616e7366657220616d6f756e74206d75737420626520677265617465722060448201526507468616e20360d41b606482015260840161073a565b33600090815260056020526040902054811115611f035760405162461bcd60e51b815260040161073a90612d9c565b3360009081526005602052604081208054839290611f22908490612dca565b90915550506001600160a01b03821660009081526005602052604081208054839290611f4f908490612d48565b92505081905550611f82338383604051806040016040528060088152602001672a3930b739b332b960c11b815250612761565b604080518281524260208201526001600160a01b0384169133917f9ed053bb818ff08b8353cd46f78db1f0799f31c9e4458fdb425c10eccd2efc44910160405180910390a35050565b336000908152600760209081526040808320805482518185028101850190935280835260609492939192909184015b828210156120f65760008481526020908190206040805160a0810182526005860290920180546001600160a01b039081168452600182015416938301939093526002830154908201526003820154606082015260048201805491929160808401919061206590612cb9565b80601f016020809104026020016040519081016040528092919081815260200182805461209190612cb9565b80156120de5780601f106120b3576101008083540402835291602001916120de565b820191906000526020600020905b8154815290600101906020018083116120c157829003601f168201915b50505050508152505081526020019060010190611ffa565b50505050905090565b3360009081526005602052604090206004015460ff166121315760405162461bcd60e51b815260040161073a90612c89565b6000341161218f5760405162461bcd60e51b815260206004820152602560248201527f4465706f73697420616d6f756e74206d75737420626520677265617465722074604482015264068616e20360dc1b606482015260840161073a565b33600090815260056020526040812080543492906121ae908490612d48565b9250508190555034600160008282546121c79190612d48565b925050819055506121f93333346040518060400160405280600781526020016611195c1bdcda5d60ca1b815250612761565b6040805134815242602082015233917f90890809c654f11d6e72a28fa60149770a0d11ec6c92319d6ceb2bb0a4ea1a15910160405180910390a2565b3360009081526005602052604090206004015460ff166122675760405162461bcd60e51b815260040161073a90612c89565b600081116122b75760405162461bcd60e51b815260206004820152601d60248201527f416d6f756e74206d7573742062652067726561746572207468616e2030000000604482015260640161073a565b336000908152600560205260409020548111156122e65760405162461bcd60e51b815260040161073a90612d9c565b336000908152600560205260409020600101541561230757612307336128b8565b3360009081526005602052604081208054839290612326908490612dca565b9091555050336000908152600560205260408120600101805483929061234d908490612d48565b909155505033600090815260056020526040812060020154900361238257336000908152600560205260409020426002909101555b33600081815260056020908152604091829020426003909101558151808301909252600f82526e14d85d9a5b99dcc811195c1bdcda5d608a1b908201526123cd919081908490612761565b6040805182815242602082015233917fa1977b78fdb0389c2a3c7e0d3ef23e6a4eb9983e42821101d4a0fd89de4337539101610d20565b3360009081526005602052604090206004015460ff166124365760405162461bcd60e51b815260040161073a90612c89565b600084116124565760405162461bcd60e51b815260040161073a90612e22565b600083116124b25760405162461bcd60e51b8152602060048201526024808201527f496e7465726573742072617465206d75737420626520677265617465722074686044820152630616e20360e41b606482015260840161073a565b600082116125025760405162461bcd60e51b815260206004820152601f60248201527f4475726174696f6e206d7573742062652067726561746572207468616e203000604482015260640161073a565b336000908152600560205260409020548411156125315760405162461bcd60e51b815260040161073a90612d9c565b3360009081526005602052604081208054869290612550908490612dca565b9091555050600980546000918261256683612e09565b909155506040805161010080820183528382523360208084018281528486018c8152606086018c8152608087018c815260a088018c8152600160c08a01818152600060e08c018181528e825260088a528d82209c518d5597518c840180546001600160a01b0319166001600160a01b03928316179055965160028d0155945160038c0155925160048b0155905160058a015590516006909801805494516001600160a81b0319909516981515610100600160a81b031916989098179390921690950291909117909455600a805494850181559092527fc65a7bb8d6351c1cf70c95a316cc6a92839c986682d98bc35f958f4883f9d2a890920184905582518981529081018890529293509183917f46572db6c519c91cef0e381ca28d10dfbc4806dae4864b5876bf5b3f0dd01f93910160405180910390a35050505050565b60005b600a5481101561275d5781600a82815481106126c6576126c6612ddd565b90600052602060002001540361274b57600a80546126e690600190612dca565b815481106126f6576126f6612ddd565b9060005260206000200154600a828154811061271457612714612ddd565b600091825260209091200155600a80548061273157612731612e64565b600190038181906000526020600020016000905590555050565b8061275581612e09565b9150506126a8565b5050565b6040805160a0810182526001600160a01b03808716808352868216602080850191825284860188815242606087019081526080870189815260009586526007845297852080546001818101835591875293909520875160059094020180549387166001600160a01b0319948516178155935194840180549590961694909216939093179093559051600282015590516003820155915190918291600482019061280a9082612ec9565b505050836001600160a01b0316856001600160a01b0316146128b1576001600160a01b03808516600090815260076020908152604080832080546001818101835591855293839020865160059095020180549486166001600160a01b031995861617815592860151908301805491909516931692909217909255820151600282015560608201516003820155608082015182919060048201906128ad9082612ec9565b5050505b5050505050565b6001600160a01b038116600090815260056020526040812060018101549091036128e0575050565b60008160030154426128f29190612dca565b9050600064496cebb80082600354856001015461290f9190612d09565b6129199190612d09565b6129239190612d26565b90508015612988578083600101600082825461293f9190612d48565b9091555050604080518281524260208201526001600160a01b038616917f480e1db5cda5860b75e338921c2926b382dd6bbe98c35521f5d46683fba516c8910160405180910390a25b50504260039091015550565b6040518061010001604052806000815260200160006001600160a01b031681526020016000815260200160008152602001600081526020016000815260200160001515815260200160006001600160a01b031681525090565b80356001600160a01b0381168114612a0457600080fd5b919050565b60008060408385031215612a1c57600080fd5b612a25836129ed565b946020939093013593505050565b6000815180845260005b81811015612a5957602081850181015186830182015201612a3d565b506000602082860101526020601f19601f83011685010191505092915050565b6001600160a01b03868116825285166020820152604081018490526060810183905260a060808201819052600090612ab390830184612a33565b979650505050505050565b600060208284031215612ad057600080fd5b5035919050565b600060208284031215612ae957600080fd5b612af2826129ed565b9392505050565b60008060408385031215612b0c57600080fd5b50508035926020909101359150565b602080825282518282018190526000919060409081850190868401855b82811015612ba957815180518552868101516001600160a01b03908116888701528682015187870152606080830151908701526080808301519087015260a0808301519087015260c08083015115159087015260e09182015116908501526101009093019290850190600101612b38565b5091979650505050505050565b60006020808301818452808551808352604092508286019150828160051b87010184880160005b83811015612c4957888303603f19018552815180516001600160a01b03908116855288820151168885015286810151878501526060808201519085015260809081015160a091850182905290612c3581860183612a33565b968901969450505090860190600101612bdd565b509098975050505050505050565b60008060008060808587031215612c6d57600080fd5b5050823594602084013594506040840135936060013592509050565b6020808252601690820152751058d8dbdd5b9d08191bd95cc81b9bdd08195e1a5cdd60521b604082015260600190565b600181811c90821680612ccd57607f821691505b602082108103612ced57634e487b7160e01b600052602260045260246000fd5b50919050565b634e487b7160e01b600052601160045260246000fd5b8082028115828204841417612d2057612d20612cf3565b92915050565b600082612d4357634e487b7160e01b600052601260045260246000fd5b500490565b80820180821115612d2057612d20612cf3565b60208082526021908201527f4f6e6c79206f776e65722063616e2063616c6c20746869732066756e6374696f6040820152603760f91b606082015260800190565b602080825260149082015273496e73756666696369656e742062616c616e636560601b604082015260600190565b81810381811115612d2057612d20612cf3565b634e487b7160e01b600052603260045260246000fd5b634e487b7160e01b600052604160045260246000fd5b600060018201612e1b57612e1b612cf3565b5060010190565b60208082526022908201527f4c6f616e20616d6f756e74206d7573742062652067726561746572207468616e604082015261020360f41b606082015260800190565b634e487b7160e01b600052603160045260246000fd5b601f821115612ec457600081815260208120601f850160051c81016020861015612ea15750805b601f850160051c820191505b81811015612ec057828155600101612ead565b5050505b505050565b815167ffffffffffffffff811115612ee357612ee3612df3565b612ef781612ef18454612cb9565b84612e7a565b602080601f831160018114612f2c5760008415612f145750858301515b600019600386901b1c1916600185901b178555612ec0565b600085815260208120601f198616915b82811015612f5b57888601518255948401946001909101908401612f3c565b5085821015612f795787850151600019600388901b60f8161c191681555b5050505050600190811b0190555056fea2646970667358221220ea38962ef834bc135f546384e8d047f91d566bc3562659ffc14aa32f5897c2fa64736f6c63430008130033",
  "linkReferences": {},
  "deployedLinkReferences": {}
}